:020000041000EA
:10000000002008205D0100101B0100101D010010E0
:100010001101001011010010110100101101001058
:100020001901001019010010190100101F01001022
:10003000110100101901001021010010230100100E
:100040001101001011010010110100101101001028
:100050001101001011010010110100101101001018
:100060001101001011010010110100101101001008
:1000700011010010110100101101001011010010F8
:1000800011010010110100101101001011010010E8
:1000900011010010110100101101001011010010D8
:1000A00011010010110100101101001011010010C8
:1000B00011010010110100101101001011010010B8
:1000C00011010010110100101101001011010010A8
:1000D0001101001011010010110100101101001098
:1000E0001101001011010010110100101101001088
:1000F0001101001011010010110100101101001078
:100100001101001011010010110100101101001067
:10011000EFF30580103800BE00BE00BE00BE00BE7A
:1001200000BE00BEF2EB8871B02F0510D42F051071
:10013000A001001090A31AE7D3DEFFFF42012110B7
:10014000FF010000144B0500793512AB4FF00000A1
:100150001E49086006C881F3088810474FF05040D8
:10016000006810B14FF00000F2E70DA40ECC00299A
:1001700002D000F012F8F9E71549164A002000E015
:1001800001C19142FCD11449884714498847144958
:10019000884700BEFDE701C901C29A42FBD3704700
:1001A000D42F051020010020981D00204C4C051074
:1001B00000000820000008204C4C0510001008200A
:1001C00000100820000000007047000008ED00E06B
:1001D000981D002024DD0620D55F0010E9090010DD
:1001E000995F0010F8B500BF064B0749C91A89107E
:1001F00048BF0131491003D0044B0BB101481847E7
:10020000704700BF981D0020981D002000000000CE
:1002100008B5054B1BB105490548AFF30080BDE8A3
:100220000840FFF7E1BF00BF00000000E8DA062049
:10023000DC6B011003460168EFF3108272B6D1E85F
:10024000CFCF0120BCF1000FF9D1C1E84C0FBCF1B8
:10025000000FF4D1BFF35F8F18895989401A06D473
:1002600019680023C1E88F3F82F310887047D9894D
:1002700001310844F4E770B504460D46164602F015
:1002800087FE034632462946204603F0FBFF70BD39
:1002900038B504460D4611461A46FFF7ECFF2561B6
:1002A00038BD0120704708B503F0FEFF08BD2DE9F9
:1002B000F04105460F469046002607E0394628469D
:1002C00003F0F7FF2B693846984726462846FFF784
:1002D000B1FF18B1731CDCB24645EFD3BDE8F08125
:1002E00070B584B005460C4601AB02AA03A904F020
:1002F00083F818B954B9204604B070BD0646019A77
:100300000299039804F046F83446F4E72946014878
:1003100002F0AAFDE06B011010B5C0B001467622D4
:10032000684616F0F7F91CA1D1E9000109F0E8FCD4
:10033000EFF3108472B64FF48051194816F004FCA4
:10034000002305E000BF00BF00BF00BF00BF0133B6
:10035000B3F57A7FF6DB4FF480726946104816F0E9
:10036000CFFB002305E000BF00BF00BF00BF00BF00
:100370000133B3F57A7FF6DB84F3108806A1D1E967
:10038000000109F0CFFC0028F8D04FF4FA7003F018
:1003900091FD40B010BD00BF00C0C678D11E010065
:1003A00000F01F0070B58AB00446C9B103238DF870
:1003B000043016F025FA05468DF825000DF10506E6
:1003C00020220021304616F0F3F8EAB221463046EA
:1003D00016F0A0F901A90448FFF765FF0AB070BD47
:1003E00005F0A0FFFAE700BFDC370620F8B50746A6
:1003F0000C4600260BE000214FF0FF3007F082FA98
:10040000002007F07BFD002007F038FDD0B1002C64
:1004100018DD002007F0F0FD844200DA20460028B5
:10042000E9D00246B919002007F0C4FD05460021B5
:100430004FF0FF3007F066FA002007F05FFD2E4412
:10044000641BE4E7F8BD00002DE9F043AFB00746B8
:100450000E469046002406E02A78552A13D0AB4B6E
:1004600000221A700134B44280F0DB81A74D95F868
:1004700000C00CF10103DBB22B703A5DA44D05F80E
:100480000C20012BE8D0022B0DD0022BEAD99A1EAA
:100490009F498A5CAA2AE5D15A1E8A5C552AE1D175
:1004A000002211460BE09A4A5278AA2AEDD0974BC7
:1004B00000221A70D6E7964D6854013101329342FA
:1004C0000ADD9348805CF028F5D10132904DA85C9C
:1004D00080F0F0006854F0E78D4A9278062A00F226
:1004E0009B81DFE812F007003900B8006201720159
:1004F0007E018901052B04D041468648FFF752FF53
:100500004FE141468448FFF74DFF10AD834A8449CF
:10051000284605F0FDFC41462846FFF743FF814A87
:100520008149284605F0F4FC41462846FFF73AFF8A
:100530004FF4C0227D49284605F0EAFC4146284692
:10054000FFF730FF18227A49284605F0E1FC4146C2
:100550002846FFF727FF24E1764B774A13601B7884
:10056000012B2BD0022B42D0032B59D06848437962
:1005700090F831200592003B18BF012304930379C2
:10058000039390F82130029300F10903019390F84E
:100590003030009390F82F30D0F82B20D0F827106F
:1005A000D0F8230001F09CFD00284FD0414663485D
:1005B000FFF7F8FE624B01221A70F2E0544890F8FF
:1005C00031300493B0F807300393437902930379F1
:1005D000019390F82130009300F10903D0F82B200B
:1005E000D0F82710D0F8230001F03CFADCE74848A7
:1005F00090F831300493B0F80730039343790293B5
:100600000379019390F82130009300F10903D0F8A9
:100610002B20D0F82710D0F8230001F045F8C3E7CD
:100620003B48437990F831200292003B18BF0123E8
:1006300001930379009390F8213000F10902D0F87A
:100640002B10D0F8230001F009FCADE741463D48EE
:10065000FFF7A8FEA5E0374B3B4A13601D460DF19E
:10066000400903F1200ECC4628686968AA68EB6847
:10067000ACE80F001035E1467545F4D12B788CF8C5
:100680000030234B03F124090DF1610503F1640EE1
:10069000CC46BCE80F0028606960AA60EB60E146C8
:1006A0001035F445F4D1DFF868C00CF164050FCDC6
:1006B000CDF8A100CDF8A510CDF8A920CDF8AD302A
:1006C000BCF8753098B2ADF8B23000230AE0BDF83E
:1006D000B42003F1B801694411F8781C0A44ADF85C
:1006E000B4200133202BF2DD00230AE0BDF8B42052
:1006F00003F1B801694411F8571C0A44ADF8B4205D
:1007000001333F2BF2DD00232BE000BFFDDC062090
:1007100058DA0620146C0110286C011000E1F50570
:100720004C6C011000C2EB0B586C0110686C01108E
:10073000746C01105BDA062044DB0620846C011027
:1007400000DD0620986C0110CCDB0620BDF8B4203B
:1007500003F1B801694411F8171C0A44ADF8B4203C
:1007600001330F2BF2DDBDF8B43003449BB2ADF87A
:10077000B43003F60F73ADF8B43010AD2846FFF770
:10078000CBFD76222946284815F0C4FF02238DF8B8
:100790001C3007A92548FFF786FD41462448FFF78E
:1007A00001FE244B00221A705CE6B8F1000F04D160
:1007B00041462148FFF7F6FDF3E704238DF840306A
:1007C00010A91A48FFF76FFDEBE741461B48FFF7FA
:1007D000E9FD4FF47A7003F06DFB0021084603F049
:1007E00068FF174B01221A70164B00221A6041460F
:1007F0001548FFF7D7FDD4E70025114B1D70114BAD
:100800001D6041461148FFF7CDFD8DF8405010A9FD
:100810000648FFF748FDC4E741460D48FFF7C2FD13
:10082000BFE72FB0BDE8F08354DC0620DC3706209C
:10083000A86C0110FDDC0620B86C0110CC6C011016
:10084000FADC0620BC270020E46C0110F06C0110DB
:10085000146C011010B582B00446002005F00AFDAA
:1008600010F1020F0DD08DF8070014B1204602B030
:1008700010BD002201210DF10700FFF7E5FD012465
:10088000F4E70024F2E708B5002005F0F3FC10F1CE
:10089000020FF9D108BD000030B589B0044620220E
:1008A0000021684615F084FE206816F039F90246EA
:1008B0000B461049684605F02BFB431C00F1200253
:1008C0006A445F2102F8201C22798AB13122203348
:1008D0006B4403F8202C00F122030DEB03000A23E4
:1008E00000F8203C01216846FFF75CFD09B030BDEF
:1008F0003022ECE7FC6C011000B583B003460278AF
:10090000042A07D8DFE802F003090D132100144B75
:1009100001221A7003B05DF804FB124B01221A7019
:10092000F8E7104B00221A70FFF7ADFFF2E70E4A0E
:1009300012781AB10D4B01221A70EBE7012290F8E0
:1009400081101044FFF780FDE4E76A46D0F801000B
:10095000D3F8051003C26846FFF79EFFDAE700BF31
:1009600003DD06201FDD062018DD062004DD06203D
:1009700010B504460A48FFF794FC2CB1094B01223C
:100980001A70094B00221A70082208490448FFF720
:100990008EFC044B00221A70034B187810BD00BF68
:1009A000CCDC062018DD062004DD0620D0DB062086
:1009B00008B5054B1B781BB10020FFF7D9FF08BD18
:1009C0000020FFF747FFF7E71FDD062008B5054BBE
:1009D0001B781BB90120FFF73DFF10B90120FFF77D
:1009E000C7FF08BD1FDD062070B58EB00121A448E9
:1009F000FFF776FC4FF0E02305221A610CA805F002
:100A000093FF00221346072A08DC02F138016944EB
:100A100011F8081C0B449BB20132F4E7C3F3090040
:100A20009B1103F47C73184403F044FA05F01EFC98
:100A30000823822293499448FFF72AFC934809F03F
:100A400037F904E0012292498F48FFF730FC914BBF
:100A50001B78002BF6D04FF47A7003F02BFA80222B
:100A600000218D4815F0A4FD00238DF80C3003A95A
:100A70008A48FFF718FC97E004210DEB0100FFF70F
:100A8000B5FCBAE0019B5B000193029B5B00029303
:100A9000BEE0019B9B000193029B9B000293B7E089
:100AA00003238DF80C3000241BE001340133844211
:100AB00011D21F2B0FDC02994A1C029215F801C0BB
:100AC00003F13801694401F82BCCB2F5003FECD3B7
:100AD00000220292E9E78DF82D3003A96F48FFF755
:100AE000E2FB0198844201D20023E0E79DF8033045
:100AF0008DF80D3001238DF82D3003A96748FFF7DD
:100B0000D2FB00240BE056F82430CDF80D3004233E
:100B10008DF82D3003A96148FFF7C5FB01349DF81E
:100B20000330A342EFDC95E02844FFF75FFC87E049
:100B300089003046FFF75AFC8CE001238DF80C3019
:100B400003A95648FFF7AFFB4FF47A7003F0B2F9F0
:100B5000FFF73CFF58B100F073FD0023504A1370BB
:100B60008DF80C3003A94D48FFF79DFB1CE00023D6
:100B70008DF80C3003A94948FFF795FB00F02EFCD7
:100B80004FF47A7003F096F90EE0464B1B784BB1A8
:100B9000454A1368591C1160394A93425ED0434B51
:100BA000994263D0FFF704FF3D4B1B78002BECD03C
:100BB00001F082FC0028C0D10DF1020202A901A8B7
:100BC00001F082FC05460DF1030001F0D7FD064659
:100BD000642003F06FF9364B1B78002B3FF44CAFC9
:100BE00003238DF80C3004238DF82D30019BCDF8B4
:100BF0000D3003A92948FFF756FB642003F05AF98A
:100C00009DF80230012B3FF43DAF022B3FF441AF82
:100C1000274B1B78002B7FF443AF029801994318B0
:100C2000B3F5C02F80D9C0F5C0212844FFF7DEFB03
:100C3000029B019A1344A3F5C0212846FFF7D6FB77
:100C400001210DF10300FFF7D1FB9DF803100129ED
:100C50003FF66EAF124B00221A70A5E701238DF804
:100C60000C3003A90D48FFF71EFB9BE700248DF80D
:100C70000C4003A90948FFF716FB0B4B1C6091E7DA
:100C8000400D0300F9080010CCDC0620F92B001001
:100C9000D0DB062003DD062058DA0620DC370620EC
:100CA00000DD0620FADC0620BC270020801A0600A2
:100CB0001FDD062007EE101ADFED137A37EE277AD4
:100CC000FCEEC77A17EE903A9BB2B3B182B007EE52
:100CD000903AF8EE677A37EE677ADFED0C7A27EE16
:100CE000277AFCEEC77ACDED017A9DF804201B042B
:100CF00043EA0223036002B0704700221B0443EA68
:100D000002230360704700BF0000003B00008043E7
:100D10000022026042608260C2604FF48032026052
:100D20004FF4F83242604FF4802282604FF4402248
:100D30008260704738B505460C46FFF7E9FF611C35
:100D40006B686FF3D01343EAC11343EA01336B605E
:100D5000284638BD38B505460C46FFF7D9FF221D99
:100D600005346B686FF3D01343EAC21343EA0433CC
:100D70006B60284638BD38B505460C46FFF7C8FFFE
:100D8000A21D0C346B686FF3D01343EAC21343EA1D
:100D900004336B60284638BD38B505460C46FFF76E
:100DA000B7FF621D06346B686FF3D01343EAC213BA
:100DB00043EA04336B60284638BD38B505460C4617
:100DC000FFF7A6FFE21D0F346B686FF3D01343EA01
:100DD000C21343EA04336B60284638BD38B5054674
:100DE0000C46FFF795FFE21C04346B686FF3D013D9
:100DF00043EAC21343EA04336B60284638BD38B572
:100E000005460C46FFF784FFA21C03346B686FF3A2
:100E1000D01343EAC21343EA04336B60284638BD5B
:100E200038B504460D46FFF773FF05F10802636805
:100E30006FF3D01343EAC51343EA023363602046DD
:100E400038BD38B504460D46FFF762FF05F11F02B5
:100E500063686FF3D01343EAC51141EA0231616060
:100E6000E36823F0604343F00053E36021F0C041A6
:100E70006160204638BD000038B51C4D2B68012448
:100E800004FA03F14FF0A042C2F80C149B0102F5E2
:100E900040521032D450164BC3F8041400210A20DB
:100EA00002F04CF913490A2002F0CCFA286808F045
:100EB000C5F9114B00221A60104B1A68104B1A60CA
:100EC000104D2868104B1968036804FA01F223EAF0
:100ED0000203036008F0D2FA0C4B1A680C49286828
:100EE00008F00EFB0B4B1C7038BD00BF18330620FA
:100EF00000300050790E0010008006403C3C062077
:100F0000483C0620D42806205CDB0620D02806209A
:100F1000E8AE0110FEDC062008B5102906D80368EB
:100F200023F4F03343EA4131016008BD034B044A26
:100F300040F22911034805F033F800BF046D011099
:100F4000E0AD0110246D011000B583B0014600230F
:100F500001931023019303F5FC03019301A8FFF70C
:100F6000DBFF019B23F00C0242F00802019223F404
:100F7000F85222F00C0242F0080201920C4A1A4088
:100F800042F0080201920B4A1A4042F00801019116
:100F900042F009020192084A1A4042F00902019205
:100FA0000648184040F00900019003B05DF804FBCA
:100FB000F3E0FFFEF3E07FFEF3E07FFCF1E07FFC77
:100FC00008B5022906D8036823F00C0343EA81011F
:100FD000016008BD034B044A40F23711034804F096
:100FE000DFFF00BF7C6D0110B8AD0110246D011052
:100FF00008B53F2906D8036823F4FC0343EA4141BE
:10100000016008BD034B044A40F21B11034804F081
:10101000C7FF00BFC06D0110A0AD0110246D01100D
:1010200000B58646012303FA01FC5FFA8CFC0CF143
:10103000FF3C5FFA8CFCFF20002306E043F4805263
:10104000094921F813200133DBB21F2B0AD803EA28
:101050000C027245F2D0044A4AF2A00122F81310A1
:101060001846F0E75DF804FB481F002010B51C4B44
:101070001B78012B05D0022B06D03BB94FF4C024BE
:1010800004E04FF4403401E04FF4C034052003F095
:101090003DF8144B1B689A0102F1A042126912F04C
:1010A000806F09D09B0103F1A0439868B0F1FF3F26
:1010B00013D0201A013810BD0B4B1B689A0102F1A6
:1010C000A042126912F0806F04D09B0103F1A0438B
:1010D0009868EBE74FF0FF30EDE74FF0FF30EAE7BD
:1010E0000CDD0620183306201C33062010B5002026
:1010F00001F0B5FE012001F0B2FE002405E0084B2E
:10110000185D01F0ACFE0134E4B2064B1B78A3423B
:10111000F5D80021044B187801F0F0FD10BD00BF98
:10112000203C06200DDD062010DD062010B51F4BEB
:1011300019688B011E4A1A44012313601D4A126864
:1011400094011B48035103FA01F04FF0A043C3F888
:1011500064048B0103F1A043DB6813F0806FF8D1C6
:10116000012393404FF0A041C1F86434930103F18F
:10117000A043DB6813F0806FF8D10F4AC2F8040473
:101180000C4C216801238B40C2F8043400210A2052
:1011900001F0D4FF09490A2002F054F9034B186802
:1011A00008F04CF8206808F049F810BD1833062004
:1011B000103000501C330620003000502101002068
:1011C00070B5FFF793FFFFF751FF1D4B1860FFF756
:1011D000ADFF1C4C236801251D6300210F2001F089
:1011E000ADFF19490F2002F02DF92068174B19683F
:1011F000036805FA01F223EA0203036008F03EF9EE
:10120000134B1A681349206808F07AF92068124EC7
:101210003168036805FA01F223EA02030360002241
:1012200008F0B4F93168206808F028F90B4B1A6807
:101230000B49206808F064F90A4B1D7070BD00BFAF
:10124000483C0620D4280620C11100105CDB062093
:10125000D028062030AE011060DB062094DB06208B
:1012600018170020FEDC062010B5FFF73FFFFFF740
:10127000FDFE274B1860FFF759FF264C236801221B
:101280001A6300210F2001F059FF23490F2002F0BB
:10129000D9F8236802221A6303F545534FF400720C
:1012A000DA631E4B1B78CBB91A4B18681C4B1968B4
:1012B000036801228A4023EA0203036008F0DEF893
:1012C000184B1B78DBB1184B1A681849114B18687A
:1012D00008F016F9164B01221A7010BD0024154BA8
:1012E0001C60154B1968022008F052FB4FF0E023F8
:1012F0001C61124B19680F2008F04AFBD4E70A4B17
:101300001A680F49034B186808F0FAF8E2E700BFC3
:10131000483C0620D4280620691200101DDD062056
:101320005CDB06200FDD0620D0280620C4AE0110AD
:10133000FEDC0620000008E000DB062004DB0620BF
:10134000A0AE011070B5FFF7D1FEFFF78FFE194B6D
:101350001860FFF7EBFE184D286801240463174B53
:101360001968036804FA01F223EA0203036008F033
:1013700085F8134B1A681349286808F0C1F8124D14
:101380002868124E3168036804FA01F223EA020366
:101390000360002208F0FAF83168286808F06EF857
:1013A0000B4B1A680B49286808F0AAF80A4B1C7006
:1013B00070BD00BF483C0620D42806205CDB062018
:1013C000D028062018AE011098DB062060DB06202E
:1013D00094DB062010170020FEDC062008B5074B22
:1013E0001B78022B00D008BD054B1B681B6B13F04C
:1013F000010FF8D0FFF7A6FFF5E700BF0EDD0620CE
:10140000D42806202DE9F04182B006460C46012082
:1014100007F01CFF274D2860FFF796FD019020F094
:101420003003019320F0F00343F0400301930DF1EA
:10143000040831464046FFF7C3FD1F4F3B681F4E6F
:10144000316803F12F4303F560031B0DDB00043308
:1014500019444046FFF7CCFD019B43F00103019383
:101460002B684FF0010808FA03F3154AC2F8043458
:1014700014490A2001F09CFE41460A2001F05EFE5C
:1014800000210A2002F09AF80F4B4FF488521A609C
:101490002B683A683168083102EB81029B0103F145
:1014A000A0431A60094A5A609C60019ADA6002B04F
:1014B000BDE8F08118330620D42806205CDB062026
:1014C00000200050790E001000800640D028002037
:1014D0002DE9F04F83B08346012800F09780022861
:1014E00000F0998018B94E4B4FF4C0221A600120C9
:1014F00007F0ACFE4B4C2060012007F0A7FE4A4DE0
:1015000028602068FFF720FD019020F03003019350
:1015100020F0F00040F0400001900DF10408594621
:101520004046FFF74DFD29684046FFF7F5FC3F4F69
:101530003B683F4E316803F12F4303F560031B0DF9
:10154000DB00043319444046FFF752FD019B43F092
:101550000103019323684FF0010808FA03F3DFF851
:10156000DCA0CAF804342868FFF7EEFC009020F0F5
:101570003003009320F0F00040F040000090594606
:101580006846FFF71DFD21686846FFF7C5FC3B680C
:10159000316803F12F4303F560031B0DDB000433B7
:1015A00019446846FFF724FD009B43EA08030093B3
:1015B0002B6808FA03F3CAF804341E490A2001F024
:1015C000F7FD41460A2001F0B9FD00210A2001F093
:1015D000F5FF2B683A683168083102EB8102104947
:1015E00009689B0103F1A0431A6013485860996091
:1015F000009D1D6123689B0103F1A0431A605860A0
:101600009960019ADA6003B0BDE8F08F044B4FF4A3
:1016100040321A606BE7024B4FF4C0321A6066E743
:1016200090DB0620183306201C330620D428062021
:101630005CDB062021010020D02800200020005083
:10164000144B1B7823BB10B5134B1A689201134B34
:1016500001219950124B1A689201104B9950EFF3E7
:10166000108472B60F4B1B78032B05D8DFE803F00C
:1016700002070A0DFFF7F8FD84F3108810BDFFF78D
:101680009FFDF9E7FFF75EFEF6E7FFF7F5FBF3E7EF
:10169000704700BFFEDC06201833062010300050D3
:1016A0001C3306200EDD06202DE9F04F2DED028BB8
:1016B0008BB081460F46144698469DF858A09DF879
:1016C0005CB09DF860609DF86850012D05D0022D3A
:1016D00006D03DB94FF4C02C04E04FF4403C01E08B
:1016E0004FF4C03C3B19634500F27881BF4B9945EC
:1016F00000F27A81BAF1180F00F2AC81BBF10F0F42
:1017000000F2AA81052E00F2A981002E00F0A88126
:1017100006EB0B03102B01DD002060E14FF4C0222B
:101720000021B34814F044FFB24B1F60B24B1C6061
:101730000023B24A1360B24A82F800A0B14A0121E4
:101740001170B14A157007E018F80320AF49895CA1
:10175000AF4AD1540133DBB25345F5D3AB4B13F849
:101760000B80AC4B83F80080052002F00DFE07EEE5
:10177000100AB8EE477A4FEA490907EE909AF8EE58
:10178000677A87EE278AA44FA44B3B60DFF8B492B8
:10179000A348C9F8000007F0DDFED9F8003003F1D6
:1017A0002F4303F56003C3F30753991DC9B200200B
:1017B00001F06CFA3B6803F12F4303F56003C3F3B8
:1017C0000753991DC9B2012001F060FA00270FE00C
:1017D000914B196801F12F4101F56001C1F30751E7
:1017E0000631C9B2894BD85D01F050FA0137FFB21A
:1017F000172FEDD9884F0121386807F04DFE0246BA
:10180000884B1860386802EB4203DB00D033034496
:1018100003F580534FF00041196019600432012331
:10182000934000F5005213607F4907F051FE7F4B53
:10183000186000270BE0002300930123734AD25D58
:10184000784909687448006807F019FF0137172FB5
:10185000F1DD0DF11809DFF8D4A1DAF800104846DF
:10186000FFF7CDFA099B23F4782343F480330993DF
:1018700018EE101A4846FFF71DFA089B23F0FA737A
:1018800023F4803343F0E87343F480330893079BD9
:1018900023F0F85343F080730793DFF87CB1DBF853
:1018A000000001270763624B4FF000021A704B469D
:1018B000DAF800205B49096807F030FFDFF884A1FF
:1018C0003946DAF8000007F0E7FD5A4B1860DAF8FD
:1018D000002000EB4003DB00D033134403F58053BA
:1018E0004FF0004119601960043007FA00F002F56A
:1018F0000052106031469DF86400FFF791FB4E499D
:10190000DAF8000007F0E4FD4C4A106000973B460F
:10191000002248490968DAF8000007F0B0FE00200C
:1019200000903346424643490968DAF8000007F060
:10193000A6FE02AE414A11683046FFF782FA96E8E9
:101940000F0089E80F0023F478234FEAC83808F421
:10195000782843EA0803099323F47872099223F064
:10196000E05222F4787242F080620992344A1A40BE
:1019700042F0806209924FF4803306932846FFF7C5
:10198000A7FDDBF80050274908682B6887403B43D8
:101990002B60013C6A6800F1100101238B401A4260
:1019A000F8D1043045F82040224C264D06AB234A9E
:1019B00012682168286807F0B1FE296822680B6860
:1019C000012000FA02F213430B6000231E4A137039
:1019D0001E4A13701E4B02221A7000E000200BB04A
:1019E000BDEC028BBDE8F08F0020F8E700E1F505C3
:1019F000D0280020403C06203C3C0620383C0620F5
:101A00000DDD06200BDD06200CDD0620FCAD0110EF
:101A1000203C062011DD0620D4280620000030508E
:101A2000000020505CDB062018AE0110D0280620F4
:101A30001DDD062060DB06201017002094DB062049
:101A40001F80FFE398DB0620FEDC0620FFDC06207B
:101A50000EDD06200020C2E70020C0E70020BEE720
:101A60000020BCE72DE9F04F2DED028B8DB08046B4
:101A70000F46144699469DF860A09DF864B09DF805
:101A800068609DF87050012D05D0022D06D03DB93B
:101A90004FF4C02C04E04FF4403C01E04FF4C03C54
:101AA0003B19634500F2AF814F4B984500F2B1817D
:101AB000BAF1180F00F2AF81BBF10F0F00F2AD8148
:101AC000102E00F2AC81002E00F0AB8106EB0B0370
:101AD000102B01DD002097E14FF4C0220021434884
:101AE00014F066FD424B1F60424B1C600023424ACB
:101AF0001360424A82F800A0414A01211170414A14
:101B0000157007E019F803203F49895C3F4AD1541A
:101B10000133DBB25345F5D33B4B13F80B301A4678
:101B200003933B4B1A70052002F02EFC07EE100ABF
:101B3000B8EE477A4FEA480807EE908AF8EE677ADF
:101B400087EE278A334F3448386007F003FD3B683F
:101B500003F12F4303F56003C3F30753991DC9B283
:101B6000002001F093F83B6803F12F4303F5600375
:101B7000C3F30753991DC9B2012001F087F800276C
:101B80000FE0244B196801F12F4101F56001C1F309
:101B900007510631C9B21C4BD85D01F077F8013707
:101BA000FFB2172FEDD91B4F0121386807F074FCE5
:101BB00002461A4B1860386802EB4203DB00D03350
:101BC000034403F580534FF000411960196004325B
:101BD0000123934000F500521360114907F078FC8F
:101BE000104B186000272BE000E1F505D0280020FD
:101BF000403C06203C3C0620383C06200DDD0620FB
:101C00000BDD06200CDD0620FCAD0110203C06207B
:101C100011DD0620D4280620000020505CDB0620C1
:101C200030AE0110D02806200023009301237E4A05
:101C3000D25D7E4909687E48006807F020FD0137C3
:101C4000172FF1DD0DF12009DFF80CA2DAF80010F2
:101C50004846FFF7C3F80B9B23F4782343F4803303
:101C60000B9318EE101A4846FFF724F80A9B23F04E
:101C7000FA7323F4803343F0E87343F480330A9318
:101C8000099B23F0F85343F080730993DFF8A08198
:101C9000D8F8003001271F6303F505534FF4807215
:101CA0001A6364490F2001F083FA39460F2001F0CE
:101CB00045FA4FF0000B604B83F800B04B46DAF862
:101CC00000205A490968D8F8000007F027FD394676
:101CD000D8F8000007F0E0FB0346DFF86CA1CAF873
:101CE0000000D8F8000003EB4302D200D0320244D7
:101CF00002F580524FF0004111601160043307FA81
:101D000003F300F50052136046F4C04343F0400370
:101D10004A4A53814A4907F0DBFB4A4B1860009757
:101D20003B465A46DAF80010D8F8000007F0A7FC46
:101D3000CDF800B03346039ADAF80010D8F8000066
:101D400007F09DFC3F4BD3F800B004AE5946304637
:101D5000FFF766F896E80F0089E80F0023F4782370
:101D6000039AD20302F4782213430B9323F478727C
:101D70000B9223F0E05323F4787343F080630B93CA
:101D80004FF4803308930A9B23F0FA7323F48033D3
:101D90000A934B465A46DAF80010D8F8000007F0CC
:101DA000BDFC2846FFF794FBD8F800201F490D68BA
:101DB0001368AF403B431360013C516805F11000CC
:101DC000012383401942F8D1043542F825401E4BC7
:101DD0001C6813680121A1400B431360516804F192
:101DE0001000012383401942F8D10434BDF86C304F
:101DF00042F824300023154A1370154A137001204D
:101E0000144B187000E000200DB0BDEC028BBDE853
:101E1000F08F0020F8E70020F6E70020F4E700202C
:101E2000F2E70020F0E700BFFCAD01105CDB06200C
:101E3000D4280620C11100101DDD06202017002027
:101E40001817002094DB062060DB0620FEDC06204D
:101E5000FFDC06200EDD0620D02806202DE9F04705
:101E60002DED028B86B081460D4617461C469DF827
:101E700040A09DF844809DF84860012E05D0022EB8
:101E800006D03EB94FF4C02C04E04FF4403C01E0D2
:101E90004FF4C03CAC45C0F0F1807D4B994500F259
:101EA000F380631EDBB2172B00F2F080BAF1180F3B
:101EB00001D90020E3E04FF4C0220021754814F05E
:101EC00077FB0021744B1960744B1D60744B1960D3
:101ED000744B1C70744B83F80080744B1970744BF6
:101EE0001E7006E07B5C734AD25C734B5A5401311E
:101EF000C9B2A142F6D36F4B13F80A706F4B1F7033
:101F0000052002F041FA07EE100AB8EE477A07EE14
:101F1000909AF8EE677A87EE278A694C69482060C4
:101F200007F018FB0121206807F0B6FA0246664B5D
:101F30001860206802EB4203DB00D033034403F552
:101F400080534FF00041196019600432012393401F
:101F500000F5005213605D4907F0BAFA5C4B186057
:101F600000240BE0002300930123524A125D5649DE
:101F700009685348006807F082FB0134172CF1DD33
:101F800000240FE04E4B1B6803F12F4303F5600361
:101F9000C3F30753991DC9B2464B185D00F076FE96
:101FA0000134E4B2172CEDD9454C002300930123F2
:101FB0003A4645490968206807F061FB236803F148
:101FC0002F4303F56003C3F30753991DC9B2384685
:101FD00000F05CFEB8F1000F4BD00DF10808DFF8FF
:101FE000F090D9F800104046FEF7A4FE059B23F4BC
:101FF000782343F48033059318EE101A4046FEF719
:1020000059FE049B23F0FA7323F4803343F4A02396
:102010000493039B23F0F8533F0607F0F8573B4324
:102020000393DFF89CA0DAF80000274F39680368B3
:10203000012404FA01F223EA020303604346D9F8BB
:10204000002007F06BFB29463046FFF7DBF9DAF892
:1020500000103A680B6804FA02F213430B60002385
:102060001C4A13701C4A13701C4B03221A70204622
:1020700005E00121384600F041FEAEE7002006B041
:10208000BDEC028BBDE8F0870020F8E70020F6E702
:1020900000C2EB0BD0280020403C06203C3C062030
:1020A000383C06200DDD06200FDD06200BDD062066
:1020B0000CDD0620FCAD0110203C062010DD0620C2
:1020C000D4280620000020505CDB0620E8AE01107A
:1020D000D0280620FEDC0620FFDC06200EDD0620D0
:1020E0002DE9F04F2DED028B89B003900E4614467A
:1020F0001D469DF850B09DF858809DF85C909DF865
:1021000060A09DF86470012F05D0022F06D03FB962
:102110004FF4C02C04E04FF4403C01E04FF4C03CCD
:1021200005FB04433344634500F2AD81A84B039A99
:102130009A4200F2AE8108F1FF33DBB2172B00F2B6
:10214000AA81B9F1180F01D900209DE14FF4C022F6
:102150000021A04814F02CFA9F4B1E609F4B1C607E
:102160009F4B1D609F4B83F800809F4B83F800A01E
:1021700000239E4A13709E4A1770159806E0C25CB1
:102180009C49895C9C4AD1540133DBB24345F6D368
:10219000984B13F80960994B1E70052002F0F4F873
:1021A00007EE100AB8EE477A039B5B0007EE903A01
:1021B000F8EE677A87EE278ADFF860829048C8F8E1
:1021C000000007F0C7F90121D8F8000007F064F912
:1021D00002468C4B1860D8F8000002EB4203DB008B
:1021E000D033034403F580534FF000411960196068
:1021F00004320123934000F500521360BAF1000F3E
:1022000010D0BBF1000F07D07F4907F061F97F4B79
:1022100018604FF0000822E07D4907F059F97B4B28
:102220001860F6E7BBF1000F05D07A4907F050F9C6
:10223000764B1860EDE7784907F04AF9734B186060
:10224000E7E70023009301236A4A12F808206D494A
:1022500009687248006807F012FA08F10108B8F13D
:10226000170FEEDD4FF0000812E06C4B196801F11A
:102270002F4101F56001C1F307510631C9B25D4B31
:1022800013F8080000F002FD08F101085FFA88F871
:10229000B8F1170FE9D9DFF88481002300930123F7
:1022A000324658490968D8F8000007F0E8F9D8F82C
:1022B000003003F12F4303F56003C3F30753991D67
:1022C000C9B2304600F0E2FCBBF1000F70D0BAF1A9
:1022D000000F67D04D4B196804A8FEF76EFD079BF1
:1022E00023F4782343F48033079318EE101A04A8DC
:1022F000FEF7E0FC069B23F0FA7323F4803343F4EB
:10230000A0230693059B23F0F853360606F0F856F3
:1023100033430593414B1B6801261E6303F50553A8
:102320004FF480721A633E490F2000F041FF31469E
:102330000F2000F003FF15B1BBF1000F7AD1394B2C
:1023400000221A702F4EDFF8D48004AB2F4A126897
:102350003168D8F8000007F0E1F93846FFF7B8F81F
:10236000D8F80020366813680121B1400B43136090
:10237000516806F11000012383401942F8D1311D44
:1023800042F82150013C51681942FCD1043642F810
:1023900026400023244A1370244A1370244A1370E1
:1023A000012071E0194B196804A8FEF7F5FC96E7C7
:1023B000BAF1000F05D0154B196804A8FEF7DBFC35
:1023C0008DE7124B196804A8FEF7C4FC87E700BF2D
:1023D00000E1F505D0280020403C06203C3C0620CA
:1023E000383C06200DDD06200FDD06200BDD062023
:1023F0000CDD0620FCAD0110203C062010DD06207F
:10240000000020505CDB06204CAE0110D0280620D6
:10241000A0AE011074AE0110C4AE0110D428062085
:10242000691200101DDD0620FEDC0620FFDC062000
:102430000EDD0620194B1B6802261E6303F50553AB
:102440004FF40072DA630021102001F0B7F8144B4A
:102450004FF480321A601349304607F077FA124B76
:102460001860124B00221A7011490F2007F06EFA03
:10247000104B18604FF0E0236FF07F425A619A6171
:1024800007221A615BE7002009B0BDEC028BBDE8B2
:10249000F08F0020F8E70020F6E700BFD4280620E0
:1024A000000008E07D01002000DB062019DD062089
:1024B0006D01002004DB0620024B187880F001003B
:1024C000704700BFFEDC06202DE9F04F83B08E463A
:1024D0009D4B1B689D490D6803FB05559C4B1B6874
:1024E0001D449C4B1B7833BB9B4B93F80080B8F189
:1024F000010F2CD0B8F1020F2CD0B8F1000F01D190
:102500004FF4C027691E954B1B68994225D9791B4A
:102510000B44013392490B60914B1C68B8F1010FD9
:102520006CD0B8F1020F1DD0B8F1000F00F0BA80E6
:10253000884B01211970884B1B7813700560884BFC
:102540001B68CEF80030874803B0BDE8F08F4FF429
:102550004037D7E74FF4C037D4E75B1B01338049DE
:102560000B60D9E7804B93F800B0BBF1030F08D0A4
:1025700000214FF00008CDF800B0BA46A446019003
:102580002DE07A4B1B782BB9794B1B78023B01214C
:102590009940EEE70021ECE7744B1B784BBB4C40B5
:1025A00027E0744B13F800B0ABF1020B5FFA8BFB22
:1025B000012303FA0BF3234023FA0BF383401E435A
:1025C00001306D4B1B788342EBDC0CF1010C47F8BA
:1025D0000960E24501D84FF0000C08F10108A84558
:1025E0000AD24FEA8C095F4F57F82C40009B032B0F
:1025F000D2D000200646E4E7019899E75A4B93F8B9
:1026000000B0BBF1030F07D000264FF00008CDF853
:1026100000B00197314637E0544B1B7833B9544B27
:102620001978023901238B409EB2EEE70026ECE7D1
:102630004E4B1B789BBB81EA0C0C30E0DFF834A1D9
:102640001AF806B0ABF1020B5FFA8BFB4FF0010AF0
:102650000AFA0BFA0CEA0A0A4AFA0BFA0AFA06FA1A
:1026600043EA0A0A1FFA8AF30136DFF80CA19AF846
:1026700000A0B245E2DC013427F80930019BA342F7
:1026800000D8002408F10108A845BFF451AF4FEA73
:102690004409344F37F814C0009B032BC8D00026E0
:1026A0003346E2E7304B93F800B0BBF1030F08D09C
:1026B000C4464FF00009CDF80080CDF804B066465E
:1026C00032E02A4B1B783BB9294B19780239012398
:1026D0008B405FFA83FCECE7C446EAE7234B1B78A8
:1026E0006BBB86EA08082AE0224911F80CB0ABF16E
:1026F000020B5FFA8BFB012101FA0BF108EA0101E1
:1027000041FA0BF101FA0CF11943CBB20CF1010CB7
:10271000194909786145E7DC01348AF80030A7429D
:1027200000D8002409F10109A945BFF401AF0D4B00
:1027300004EB030A13F80480019B032BCED0009B0B
:102740004FF0000CE4E700BF383C06203C3C06207C
:10275000403C0620FFDC06200CDD0620483C06201D
:10276000443C0620D02800200EDD06200FDD062088
:1027700010DD0620203C06200DDD0620024B1B78D4
:1027800003700248704700BF1DDD06205C3C062038
:1027900010B504461F2100F079FA002211462046A8
:1027A00000F090FA0021204600F03AFB10BD000036
:1027B0000ABB30B5A3B008461446F9B1144B1B68E8
:1027C000FBB9144B1B78042B1ED1114D2960124903
:1027D00009F0B6F91149286809F0C0F90D4B052236
:1027E0001A7001238DF8043001A90D48FDF75BFD37
:1027F000204623B030BD6FF0050070476FF0050034
:10280000F7E76FF00500F4E76FF00500F1E700BFB0
:10281000EC28062002DD06206D2900104D2900104D
:10282000CCDC0620F0B5A3B004278DF80470082393
:102830008DF8853007F04CF8EFF3108472B6224B18
:102840009E6FA3F58033D3F8EC501D20FFF7A0FF57
:102850001E4B1B6883F4405303F470431C4A1360FF
:10286000642001F027FB1B4B1F60184B1B6813F4FF
:10287000807FFAD0154B5B689BB207EE903AF8EE7A
:10288000E77A9FED157A67EE877AB0EE087A67EE01
:10289000877A17EE903ACDF805301D2000F0D4FA73
:1028A000094B9E67A3F58033C3F8EC5084F310887E
:1028B00002200FF0FDFE8DF8090001A90748FDF781
:1028C000F2FC23B0F0BD00BF0080034000000A40CE
:1028D00000100A4000200A403333533ACCDC062073
:1028E00008B576220249034813F014FF08BD00BF63
:1028F00000F01F1054DC062008B5044B186820B106
:1029000009F02EFC014B00221A6008BD54DB0620A2
:102910000C4B186888B110B5002109F011F9094C69
:102920000021206809F01AF9206809F019FC002339
:102930002360054B04221A7010BD034B04221A7049
:10294000704700BFEC28062002DD062000B5A3B0CA
:10295000FFF7DEFF02238DF8043001A90248FDF7DE
:10296000A2FC23B05DF804FBCCDC0620F0B5A3B0DC
:102970003AB1174615890DB1002628E0104608F037
:1029800035FBFFF7C5FF02238DF8043001A9144879
:10299000FDF789FC6FF00C001FE02C46802D28BF4E
:1029A0008024E4B203238DF804308DF88540A4B26E
:1029B000334622460DF10501384608F01BFD01A9FA
:1029C0000748FDF770FC2644B6B22D1BADB2002DB2
:1029D000E3D1384608F00AFB002023B0F0BD00BF69
:1029E000CCDC062030B5A3B005460C4604E00FF061
:1029F00077FE012001F05EFA0C4B186818B1B0F8B0
:102A00006430A342F3D30123224629460BF01CFD78
:102A100008B923B030BDFFF77BFF02238DF80430E7
:102A200001A90348FDF73FFCF3E700BFEC280620AF
:102A3000CCDC062010B5002009F0F2FA0B4B186030
:102A40000B4BB3F8722092B20A4908F027FF08B185
:102A5000002010BD054C0121206808F0D9FF20603E
:102A60000028F5D0044909F087F8F2E754DB062086
:102A700054DC0620C4260020B127001010B50C49F4
:102A800042F210730B4AA1F121000FF0BDFE08B114
:102A9000002010BD084C214608480FF039FC2146A3
:102AA000074B186808F056F80120064B1870F0E73D
:102AB00075DC062004004000C4260020B5DC06209A
:102AC000DCDA0620F9DC062008B5064B1B7803B9D2
:102AD00008BD0021044812F0D7FE024B00221A70F4
:102AE000F6E700BFF9DC06202829062008B50378A0
:102AF000042B08D8DFE803F003080D171D0001219F
:102B000000200FF0CBFD08BD002108460FF0C6FDE8
:102B1000F9E7FFF7FDFEFFF7EFFEFFF7D5FF064BE6
:102B200000221A70EFE790F821100130FFF75AFFEA
:102B3000E9E7FFF777FEE6E702DD062008B52B4B55
:102B40001B78022B42D0032B48D0002B39D1284BC5
:102B50001B782BB1264B01221A700022134607E086
:102B6000FFF7BEFEF6E72349895C0B449BB20132B6
:102B7000202AF8DD002206E01E49114491F82110B8
:102B80000B449BB201323F2AF6DD002206E01949D0
:102B9000114491F861100B449BB201320F2AF6DD0B
:102BA0001449B1F8722013FA82F39BB203F60F7343
:102BB0009BB2B1F8742092B29A4203D00B4B01221F
:102BC0001A7008BD094B02221A70FAE7FFF756FF88
:102BD0000028F6D0054B03221A70F2E7FFF72AFF10
:102BE0000028EED0014B04221A70EAE702DD06202D
:102BF000FBDC062054DC062000B5A3B0082322220B
:102C00000F491048FDF744FB07F064F80FF04CFE45
:102C10000FF028FD00238DF8043001A90A48FDF7C4
:102C200042FB082209490748FDF741FBFFF786FFF1
:102C3000074B1B78022BF4D90FF052FDF1E700BFD0
:102C4000ED2A0010DC370620CCDC0620B837062041
:102C500002DD062010B400F0070C4FEA8C0CC0080F
:102C600001FA0CF100F18C0C074C44F82C1003EB2A
:102C700080032AB103F5005319605DF8044B7047D7
:102C800003F540531960F8E7008002400C4B03EB5A
:102C9000800253F8203083F0400303F0C00302F5B4
:102CA000805CCCF80030C00000F1804000F520309E
:102CB000416002F540524FF480731360704700BFCB
:102CC0000480034010B40C4C04EB800C79B1082351
:102CD0007AB10422134354F82020534003F00C032C
:102CE0000CF5805CCCF800305DF8044B7047002395
:102CF000EEE70022EEE700BF04800340C00000F1D1
:102D00008040043000F520331B6883EA014303F45C
:102D1000403300F5243003607047000039B1084BA0
:102D200003EB800303F5005302221A607047044B43
:102D300003EB800303F5405302221A60704700BF83
:102D40000480034070B505460C46164652B94FF054
:102D500050431B688BB10A4B324621462846FFF789
:102D600079FF70BD152000F013FA0028EFD1054B54
:102D7000054ABD21054803F013F9054BECE700BFF8
:102D800090820240D46D01104CAF0110006E011012
:102D90004882024010B54FF050431C68094B53F86D
:102DA0002430034207D10343064840F8243015205D
:102DB00000F02EFA10BD044B044ADB21044803F056
:102DC000EFF800BF30DB0620486E011018AF01108D
:102DD000006E011010B54FF050431A680C4B53F8B9
:102DE000223003420ED00446152000F02BFB4FF09A
:102DF00050431968064A52F8213023EA040342F886
:102E0000213010BD034B044AEF21044803F0C8F8F9
:102E100030DB0620746E0110F4AE0110006E01105C
:102E200039B1084B03EB800303F5005340221A60CD
:102E30007047044B03EB800303F5405340221A60B4
:102E4000704700BF0480034008B54FF0000242EC19
:102E5000440042EC40000521FFF718FF08BD08B50B
:102E60001F21FFF713FF08BD0FB400B583B0049C0A
:102E7000074803F027FA3CB105A90191204603F069
:102E800031FA044803F01EFA012003F069F800BF8C
:102E9000A06E0110F86C0110EFF3108072B6064BB3
:102EA000D3E8CF1F01220029FAD1C3E8412F00291E
:102EB000F6D1BFF35F8F7047AB2200200023034A97
:102EC000C2E88F3F80F31088704700BFAB2200201C
:102ED00070B505460C461646FFF7DEFFE208A95C12
:102EE00004F0070C012303FA0CF3194205D1DBB2FD
:102EF0000B43AB54FFF7E2FF70BD21463046FFF7AE
:102F0000B3FFF8B506460D4614461F46FFF7C4FF4B
:102F100000E00134BC420ED84FEAD40C16F80C1075
:102F200004F0070301229A401142F2D1D2B20A43BF
:102F300006F80C2001E04FF0FF34FFF7BFFF002C34
:102F400001DB2046F8BD002DFBD00698FFF78CFF73
:102F500038B505460C46FFF79FFFE1086A5C04F0B0
:102F600007040123A3401A4205D022EA03026A544F
:102F7000FFF7A4FF38BD034B034A3321034803F096
:102F80000FF800BFB06E011064AF0110D06E0110D9
:102F9000054A1078431CDBB21370172B02D9134675
:102FA00010221A70704700BF3217002000B583B09E
:102FB0000146054B00931F2318220448FFF7A1FF89
:102FC00003B05DF804FB00BF186F0110E028062075
:102FD0004FF0E022936843F0005393607047000085
:102FE000002305E0044A1A440021C2E88F1F013380
:102FF0001F2BF7D9704700BFA0220020064B9B680B
:10300000103043F82010BFF35F8F00230349C1E85D
:103010008F3F82F31088704700ED00E0A922002066
:103020000048704700E400E008B5FFF7F9FF00230F
:1030300004E04FF0803240F8042B01330C2BF8D918
:1030400062B608BD08B50388DA0A1C2A06D15B05FA
:103050000BD45B15023300EB430008BD064B074A57
:103060004FF48E71064802F09BFF03F5FF1303F542
:10307000FF531F33EDE700BF346F0110C0AF0110E5
:103080004C6F011008B5091A01F2FC7240F6FE738C
:103090009A4208D8081F11F0010F04D1C0F34A006A
:1030A00040F4604008BD034B034A4FF48771034866
:1030B00002F076FF946F0110B4AF01104C6F011055
:1030C00008B5091A04394B08090B0AD1C1F30A01E2
:1030D00041F4704101806FEA43536FEA53534380D8
:1030E00008BD034B034A4FF48B71034802F058FFAD
:1030F000C46F011090AF01104C6F01104209064BD4
:1031000053F8223000F01F000122824003EA02003F
:10311000003818BF0120704700E100E03AB1064BCB
:1031200000F1600243F8221043F82010704720306D
:10313000014B43F82010704700E100E008B50A4653
:1031400000F01F03012199404009FFF7E7FF08BD88
:1031500000F01F024009012393404030014A42F829
:103160002030704700E100E0024B9B68103053F8BC
:103170002000704700ED00E008B5FFF7F5FF034BB6
:10318000C01A2F288CBF0020012008BD3417002052
:1031900008B5FFF7E9FF30B1044A904201D00120A1
:1031A00008BD0020FCE70020FAE700BF1101001075
:1031B00070B505460C46EFF3108672B60F4BD3E898
:1031C000CF1F01220029FAD1C3E8412F0029F6D1EF
:1031D000BFF35F8FFFF7C8FF094B984201D0A042B1
:1031E00005D1324621462846FFF708FF70BD054B42
:1031F000054AED21054802F0D3FE00BFA9220020B8
:1032000011010010D46F0110E8AF01104C6F0110D4
:103210002DE9F04F87B000911546EFF3108A72B692
:103220007C4BD3E8CF1F01220029FAD1C3E8412FFC
:103230000029F6D1BFF35F8F774B93F90040002C44
:1032400044DB804604EB4407744B03EB870797F994
:103250000610714A1170724A926800F1100152F81A
:103260002190A9EB03022F2A3ED96E4B994534D108
:103270004FF42143ADF80C304FEA440904EB44000D
:10328000664E06EB800068490230FFF7FBFEADF8A2
:103290000E004BF60153ADF81030FF238DF81230BD
:1032A0008DF81350009B0593A14406EB890306AAF1
:1032B00012E9070083E8070047F001095246494632
:1032C0004046FFF79BFE07B0BDE8F08F574B584ACA
:1032D0004FF4BE71574802F063FE574B544A40F218
:1032E0008311544802F05CFE29F0010BABEB0303A1
:1032F000524AA2FB0312D20802EB4202B3EB820F46
:103300000FD15B460026DA79AA4212D993F906203A
:10331000002A0DDB02EB42021E46404B03EB820308
:10332000F1E7474B424A4FF4CA71424802F038FE77
:103330001E46A6B344F60103ADF80C304FF48F439C
:10334000ADF80E3096F906B0BBF1000F1ADA4BF665
:103350000150ADF810008DF812B08DF81350009B9D
:1033600005933946301DFFF78DFEB080B47104EB34
:1033700044042A4B03EB840306AA12E9070083E8FE
:1033800007009BE7301DFFF75DFE014604EB44029A
:10339000224B03EB8203181DFFF774FED9E74FF4AD
:1033A0002143ADF80C306300019304EB4406DFF8D1
:1033B0006C9009EB86061C49B01CFFF763FEADF864
:1033C0000E005946301DFFF75DFEADF810004AF6BD
:1033D000AA235A464946521A524153431B0D8DF8AF
:1033E00012308DF81350009A0592019B234409EB8B
:1033F000830906AB13E9070089E8070044F60103D7
:10340000ABF800304FF48F43ABF8023047F00109BE
:1034100054E700BFA922002009DD06203417002050
:1034200000ED00E011010010641700200C70011085
:10343000D0AF01104C6F011034700110ABAAAAAAD2
:103440005C7001102DE9F04706460D46EFF3108839
:1034500072B6504BD3E8CF1F01220029FAD1C3E83E
:10346000412F0029F6D1BFF35F8F4B4B9B6800F1D2
:10347000100A53F82A70494B9F4207D0AF4200F020
:1034800087803C46464BFB1A2F2B06D942463946CD
:103490003046FFF7B3FDBDE8F087FFF72FFE81460A
:1034A00000213046FFF74AFEBFF35F8FEFF3058040
:1034B000C0B208B1824510D124F001040021A268F5
:1034C000954212D094F90630002B0DDB03EB430339
:1034D0002146334C04EB8304F1E7324B324A40F28D
:1034E0000221324802F05CFD2146954249D194F90F
:1034F0000650002D2BDB05EB4502294B03EB820325
:103500009A68A260DA79E27193F90630A371002B10
:1035100010DA4BF60150A08005EB4502204B03EB7F
:103520008203234A11789971157049463046FFF796
:1035300005FEABE705EB4503194800EB83000430BB
:10354000FFF780FD0146201DFFF79CFDE3E798B9DA
:1035500081B1FF238B714BF601538B80144A137892
:10356000A3714AF6AA230E49641A644163431B0DF2
:103570001370DAE7094FF1E70E49201DFFF7A0FDB0
:10358000D3E70D4B084A4FF41171084802F008FDCB
:10359000024F7BE7A922002000ED00E0110100109E
:1035A00034170020E0700110A0AF01104C6F011023
:1035B00009DD06206E1700201471011038B504468D
:1035C0000D46FFF72DFD4FEA940C50F82C3004F017
:1035D0000304E400FF22A24023EA0203A5402B4398
:1035E00040F82C3038BD000038B540F00104324BB3
:1035F000E31A2F2B31D8EFF30581C9B2002933D05C
:10360000EFF3108E72B62D4BD3E8CF5F0122002D61
:10361000FAD1C3E8452F002DF6D1BFF35F8F4AF6EC
:10362000AA230246244D521B524153431B0D4FFA0D
:1036300083FC234B9B6853F82130A3421BD000230B
:10364000032B32D803EB43011B4A02EB810292F9B0
:103650000620624520D00133F2E71A4B1A4A40F2A5
:103660007F211A4802F09CFC194B174A40F2822134
:10367000164802F095FC124B9B68164A43F821202D
:10368000154B1A78827183F800C000230B4AC2E8F8
:103690008F3F8EF3108838BD074A02EB8101FF246B
:1036A0008C714BF601538B80EAE70C4B064A40F2D3
:1036B0009321064802F074FC34170020A922002050
:1036C00000ED00E01C71011074AF01104C6F01108F
:1036D000447101101101001009DD06205071011024
:1036E00000B583B00146074B00930523002206482E
:1036F000FFF707FC002801DBC0F1330003B05DF8E1
:1037000004FB00BF5871011020DD062070B504468F
:103710000E461546FFF73CFC0146204600F006F831
:10372000A680E580BFF35F8F70BD0000014B0B44A6
:1037300003607047A022002010B50446FFF728FC64
:1037400001462046FFF7F2FFFF232371BFF35F8F8F
:1037500010BD10B50446FFF71BFC01462046FFF7DD
:10376000E5FFFF23237100236371BFF35F8F10BD5B
:1037700010B50D4C09E00D4B0D4A1A210D4802F011
:103780000FFC2046FFF7D8FF08340B4B9C4209D2B0
:103790002368002BF5D0012BEDD12046FFF7D9FF90
:1037A0000834F2E710BD00BF881D002074710110BD
:1037B00028B0011094710110981D0020024B0B4499
:1037C0000360BFF35F8F7047A022002010B504464E
:1037D0000120FFF7EBFB01462046FFF7EFFF10BD8E
:1037E0000246EFF30583DBB2103B990804D003488F
:1037F00003F00303136070470148F9E700800B40B2
:1038000000000B4010B4846AA2EB040C0B1D50F8AE
:1038100023301B1B9C4504D3046A01238B401C42AC
:1038200002D1043140F821205DF8044B704741EA91
:10383000004070470D4B1A68EFF3108172B6D2E862
:10384000CFCF0120BCF1000FF9D1C2E84C0FBCF181
:10385000000FF4D1BFF35F8F1A680023C2E88F3FD7
:1038600081F3108840BF00200021704758DB0620FC
:103870002DE9F04F85B003A8FFF7B2FF954B9842B2
:1038800014BF00230123039901EB8303924A52F8EA
:1038900023402378994206D1054601228A4000F54B
:1038A00041535A602CE18D4B8D4A92218D4802F094
:1038B00077FBD4F8149006EB46074FEAC70A09EBEA
:1038C000C707D7F808B0D7F80C80284600F0B4FB3B
:1038D000B0EB0B0061EB0803002BC0F21A81B8F1CA
:1038E000000F64DB3B691A4600937F4B9A4230D04D
:1038F000798889B2B4F90800FFF799FF7969009BCC
:103900009847009001910099019A51EA02034ED024
:103910001346002A29DABBEB010268EB0308BA6000
:10392000C7F80C8039F90A70002FC0F2F280D4F881
:1039300014E007EB47030EEBC3039968DB68511AE9
:1039400068EB0303002BC0F2E480A4462CF8087F48
:1039500017E07A69136900921046984738B3009AC5
:103960001368009353680193CDE7284600F064FB89
:10397000009B1A18019B43EB0108D0E79C463EF9D7
:103980000B70002F0EDBBCF9003003EB43034FEA52
:10399000C30B0EEBC3039868D968101A68EB0101DA
:1039A0000029EBDA29F80A70ACF80060B1E039F9C7
:1039B0000A3023812369EFF3108272B6D3E8CF0F68
:1039C00001210028FAD1C3E8401F0028F6D1BFF337
:1039D0005F8FB4F9023029F80A306680216900232C
:1039E000C1E88F3F82F3108893E02369EFF31082E0
:1039F00072B6D3E8CF0F01210028FAD1C3E8401FE7
:103A00000028F6D1BFF35F8FB4F804800FFA88F86E
:103A10004FF6FF73A38021690023C1E88F3F82F333
:103A200010881AE01F4630F90A60002E0FDBB7F944
:103A3000003003EB43034FEAC30A00EBC30399686A
:103A4000DA68BCEB01016EEB0202002AEADAA7F8A1
:103A5000008030F9098020F80960B8F1000F5DDBC3
:103A6000606908EB48034FEAC30900EBC303D3F8CE
:103A700008C0D3F80CE004F10807B4F90860D4E7F3
:103A80000023A37104F1080CB4F9083010E04FF0E2
:103A9000FF384FF0FF39C0E90289B4F908009842B5
:103AA00005D0ACF80020B4F90800C85323811346B0
:103AB000B3F1FF3F35D0616903EB4302D70001EB5F
:103AC000C20031F93220468816F4004FDFD1844617
:103AD000EDE700BF00800B4010DB062028720110CC
:103AE00054B001105472011071380010284600F0D3
:103AF000A3FA3F1A66EB0106012F76F1000628DAD9
:103B0000039A01239340EB63B4F90860002EBFF6DB
:103B1000D0AEA38813F4004F3FF467AFA379002B16
:103B2000AED1B4F90830002B13DB626903EB430319
:103B300002EBC3039F68DE68B6F1FF3F08BFB7F131
:103B4000FF3FD3D03A46334603992846FFF75AFE43
:103B5000CCE740BF05B0BDE8F08F00BFF8B5044624
:103B60000D4611460A4B984210D000262E440127DC
:103B700007FA05F525623046FFF71AFB394630464D
:103B8000FFF7DCFA04F501542560F8BD0426EDE7E3
:103B900000800B40F8B504460E4617461D46C1602E
:103BA000FFF7F6F9164B034423612770ABB263812C
:103BB0004FF05042127862704FF6FF722281A2805D
:103BC000013B63804FF0000C08E00CF1FF300CEB80
:103BD0004C0E636923F83E000CF1010CAC45F4D3A4
:103BE000084B9E4214BF0023012307EB8303064AC0
:103BF00042F82340054A39463046FFF7AFFFF8BD8B
:103C0000A022002000800B4010DB0620713800103D
:103C100008B5054B1B690BB1034808BD034B044AAB
:103C20006521044802F0BCF97C1700209472011051
:103C30003CB0011054720110F8B504469E4600696C
:103C4000EFF3108172B6D0E8CF6F0125002EFAD1C4
:103C5000C0E8465F002EF6D1BFF35F8FB4F9025083
:103C6000666905EB4500C70006EBC000002D03DBCD
:103C700036F907C0A4F802C04FF0000C2369C3E86E
:103C80008FCF81F31088654533DB06990161079971
:103C900041618260C0F80CE0418889B20131C1F312
:103CA0000E0101B9012141802846FFF7C0FD2369BB
:103CB000EFF3108272B6D3E8CFCF0121BCF1000F31
:103CC000F9D1C3E84C1FBCF1000FF4D1BFF35F8FF3
:103CD000A388F353A58021690023C1E88F3F82F3B5
:103CE0001088E368217801228A4003F501535A6065
:103CF000F8BD4FF0FF30FBE770B582B006461546C1
:103D00001C469DF8203033B900F0C0F9854264EBC1
:103D1000010100290ADB079B0193069B00932A46B9
:103D200023463046FFF788FF02B070BD0020FBE756
:103D3000F0B585B005460C4616461F46FFF768FFEE
:103D40009DF828300293019700962A462346FFF7F4
:103D5000D3FF05B0F0BD03464089B0EB214F31DD04
:103D600010B50A14586902EB420200EBC2001A694E
:103D7000EFF3108C72B6D2E8CF4F5FF0010E002C3B
:103D8000F9D1C2E844EF002CF5D1BFF35F8F428830
:103D900092B289B28A420FD0002019690022C1E88C
:103DA0008F2F8CF3108830B1DA681B78012199408D
:103DB00002F50153596010BD42F4004242800120D7
:103DC0009871EAE70020704710B50446FFF720FF1E
:103DD0002146FFF7C0FF10BD40787047F0B583B0B3
:103DE000EFF30583DBB2CBB904460D46861F41F1E4
:103DF000FF37B04271EB070301D20026374600F0CF
:103E000045F9301A67EB0103012873F1000308DA62
:103E10002046294600F082F903B0F0BD1848FFF7AC
:103E200023F800230093174A30463946FFF780FFF6
:103E3000002819DAECE7144B1A68EFF3108172B618
:103E4000D2E8CFCF0120BCF1000FF9D1C2E84C0F6E
:103E5000BCF1000FF4D1BFF35F8F1A680023C2E8F2
:103E60008F3F81F3108820BF084B5B6A9F42E2D8E6
:103E7000064A926AB242CBD29F42C9D1DBE700BF69
:103E8000B87201103538001058DB062000000B40D6
:103E900038B504460D4600F0F9F8201845EB01014D
:103EA000002902DBFFF79AFF38BD4FF0FF306FF0BB
:103EB0000041F7E708B5C30E4101091A63F1000399
:103EC0009B0043EA91738900091843F10003DB006A
:103ED000C80043EA5171FFF7DBFF08BDF0B583B0BE
:103EE00005460C46EFF30583DBB293B1384B5B6AB2
:103EF0008B4209D3364A926A824208D28B4201D061
:103F0000012002E0002000E0002003B0F0BD01200D
:103F1000FBE7FFF77DFEC7680678384600F08CF8AF
:103F20002A1A64EB0101043657F826301B1A9A420C
:103F300071F1000112DB20BF254B5B6A9C4209D85E
:103F4000234A926AAA4207D29C4201D00120DCE7B0
:103F50000020DAE70020D8E70120D6E7002300930D
:103F60001C4A28462146FFF7E3FE002818DD184BBF
:103F70005B6A9C4205D8164A926AAA4202D29C42C7
:103F800000D120BFFFF720FF114B5B6A9C421BD87A
:103F90000F4A926AAA4219D29C4213D00120B4E778
:103FA0000B4B5B6A9C4209D8094A926AAA4207D223
:103FB0009C4201D00120A8E70020A6E70020A4E74A
:103FC0000120A2E70020A0E700209EE701209CE757
:103FD00000000B40353800100048704700000B40CF
:103FE00010B50A4B1B6923B10A210948FFF79EFB54
:103FF00010BDFFF7F1FF0446032100F00BF810237A
:10400000032221460148FFF7C5FDEDE77C1700209C
:1040100058DB062010B5054A054C064BA04214BFDC
:104020001846581CFEF754FF10BD00BF087301105E
:1040300000800B40E42806200246436A906A194635
:10404000536A9942FAD17047416A00E0416A994245
:10405000FCD300E0416A994202D1816A9142F9D3CE
:10406000704770B5064614461D46FFF7E5FF021976
:1040700041EB0503824273EB010102D24FF0FF32A4
:1040800013463046FFF7E0FF70BD000008B5024858
:10409000FFF7D2FF08BD00BF00000B4008B5024685
:1040A0000B460248FFF7DDFF08BD00BF00000B40D4
:1040B00008B5002905DB826A836A9B1A8B42FBD311
:1040C00008BD08460021FFF7E9FFF9E708B50E4BE8
:1040D000994206D84FF47A7303FB01F1FFF7E8FF2A
:1040E00008BDCA0E4B015B1A62F10002920042EA5F
:1040F00093729B005B1842F10002D100DA0041EAA2
:104100005373FFF7AEFFEBE79BC4200008B50146F1
:104110000148FFF7DBFF08BD00000B4008B5024671
:104120000B460248FFF790FF08BD00BF00000B40A0
:1041300008B5C2898A4204D34268808901FB002005
:1041400008BD034B034A1921034801F029FF00BFB2
:104150002C73011078B001104873011070B504463B
:104160000E460CE0B4F80EC09C4521D1002A37D091
:1041700021680023C1E88F3F85F3108820BF2368A2
:10418000EFF3108572B6D3E8CF0F01210028FAD1E2
:10419000C3E8401F0028F6D1BFF35F8F21896389F0
:1041A000CB1ADFD5B4F80EC00CF1010C6344D9E78B
:1041B0002046FFF7BDFFA289314612F0ABFA2389F2
:1041C00001339BB2E289934200D900232381226804
:1041D0000023C2E88F3F85F3108840BF012070BDE7
:1041E00021680023C1E88F3F85F310881046F6E769
:1041F00070B504460E460AE0002B21D1002A39D0C2
:1042000021680023C1E88F3F85F3108820BF236811
:10421000EFF3108572B6D3E8CF0F01210028FAD151
:10422000C3E8401F0028F6D1BFF35F8F238961895F
:104230005B1AE1D5B4F80EC00CF1010C6344DBE766
:104240003EB12046FFF774FF0146A289304612F0C6
:1042500061FA638901339BB2E289934200D900235A
:10426000638122680023C2E88F3F85F3108840BF36
:10427000012070BD21680023C1E88F3F85F31088BD
:104280001046F6E770B504460D4616461946FFF788
:104290004DFA2946701C00F027FD6060E681A5817B
:1042A00000232381638170BD08B50122FFF756FF0B
:1042B00008BD08B50122FFF79BFF08BD70B5164683
:1042C000049D00EB400C4FEA8C0C0CF1804C0CF57B
:1042D000803CDCF80420AA4201D2CCF80450A0F1C2
:1042E000040E5FFA8EFEBEF1010F28D90CF5405284
:1042F0004FF4006414601E4A52F8202042B11C4C56
:104300006469B4FBF2F4013404EB4404033CFDD2D1
:10431000DCF8002082EA461202F0E0020CF580543C
:104320002260BEF1010F16D90CF500524FF4006166
:104330001160CCF804500E4A42F8203070BD0129BB
:10434000D4D10CF5405203241460DCF8082012F09C
:10435000010FFAD0DCE7DCF800204A4002F003024B
:104360002260DCF8084001228A401442F9D0DBE7E1
:10437000F028062010B582B04FF480340094FFF787
:104380009DFF02B010BD0000014B53F820007047A4
:10439000F0280620F0B583B004460D461646134FAC
:1043A0003B46012211460520FFF7E4FF00962B460D
:1043B000224601210E4800F059F806FB05F5B4FB32
:1043C000F5F40C4B002202210420FFF7D3FF234613
:1043D000002201210520FFF7CDFF3B4602220021EC
:1043E0000620FFF7C7FF03B0F0BD00BF006CDC0282
:1043F00000000540001BB7002DE9F04104460E46C1
:10440000174698464FF4A0751AE0013B9BB103FB99
:1044100000FCB2FBFCFEA645F7D10CFB1E210029D7
:10442000F3D1104A02FB05F535603860C8F800305A
:104430000120BDE8F081013808B10346E6E7013DFF
:104440000F2D0CD942F6E06205FB02F2A2F53723EC
:10445000A3F5D87304498B42F1D80720ECE700207C
:10446000E7E700BF001BB70050F80C0070B5049CD4
:10447000344DB5FBF1FC344D1544344EB54237D8BC
:10448000B2FBFCF5A5F1100EBEF5987F36D803F10E
:10449000FF3EBEF1060F37D804F1FF3EBEF1060F16
:1044A00032D8BCEB121F35D8240344EA0344036816
:1044B000002B35DB264B984242D00E2301229A4036
:1044C000244B1A6003F580531A60234B9B6832EA31
:1044D0000303FAD10160856000F5405204322123C4
:1044E00013600368002BFCDAC4600823136070BDFE
:1044F0001A4B1B4A11211B4801F052FD1A4B184A56
:104500001921184801F04CFD184B154A1C2115487B
:1045100001F046FD164B124A2321124801F040FDDE
:10452000036803F03F038B42C4D18368C3F30B03DA
:10453000AB42BFD1C36803F4EE23A342BAD1D6E79E
:104540000F23BBE7001BB70080E84BD380F8A932EC
:1045500000800540002002400000024088730110E6
:1045600084B00110D8730110207401103C74011044
:1045700088740110024B1A68024B5A60704700BFE2
:104580004C3C062000800D4008B5164B4FF0804291
:104590001A60A3F54123144A9A6051B103F54023F0
:1045A0004FF0E0621A6048B9104B4FF000421A60B9
:1045B00008BD0C4B4FF0E0621A60F4E74FF47A73D9
:1045C00003FB00F00A4B1860B0F1807F02D36FF05C
:1045D0007F421A60FFF7CEFF044B4FF080421A6013
:1045E000E6E700BF00B00D40F3FFFF0100A00D4063
:1045F0004C3C062010B50C4B4FF080441C6070B151
:1046000040F0010309480A4CC4610A4C5C40046252
:104610004162836200211046FFF7B6FF10BD034BD5
:104620000021D961F6E700BF00B00D4000800D40C9
:10463000D3C007B02D3FF84F054A00EB400302EB13
:104640008303596000EB4000800001231350704742
:10465000008010402DE9F04105460E461746984669
:104660000023DB8A002242E800F212F4800F0BD113
:10467000102144F252209847044643463A463146B8
:104680002846A047BDE8F081042144F25220984713
:104690000446F2E708B50023DB8A002242E800F274
:1046A00012F4800F02D11021984708BD04219847C9
:1046B000FBE708B50A46034628B141F0200290FA0C
:1046C000A0F3B3FA83F30A214FF48170FFF7C2FF1E
:1046D00008B5031E04DB41F020003AB141F030017F
:1046E0000A460A214FF48170FFF7B4FF0146F7E74D
:1046F00010B586B004460023DA8A002343E800F3AD
:1047000013F4800F0DD1102145F247309047034636
:104710001022052101A89847052815D0002006B0D1
:1047200010BD042145F2473090470346F0E75A1C7C
:1047300006A901EB820151F8141C44F8231013461A
:10474000032BF4D90120EAE70023F9E7034BD3F860
:104750002838002BFAD0BFF35F8F704700000E405F
:10476000002207E0054B13449B00BFF35F8F00213D
:1047700019600132072AF5D9704700BF0382031080
:1047800008B5FFF7EDFF08BD074B4FF42A621A602A
:104790004FF48D72DA6003F50053044A1A60024B3D
:1047A0005B68002BFBDA70470080044000B0FA0021
:1047B00010B5044602E054F8043B9847014B9C4274
:1047C000F9D310BDD06B01107047000008B5024846
:1047D000FFF7EEFF08BD00BF906B011008B502485F
:1047E000FFF7E6FF08BD00BFBC6B0110064B074A90
:1047F0001A6003F58053064A1A60064B9A68044B08
:104800009343FAD1704700BF002002407F3BEFEF97
:10481000F6FFF30300000240054BDB6CB3F5004FDD
:1048200000D07047034B4FF48022DA64F9E700BFF1
:1048300000001150002011504FF0E022D2F8881DE6
:10484000034B0B43C2F8883D10EE3004704700BFA5
:1048500003033000054B6FF060421A60044B9B6805
:10486000DB4333F06043F9D1704700BF00300240B2
:104870000000024008B545F25320FFF70BFF034646
:104880000420984708BD08B545F25320FFF702FF02
:1048900003460120984708BD08B5FEF7A1FB08BDF7
:1048A00010B50C490C4A521A92101446442A28BFDB
:1048B00044229200094811F02DFF04E0084A074BFA
:1048C00043F824200134432CF8D9044A054B9A605C
:1048D00010BD00BF000000101001001000000020FB
:1048E0001101001000ED00E038B50420FFF74CFD89
:1048F000064BA3FB0035AD0C002404E02946E0B2D2
:10490000FFF79AFE0134052CF8DD38BD83DE1B432A
:1049100030B583B0264B0022C3F88420FFF734FF64
:10492000244B0122DA63224B5B6C012BFBD1214B20
:1049300003221A631E4B9B6B012BFBD102240094B4
:1049400005231D4A01211D48FFF790FD052500950F
:104950002B461B4A01211B48FFF788FD1A4B0022FA
:1049600021460420FFF706FD184C234600220121B2
:104970002846FFF7FFFC164D2B4600221146082063
:10498000FFF7F8FC2B46002211460920FFF7F2FC46
:104990002346002211460620FFF7ECFC23460022A6
:1049A00011460720FFF7E6FCFFF79EFF03B030BD7E
:1049B0000000014000300140002F68590000054010
:1049C000008C864700800540001BB70080D1F008AE
:1049D000006CDC0286B003B451FC0804CDE902018E
:1049E00051FC0904CDE9040151EC0A04CDE90601AA
:1049F00003BCF047BDE800504EEC00C4BDE80050D9
:104A00004EEC01C4BDE800504EEC02C400BD0000F5
:104A100000B5FFF7DFFF02E010FE30F4F8D441EC00
:104A2000100443EC112400EE010410EE010480EEAA
:104A3000200451EC1004704700B5FFF7CBFF02E0F3
:104A400010FE30F4F8D441EC100443EC112400EED5
:104A5000010410EE210480EE200451EC3004704774
:104A600000B5FFF7B7FF02E010FE30F4F8D410B540
:104A700041EC100443EC112451EC040453EC0524E4
:104A8000A0FB024C5FF0000EE0FB03CEE1FB02CE88
:104A90004CEC20440024E1FB03E444EC30E480EEE1
:104AA000200451EC5004BDE81040704700B5FFF7FA
:104AB00091FF02E010FE30F4F8D441EC100443EC16
:104AC000112451EC2104A0FB01126FEA820252FB77
:104AD000100052FB12F252FB1000A0EBD07C53EC02
:104AE00004245CFB13F153EC1524A1FB022001FB11
:104AF000030053EC4424A2EB000050FB1CF24FEAED
:104B0000111312EB017043EBE27140EA515020EABD
:104B1000915020F0070053EC7524A0FB023C53ECAD
:104B2000752400FB03CC01FB02CC53EC0424ACEB5A
:104B3000824C40EA5C70A0F1010041EC400480EE40
:104B4000200451EC7004704700B5FFF743FF02E00A
:104B500010FE30F4F8D440EC700400EE010410EEC6
:104B6000210480EE200451EC3004704700B5FFF7BB
:104B700031FF02E010FE30F4F8D440EC600400EEA7
:104B8000010410EE210480EE200451EC3004704743
:104B900000B5FFF71FFF02E010FE30F4F8D441EC3F
:104BA000800400EE010410EE010480EE400410EEDB
:104BB0001304704700B5FFF70DFF02E010FE30F45C
:104BC000F8D441EC800400EE010410EE010480EE04
:104BD000400410EE3304704700B5FFF7FBFE02E01F
:104BE00010FE30F4F8D441EC100443EC112400EE34
:104BF000010410EE3004C0F30070704700B5FFF7F9
:104C0000E9FE02E010FE30F4F8D443EC102441EC4D
:104C1000110400EE010410EE30F48CBF01200020DE
:104C2000704700BF00B5FFF7D5FE02E010FE30F47C
:104C3000F8D443EC102441EC110400EE010410EE12
:104C400030F42CBF01200020704700BF00B5FFF7F3
:104C5000C1FE02E010FE30F4F8D441EC100443EC45
:104C6000112400EE010410EE30F42CBF01200020CE
:104C7000704700BF00B5FFF7ADFE02E010FE30F454
:104C8000F8D441EC100443EC112400EE010410EEC2
:104C900030F48CBF01200020704700BF08B528B158
:104CA00003460B44034A934200D808BD0248FEF76E
:104CB000DBF800BF00000820A474011070B50546A1
:104CC000084E304611F03CFF284611F0EDF804463E
:104CD000304611F031FF29462046FFF7DFFF20461E
:104CE00070BD00BF881D0020F8B505460E46094F6F
:104CF000384611F025FF3146284611F095F8044654
:104D0000384611F019FF06FB05F12046FFF7C6FFF4
:104D10002046F8BD881D002038B50446054D2846BC
:104D200011F00EFF204611F0C7F8284611F004FFDD
:104D300038BD00BF881D00209A4200D288547047B9
:104D4000704720B108B50A684968904708BD7047A8
:104D50000146002008E000EB8000531C0B60137834
:104D600003EB4003A3F130000A681378303BDBB259
:104D7000092BF0D970472DE9F04F83B005460E4658
:104D800093461F46DDF830A00D9CDDF838900F9B50
:104D900013F0030F19D1A046019208E002F1010BB4
:104DA0003B4631462020A84708F101085A46C8452D
:104DB000F4D3DDF804B008E0013C02F101083B4601
:104DC00031461AF80400A8474246002CF4D10F9B44
:104DD00013F0020F09D1104603B0BDE8F08F541C48
:104DE0003B4631462020A8472246A2EB0B034B4509
:104DF000F5D3F0E72DE9F04385B099460C9D0D9C65
:104E00009DF83880DDF840E0119F129E16F0020FE9
:104E100021D17FB116F0010F0CD0B8F1000F02D1F3
:104E200016F00C0F06D0013F04E04FF0300C05F8EF
:104E300004C00134744501D21F2CF6D916F0010FBD
:104E400009D0BC4207D21F2C05D84FF0300C05F812
:104E500004C00134F2E716F0100F14D016F4806F7E
:104E600004D11CB1744522D0BC4220D00F9B102B22
:104E700033D00F9B022B3DD01F2C0ED84FF0300C9F
:104E800005F804C001341F2C07D8B8F1000F39D041
:104E90004FF02D0C05F804C00134039602970194DD
:104EA00000954B46FFF767FF05B0BDE8F083B4F10E
:104EB000010C1DD00F9B102B0ED064460F9B102BA6
:104EC000D7D116F0200FD4D01F2CD2D84FF0580CC9
:104ED00005F804C00134CFE7023C16F0200FEDD1F5
:104EE0001F2CEBD84FF0780C05F804C00134C3E751
:104EF0006446BBE71F2CD0D84FF0620C05F804C005
:104F00000134B9E716F0040F05D04FF02B0C05F86B
:104F100004C00134C1E716F0080FBED04FF0200CDA
:104F200005F804C00134B8E7F0B591B0169C189D9F
:104F30001B9E0CB926F0100616F4806E1DD064B3CB
:104F40004FF0000E19E016F0200F24D04127BC448A
:104F50005FFA8CFCACF10A0C5FFA8CFC0EF10107D5
:104F60000EF1400EEE440EF820CCB4FBF5FCAC4242
:104F700014D31F2F12D8BE466446B4FBF5FC05FBC4
:104F80001C4C5FFA8CFCBCF1090FDCD80CF1300C26
:104F90005FFA8CFCE2E76127D9E7274606961A9C60
:104FA0000594199C049403959DF85C400294019724
:104FB00008AC0094FFF71EFF11B0F0BD2DE9F04FD3
:104FC00095B009900A910B929846DDF878B0DDF81B
:104FD0007C90229D239F269E5BEA090201D126F048
:104FE000100616F4806424D05BEA09022FD0002456
:104FF0001FE016F0200F28D041231344DBB20A3BF8
:10500000DBB204F1010A04F150020DEB020404F8D2
:10501000203C2A463B465846494611F089FDAB459F
:1050200079EB070915D3BAF11F0F12D854468346FE
:1050300089462A463B465846494611F079FDD2B288
:10504000092AD6D83032D3B2DBE76123D5E74FF057
:10505000000A0696259B0593249B049303959DF8CF
:1050600080300293CDF804A00CAB009343460B9A1A
:105070000A990998FFF7BEFE15B0BDE8F08F000051
:105080002DE9F04F93B004460D4617461E46DDE964
:105090001CAB52465B4650465946FFF7A1FD00281F
:1050A00040F0F3804FF0FF32AD4B50465946FFF7CA
:1050B000E5FD002840F0E9804FF0FF326FF48013E7
:1050C00050465946FFF79EFD002840F0DE80002242
:1050D000002350465946FFF795FD002840F0E68032
:1050E000CDE906AB209B13F480630F9301D1062317
:1050F0001E93DDE9062310461946CDE90A01079BF8
:1051000052EA030100F0DC80C3F30A50C3F3130337
:10511000904643F07F5949F44019A0F2FF30FFF761
:1051200017FD7DA3D3E90023FFF79EFC7CA3D3E901
:105130000023FFF771FCCDE908010022894B4046AE
:105140004946FFF77DFC78A3D3E90023FFF78CFCE9
:1051500002460B46DDE90801FFF75EFCFFF71CFD88
:105160000890FFF7F5FC8046894671A3D3E9002338
:10517000FFF77AFC00227C4BFFF74EFCFFF70CFD9B
:105180000A906DA3D3E9002340464946FFF76CFC23
:10519000804689460A98FFF7DBFC69A3D3E9002320
:1051A000FFF762FC02460B4640464946FFF748FCC3
:1051B0008046894602460B46FFF756FCCDE90C01B6
:1051C0000A9B03F2FF3300210022CDE90A121B05DE
:1051D0000B9300230A9342464B4640464946FFF74D
:1051E0001BFCCDE9100142464B4600204FF08041A8
:1051F000FFF726FC8046894600225C4BDDE90C0166
:10520000FFF758FC00225A4BFFF706FC02460B46FC
:10521000DDE90C01FFF74EFC0022564BFFF7FCFBCB
:1052200002460B46DDE90C01FFF744FC02460B4643
:1052300040464946FFF7F0FB02460B46DDE9100108
:10524000FFF738FC00224C4BFFF7E6FBDDE90A23B1
:10525000FFF70AFC80468946CDE90A89DDE9062385
:10526000FFF70CFD50B1089B013B08930022404B17
:1052700040464946FFF71EFCCDE90A01089B63330F
:10528000C62B46D84FF004081EE0209B04931F9BBA
:1052900003931E9B0293CDE900AB33463A46294661
:1052A000204600F0FDF813B0BDE8F08F9FED267B9F
:1052B0008DED067BCDF818A00BF10043079311E7A5
:1052C000002308934FF00408209B13F4006F5FD075
:1052D000DDE90A1213460B4313D01DA3D3E90023C3
:1052E000DDE90601FFF7B6FC002800F0B4801AA340
:1052F000D3E90023DDE90601FFF784FC002800F074
:10530000AA801E9A089B9A4238DDD31A013B1E934D
:1053100036E04FF00508D7E7FB799F501344D33FA1
:10532000B3C8608B288AC63F61436F63A787D23FAB
:1053300071A379094F930A401655B5BBB16B024072
:10534000EF39FAFE422EE63F0000000000000000A8
:105350002D431CEBE2361A3F0000000080842E41F2
:10536000FFFFEF7F0000F83F0000E03F00002C400F
:1053700000002440000018400000F03F00231E936E
:10538000209B43F4806320934FF00008CDF82080E9
:105390001F9B984569D2A3EB0809209B13F00203D9
:1053A0000C9304D0B8F1000F01D04FF00009089B16
:1053B0003BB1DDE90A23DDE90601FFF77BFBCDE91F
:1053C00006010022002350465946FFF71BFC002827
:1053D0004ED1209B23F400630493CDF80C901E9BC8
:1053E00002939DED067B8DED007B33463A462946C0
:1053F000204600F055F8B8F1000F3FF454AF209B61
:1054000013F0200F3CD04FF0450C00F1010933465A
:10541000024629466046A047089981EAE172A2EB5C
:10542000E1720523059308F1FF33049300230393EE
:105430000A230293CB0F0193009233464A46294632
:105440002046FFF771FD0C9B002B3FF42CAF02466A
:10545000DDF87C901EE01E9B002B99D00F9B002B4B
:1054600096D01E9B013B1E9392E74FF0000994E7F4
:10547000DDE90601024601F10043CDE90623A8E774
:105480004FF0650CC1E702F10108334629462020A0
:10549000A0474246D31B4B45F5D3104603E700BF58
:1054A0002DE9F04F2DED028B95B007900A919246B1
:1054B0009B46DDE92089229D42464B4640464946AF
:1054C000FFF78EFB002835D14FF0FF326FF48013C9
:1054D00040464946FFF796FB00283AD14FF0FF328D
:1054E000B14B40464946FFF7C9FB002840D1AAA36B
:1054F000D3E9002340464946FFF7C0FB00284DD1C1
:10550000A7A3D3E9002340464946FFF77BFB0028C9
:1055100044D10022002340464946FFF773FB002890
:105520004AD100230B93249B13F4806F00F0B580C5
:10553000002454E0249B0393239B029303230193B1
:105540009A4B00935B4652460A990798FFF713FC63
:105550001BE1249B0393239B029304230193944B0D
:1055600000935B4652460A990798FFF704FC0CE14A
:10557000249B13F0040F0ED08E4B04222499039128
:1055800023990291019200935B4652460A9907982B
:10559000FFF7F1FBF9E0884B0322EFE7249B04932C
:1055A000239B03930295CDE900895B4652460A99F5
:1055B0000798FFF765FDE8E042464B4600200021D2
:1055C000FFF73EFA8046894601230B93ABE704F1CF
:1055D00050036B44302203F8202C013D01341F2C72
:1055E00001D8092DF3D840464946FFF7D5FA0646BB
:1055F000FFF7AEFA02460B4640464946FFF720FA4F
:105600006E4B03EBC50393ED008B53EC182BFFF7A8
:105610002BFA02460B46CDE90823FFF7CFFA0746DF
:10562000FFF7A8FA02460B46DDE90801FFF708FA82
:1056300002460B46CDE908230022614BFFF71EFB13
:1056400068B301373846FFF795FA02460B4651EC2E
:10565000180BFFF7EBFA08B1013600276DBB304697
:10566000FFF776FA02460B4640464946FFF7E8F94F
:10567000074688460022524BFFF7C4FA00284CD157
:1056800000224F4B38464146FFF7F8FA002844D134
:1056900016F0010F41D001363FE0062548E7002211
:1056A000474BDDE90801FFF7ADFA0028D6D117B165
:1056B00017F0010FD2D00137D0E71F2C17D8013DCA
:1056C000404BA3FB0723DB08194603EB8303A7EB3F
:1056D0004303621C303304F150000DEB000404F866
:1056E000203C092F02D90F461446E6E714461F2C2A
:1056F0000AD86B1E45B104F150026A44302102F809
:10570000201C1D460134F2E71F2C06D804F150037B
:105710006B442E2203F8202C01341F2C17D82A4A60
:1057200082FB0632F317C3EBA2031A4603EB830393
:10573000A6EB4303611C303304F150000DEB000471
:1057400004F8203C16460AB10C46E6E70C46249BBA
:1057500003F00303012B39D01F2C09D80B9B002B1E
:1057600051D004F150036B442D2203F8202C013456
:10577000249B0393239B029301940CAB00935B4601
:1057800052460A990798FFF7F6FA15B0BDEC028B5E
:10579000BDE8F08FAFF300800000000065CDCD4183
:1057A0000000000065CDCDC1FFFFEF7F087501103F
:1057B0000C750110FC74011004750110F0B001109B
:1057C0000000E03FCDCCCCCC67666666239BB3B1CE
:1057D0000B9B1BB9249B13F00C0F12D0239B013B96
:1057E0002393194606E004F150036B44302203F87A
:1057F000202C01348C42AFD21F2CF4D9ACE7239972
:10580000F8E72399F6E7249B13F0040F07D004F17F
:1058100050036B442B2203F8202C0134A8E7249B6F
:1058200013F0080FA4D004F150036B44202203F8B6
:10583000202C01349CE700BF2DE9F04F8FB080464B
:1058400017460D938946002900F04F83002508E094
:105850006C1C3B462A464946C0470D9B01330D93BD
:1058600025460D9B1878002800F042832528EFD1AB
:1058700001330D9300261FE046F0010601320D9220
:10588000012318E046F0020601320D92012312E0D6
:1058900046F0040601320D9201230CE046F00806A2
:1058A00001320D92012306E046F0100601320D92FE
:1058B000012300E000234BB30D9A1378203B102BFB
:1058C000F8D801A151F823F09D580010B5580010E8
:1058D000B5580010A9580010B5580010B558001060
:1058E000B5580010B5580010B5580010B558001044
:1058F000B558001091580010B55800108558001088
:10590000B5580010B5580010795800100A930D9B37
:105910001A78A2F13003DBB2092B18D92A2A1BD03E
:105920000A9B0B930D9B1A782E2A25D00D9A13787B
:10593000683B122B5CD8DFE803F0495BAC5B3B5B58
:105940005B5B5B5B5B5B575B5B5B5B5BB1000DA8B1
:10595000FFF7FEF90B90E5E7189B1A1D18921B68DC
:10596000002B04DB0B930D9B01330D93DAE746F01C
:1059700002065B420B93F6E746F480665A1C0D92D2
:105980005A78A2F13003DBB2092B0CD92A2ACDD1E7
:10599000189B1A1D18921C6824EAE4730A930D9B45
:1059A00001330D93C2E70DA8FFF7D2F90A90BDE7C6
:1059B00046F48071531C0D9353786C2B01D00E4626
:1059C00016E046F4407602320D9211E046F0800176
:1059D000531C0D935378682B01D00E4608E046F017
:1059E000C00602320D9203E046F4807601320D9239
:1059F0000D9B1878672856D82528C0F06C82A0F136
:105A00002503422B00F26782DFE813F05A02650299
:105A1000650265026502650265026502650265024E
:105A2000650265026502650265026502650265023E
:105A3000650265026502650265026502650265022E
:105A400065026502650265026502650288016801FA
:105A500088016502650265026502650265026502EC
:105A600065026502650265026502650265026502FE
:105A700065027100650265026502650265026502E4
:105A80006502650265027100AF017100880168015D
:105A9000880146F4007601320D92A9E746F480763B
:105AA00001320D92A4E7782800F215826928C0F02F
:105AB0001282A0F16902D2B20123934049F241025D
:105AC000134214D113F0800F40F0DF8113F4806F84
:105AD00000F00182189B1A1D1892D3F800A00A9BAF
