:020000041000EA
:1000000000B5324B212058609868022188439860DF
:10001000D860186158612E4B002199600221596106
:100020000121F02299502B49196001219960352056
:1000300000F044F80222904214D00621196600F024
:1000400034F8196E01211966002018661A6600F04E
:100050002CF8196E196E196E052000F02FF8012189
:100060000842F9D1002199601B49196000215960AB
:100070001A491B48016001219960EB211966A021F2
:10008000196600F012F800219960164914480160C1
:100090000121996001BC002800D000471248134993
:1000A000086003C880F30888084703B5996A0420EC
:1000B0000142FBD001200142F8D103BD02B5186610
:1000C0001866FFF7F2FF186E186E02BD00000240BE
:1000D000000000180000070000035F00212200005C
:1000E000F4000018222000A00001001008ED00E03C
:1000F00000000000000000000000000074B24E7A12
:1001000000200420F7010010C3010010C5010010F9
:10011000C1010010C1010010C1010010C101001097
:10012000C1010010C1010010C1010010C701001081
:10013000C1010010C1010010C9010010CB01001065
:10014000CD010010CD010010CD010010CD01001037
:10015000CD010010CD010010CD010010CD01001027
:10016000CD010010CD010010CD010010CD01001017
:10017000CD010010CD010010CD010010CD01001007
:10018000CD010010CD010010CD010010CD010010F7
:10019000CD010010CD010010CD010010CD010010E7
:1001A000CD010010CD010010CD010010CD010010D7
:1001B000CD010010CD010010CD010010CD010010C7
:1001C00000BE00BE00BE00BE00BE00BE00F04BF888
:1001D000103800BEF2EB8871ECAF001010B00010C8
:1001E0003402001090A31AE700202149086006C8D5
:1001F00081F3088810471F48006800282FD10DA4FC
:100200000ECC002902D000F012F8F9E71A491B4A77
:10021000002000E001C19142FCD1194988471949E9
:1002200088471949884700BEFDE701C901C29A42C3
:10023000FBD3704710B00010C0000020480500201C
:1002400098B40010000004200000042098B40010AE
:1002500000100420001004200000000070470B482C
:1002600004F0F6FF0047EFF30580C0B270470000CE
:1002700008ED00E0000000D000800020A88E0220E1
:100280007D370010592000103937001057560000F4
:1002900006005250ABB36053CCA60010060052507B
:1002A000861C0302DCA60010060052505422A29DB8
:1002B000ECA6001005005250DE65F46898B40010FA
:1002C000F8B5C04610B5064C2378002B07D1054B76
:1002D000002B02D0044800E000BF0123237010BDB2
:1002E000088102200000000050960010044B10B559
:1002F000002B03D00349044800E000BF10BDC046F6
:10030000000000000C8102205096001070B504001F
:1003100001238B40DDB2013DEDB2FF20002307E059
:100320008021490119435A00084E91530133DBB231
:100330001F2B09D82A001A40A242F1D05A000349C3
:10034000034850521800F1E770BDC04624810220D6
:10035000A0A0FFFF10B5052002F0B0FE244B1968E5
:100360008B01A022D205944663441B69DB0132D481
:100370000122524211001F4B18688301A024E4059A
:10038000A44663441B69DB0127D408001A4B196893
:100390008B01A024E405A44663441B69DB011FD440
:1003A0000100164B18688301A024E405A4466344A9
:1003B0001B69DB0117D40800431C0BD08001A0236C
:1003C000DB059C466044806880239B01181A8018D6
:1003D00001380BD410BD0022CDE780229201D5E771
:1003E0008022D201DDE7C022D201E5E70448F1E72F
:1003F0006C87022070870220748702207887022091
:10040000FF7F000070B501249E4B1C70FFF7A2FF18
:100410009D4B18609D4B1A689440A021C9059C4BC8
:10042000CC509301A021C9058C466344DB68DB01F5
:10043000F7D4984B1A68012393400800944943501D
:100440009301A021C9058C466344DB68DB01F7D426
:10045000914B1A680123934008008D494350930142
:10046000A021C9058C466344DB68DB01F7D48B4BC4
:10047000196801238B406046854A83508B01A02276
:10048000D20594466344DA6880235B0414001C4060
:100490001A42F3D1824D2A68303280239B011343E4
:1004A00001221A600021072003F078FB2A687D4BA7
:1004B000186804307C4B9A4200D0082400190021AF
:1004C00003F06CFB7949072003F0AAFB6F4B1A6815
:1004D000774B0C2A00D9BCE076490B40D20213437B
:1004E0000C229343043A1343734A1340734A134054
:1004F000734A13400122134372490B409343634AEA
:1005000010688201A021C9058C4662440021116057
:1005100051609160136108F00BFE5E4B1A68644BEA
:100520000C2A00D99BE063490B40D20213430C22F2
:100530009343043A1343604A1340604A1340604AAD
:100540001340012213435F490B409343514A106803
:100550008201A021C9058C466244002111605160CE
:100560009160136108F0E4FD4B4B1A68504B0C2A64
:1005700000D97AE04F490B40D20213430C22934337
:10058000043A13434C4A13404C4A13404C4A13401C
:10059000012213434B490B4093433F4A10688201A9
:1005A000A021C9058C466244002111605160916010
:1005B000136108F0BDFD394B1A683D4B0C2A5AD81F
:1005C0003C490B40D20213430C229343043A134399
:1005D000394A1340394A1340394A1340012423430E
:1005E000384A1340A3432D4A10688201A021C9054F
:1005F0008C4662440021116051609160136108F0E3
:1006000097FD274D2868274B1968036822008A4008
:100610009343036008F03CFE2B4B1A6828682B4973
:1006200008F080FE2A4D28682A4E036832689440FC
:10063000A34303600022316808F0BEFE31682868D9
:1006400008F026FE244B1A682868244908F06AFE40
:1006500070BD234B234AC021234803F071F8204B7F
:10066000204AC021204803F06BF81D4B1D4AC021D1
:100670001D4803F065F81A4B1A4AC0211A4803F0C6
:100680005FF8C046988E0220A88B02206C8702205B
:1006900044040000708702207487022078870220BB
:1006A000D4860220588E022000002050050400103D
:1006B00010801F00FF87FFFF3FF8FFFFFFFFBFFF16
:1006C000FFFFDFFFFFFF7FFFD0860220649700104F
:1006D0007C8E02205C8E0220788E02203C0400205A
:1006E00050960010AC9700107096001070B5012461
:1006F0009D4B1C70FFF72EFE9C4B18609C4B1A689C
:100700009440A021C9059B4BCC509301A021C90561
:100710008C466344DB68DB01F7D4974B1A680123EE
:1007200093400800934943509301A021C9058C468A
:100730006344DB68DB01F7D4904B1A6801239340D4
:1007400008008C4943509301A021C9058C4663449D
:10075000DB68DB01F7D48A4B196801238B406046C4
:10076000844A83508B01A022D20594466344DA6800
:1007700080235B0414001C401A42F3D1814D2A6887
:10078000303280239B01134301221A60002107208D
:1007900003F004FA2A687C4B186804307B4B9A42B9
:1007A00000D008240019002103F0F8F97849072047
:1007B00003F036FA6E4B1A68764B0C2A00D9BBE070
:1007C00075490B40D20213430C229343043A13435E
:1007D000724A1340724A1340724A13400122134373
:1007E00071490B409343624A10688201A021C905F8
:1007F0008C4662440021116051609160136108F0E1
:1008000097FC5D4B1A68634B0C2A00D99AE0624949
:100810000B40D20213430C229343043A13435F4A22
:1008200013405F4A13405F4A1340012213435E495D
:100830000B409343504A10688201A021C9058C46A1
:1008400062440021116051609160136108F070FCF6
:100850004A4B1A684F4B0C2A00D979E04E490B409D
:10086000D20213430C229343043A13434B4A1340DE
:100870004B4A13404B4A1340012213434A490B4051
:1008800093433E4A10688201A021C9058C46624408
:100890000021116051609160136108F049FC384BF0
:1008A0001A683C4B0C2A59D83B490B40D2021343DF
:1008B0000C229343043A1343384A1340384A1340F6
:1008C000384A134001242343374A1340A3432C4A98
:1008D00010688201A021C9058C4662440021116084
:1008E00051609160136108F023FC264D2868264B67
:1008F0001968036822008A409343036008F0C8FC2B
:100900002A4B1A682A49286808F00CFD2868294EE5
:10091000036832689440A34303600022316808F002
:100920004BFD3168286808F0B3FC234B1A6828682F
:10093000224908F0F7FC70BD214B224AC021224811
:1009400002F0FEFE1E4B1F4AC0211F4802F0F8FEB7
:100950001B4B1C4AC0211C4802F0F2FE184B194ADE
:10096000C021194802F0ECFE988E0220A88B0220CC
:100970006C870220440400007087022074870220E4
:1009800078870220D4860220588E02200000205052
:10099000ED06001010801F00FF87FFFF3FF8FFFFEC
:1009A000FFFFBFFFFFFFDFFFFFFF7FFFD0860220BB
:1009B000489700105C8E0220788E022020040020D0
:1009C00050960010AC9700107096001070B501247E
:1009D000984B1C70FFF7BEFC974B1860974B1A683A
:1009E0009440A021C905964BCC509301A021C90584
:1009F0008C466344DB68DB01F7D4924B1A68012311
:100A0000934008008E4943509301A021C9058C46AC
:100A10006344DB68DB01F7D48B4B1A6801239340F6
:100A20000800874943509301A021C9058C466344BF
:100A3000DB68DB01F7D4854B196801238B406046E6
:100A40007F4A83508B01A022D20594466344DA6822
:100A500080235B0414001C401A42F3D17C4D2A68A9
:100A6000303280239B01134301221A6000210720AA
:100A700003F094F82A68774B18680430764B9A4252
:100A800000D008240019002103F088F873490720DA
:100A900003F0C6F8694B1A68714B0C2A00D9A9E01B
:100AA00070490B40D20213430C229343043A134380
:100AB0006D4A13406D4A13406D4A1340012213439F
:100AC0006C490B4093435D4A10688201A021C9051F
:100AD0008C4662440021116051609160136108F0FE
:100AE00027FB584B1A685E4B0C2A00D988E05D49F9
:100AF0000B40D20213430C229343043A13435A4A45
:100B000013405A4A13405A4A134001221343594989
:100B10000B4093434B4A10688201A021C9058C46C3
:100B200062440021116051609160136108F000FB84
:100B3000454B1A684A4B0C2A68D84A490B40D202E6
:100B400013430C229343043A1343474A1340474A42
:100B50001340474A13400122134346490B40934335
:100B6000394A10688201A021C9058C4662440021DF
:100B7000116051609160136108F0DAFA334B1A6822
:100B8000374B0C2A48D837490B40D20213430C226A
:100B90009343043A1343344A1340344A1340344ACB
:100BA000134001242343334A1340A343274A1068C8
:100BB0008201A021C9058C46624400211160516068
:100BC0009160136108F0B4FA214B1868214B196841
:100BD00003688C40A343036008F05AFB264B1B7844
:100BE000002B1FD0254B1A68194B1868244908F0B0
:100BF00099FB70BD234B244AC021244802F0A0FD7C
:100C0000204B214AC021214802F09AFD1D4B1E4A6B
:100C1000C0211E4802F094FD1A4B1B4AC0211B48FC
:100C200002F08EFD154B1A68094B1868184908F038
:100C300079FBDEE7988E0220A88B02206C870220C9
:100C40004404000070870220748702207887022005
:100C5000D4860220588E022000002050CD090010BA
:100C600010801F00FF87FFFF3FF8FFFFFFFFBFFF60
:100C7000FFFFDFFFFFFF7FFFA28E0220D086022052
:100C80009497001050960010AC97001070960010CA
:100C90007C970010F8B5012008F052FAC84C20608B
:100CA000012008F04DFAC74B1860012008F048FAFF
:100CB000C54B1860012008F043FAC44B1860216846
:100CC000C34A0C2900D92AE1C24B1A40C9020A437F
:100CD0000C20824308210A43BF4B1A40BF4B1A40E5
:100CE000BF4B1A4001231A43BE4B1A4010239A43AC
:100CF00013002022134383430B43B24A12680C2A89
:100D000000D912E1B3491940D3020B43B64A106827
:100D1000B64A12680432B649884200D10BE1082174
:100D200052183F2A00D908E1B2491940D3030B43B6
:100D3000A94A1340F822D2001343A24A1068A449DA
:100D40000C2800D9FFE0A34A1140C00201430C2443
:100D5000A14308200143A04A1140A04A1140A04AE3
:100D60001140012211439F4A1140102291430A0071
:100D700020210A43A2430243934909680C2900D960
:100D8000E7E094481040CA02024397490C6897492B
:100D9000096804319648844200D1E0E0082009182F
:100DA0003F2900D9DDE093481040CA0302438A4935
:100DB0000A40F821C9000A4383490C6884480C2C76
:100DC00000D9D4E083490840E40220430C25A8431D
:100DD0000824204380490840804908408049084051
:100DE000012108437F490840102188430100202049
:100DF0000143A9432143754800680C2800D9BCE091
:100E0000744C0C40C102214377480568774800685C
:100E10000430774CA54200D1B5E0082400193F28E2
:100E200000D9B2E0734C0C40C10321436A48014031
:100E3000F820C000014365480568654C0C2D00D9B9
:100E4000A9E064480440ED022C430C26B443082575
:100E50002C4361480440614804406148044001203B
:100E60000443604804401020844320002024204391
:100E7000B0432843524C24680C2C00D991E0554DC6
:100E80000540E0022843584C2668584C2468043436
:100E9000574DAE4200D18AE0082564193F2C00D995
:100EA00087E0544D0540E00328434B4C2040F82494
:100EB000E4002043454C27684B4C26684B4C246883
:100EC0000834A5007519BF01A024E405A4466744B1
:100ED0003D60494C7C608026B601BE6038613A486E
:100EE0000068800160440560444FE71947608660F0
:100EF000016134490968890161440D604048201846
:100F000048608E600A612E4A126892016244156040
:100F10003C498C46644454609660D360F8BD3A4BBB
:100F20003A4AC0213A4802F00BFC374B374AB831F5
:100F3000374802F005FC0021F2E6364B364AB22172
:100F4000334802F0FDFB304B304AC021304802F0FC
:100F5000F7FB2D4B2D4AC0212D4802F0F1FB00205C
:100F60001DE72C4B2C4AB221294802F0E9FB264B05
:100F7000264AC021264802F0E3FB234B234AC02126
:100F8000234802F0DDFB002448E7224B224AB2212D
:100F90001F4802F0D5FB1C4B1C4AC0211C4802F024
:100FA000CFFB194B194AC021194802F0C9FB002593
:100FB00073E7184B184AB221154802F0C1FBC0462E
:100FC0006C870220708702207487022078870220B5
:100FD00010801F00FF87FFFF3FF8FFFFFFFFBFFFED
:100FE000FFFFDFFFFFFF7FFFD4860220588E022025
:100FF00000002050FF7FE0FF000002200080FFFF84
:101000000000FFFF0080FEFF50960010AC9700101C
:1010100070960010BC960010C897001010B50D4BCC
:101020001B78002B0CD1EFF3108472B60A4B1B789F
:10103000002B06D0012B07D0022B08D084F3108898
:1010400010BDFFF7C3FCF9E7FFF750FBF6E7FFF72A
:10105000D9F9F3E7988E0220A18E0220F0B5DE4682
:1010600057464E464546E0B595B002900D00140037
:1010700003931EAB1E781FAB1A78934620AB1F78E4
:1010800021AB1A8890460A1980231B029A4200D38A
:1010900013E23D4B984200D917E2182E00D916E210
:1010A0005A460F2A00D914E2052F00D913E2002F67
:1010B00000D112E2BB18102B01DD0020FEE18022DE
:1010C00092020021314805F071F8314B1D60314B1F
:1010D0001C60314B1E70314B01221A7000230398A3
:1010E00006E0C25C2E49895C2E4AD1540133DBB242
:1010F000B342F6D32A4B5A469B5C1A0003932A4B01
:101100001A70052002F0D0FC04F080FF8146029B9B
:10111000580004F07BFF011C484604F058FF81464C
:10112000224D234B1D60280008F028F9214B9B46D7
:101130002148186008F022F95B461B68AB420ED0CC
:101140000721002001F0B2F8194B1A68174B9A4298
:1011500007D00721012001F0A9F8002508E00621A9
:10116000EFE70621F6E7062101F0A0F80135EDB220
:10117000B54223D20E4B1A680A4B585D0B4B9A426C
:10118000F1D00721F0E7C04600E1F505008000201E
:10119000A08B02209C8B0220A08E02209F8E02201A
:1011A000E0970010848B0220A48E022000002050C3
:1011B000D48602207C8E022000003050C84D0121D0
:1011C000286808F075F80200C64B9A46186028682F
:1011D00053009B18DB00D033C318802149010B4317
:1011E00080210906196019600368043201219140C9
:1011F0000B430360BC4908F079F8BC4B9B46186070
:10120000534619682868002300931D33022208F012
:101210000DF95B461B689A461022002108A804F0CD
:10122000C5FF80256D020895F8235B020993802392
:10123000DB020A93C0231B030A93102208A904A807
:1012400004F0BAFF5346991CDA1C059B0293A84B85
:1012500002980340C9010B43120313430593102264
:1012600004A90CA804F0A8FF0F9B0293A14B029ABB
:1012700013401D430F95484604F0F0FE85B2002D43
:1012800000D116E1280004F0C1FE011C484604F01C
:1012900094FE8721C90504F0B0FE04F0DFFEC3B25E
:1012A0001B022D041D430C950E9B0293924A1A407B
:1012B000924B13430E930D9B0293914A1A40802345
:1012C0005B0413430D93864D2A681100303180234F
:1012D0009B011943012008602D32FF321343802205
:1012E00052001A608749063002F070FC0121072085
:1012F00002F054FC2A687B4B18680430824B9A42F7
:1013000000D1D8E00823C018012102F047FC774B38
:101310001A68744B9B46724B99460CAB5946096848
:101320004846006808F0BAF8784D0121286807F0AF
:10133000BFFF774B9A4618602A6843001B18DB00F2
:10134000D033D318802149010B438021090619604D
:10135000196013680430012181400B431360434638
:10136000D8B23900FEF7D2FF6A49286807F0BEFFFD
:10137000694B984618605346196828680123009302
:10138000002208F053F85346196828680023009398
:101390003B00039E320008F049F843461B6898461C
:1013A0001022002108A804F001FF80277F0208977F
:1013B000F8235B0209938023DB020A93C0231B03FB
:1013C0000A93102208A904A804F0F6FE41461F3132
:1013D000059B0293464B029803404046C2011343CB
:1013E00009030B43059307990291CA00D208802193
:1013F00089050A430792494A13400593102204A91C
:1014000010A804F0D9FE102210A90CA804F0D4FEF4
:101410000F9B0293374B02990B40F6031E430F9626
:101420003F4B1E408023DB041E430F963D4B1E4066
:101430000F960C972B6838338022920113430121B9
:10144000494219604B461B6838331A431160FFF755
:1014500021FC4B461D685B4618682A6801238340BF
:101460009A4313432B60013C6A6801001031012349
:101470008B401342F8D1043080004451264B1A6847
:10148000234C224D0CAB2168286808F007F8296826
:1014900020680A68012383409A4313430B600023AA
:1014A000214A1370214A1370214B02221A70012025
:1014B00004E00023F4E6002325E7002015B0F0BC8B
:1014C000BB46B246A946A046F0BD0020F6E7002084
:1014D000F4E70020F2E70020F0E70020EEE7C04646
:1014E000D4860220588E022064970010D0860220F5
:1014F0007F00FEFFFF7FF0FFFFFF0AFE0000D1012B
:10150000FFFFFFE005040010000020507C8E022049
:101510005C8E02203C040020788E0220FFFFFF9F9B
:101520001FFCFFE3FF83FFFF988E0220998E0220AD
:10153000A18E0220F0B5DE4657464E464546E0B540
:1015400095B002900D00140003931EAB1E781FABE4
:101550001A78934620AB1F7821AB1A8890460A1957
:1015600080231B029A4200D301E23A4B984200D9F1
:1015700005E2182E00D904E25A460F2A00D902E2E9
:10158000102F00D901E2002F00D100E2BB18102B70
:1015900001DD0020ECE18022920200212E4804F0BF
:1015A00005FE2E4B1D602E4B1C602E4B1E702E4BCD
:1015B00001221A700023039806E0C25C2B49895C63
:1015C0002B4AD1540133DBB2B342F6D3274B5A46F0
:1015D0009B5C1A000393274B1A70052002F064FAF3
:1015E00004F014FD8146029B580004F00FFD011C1D
:1015F000484604F0ECFC81461F4B9B461F4D1D6086
:10160000280007F0BBFE5B461B68AB420ED00721EB
:10161000002000F04BFE184B1A68184B9A4207D076
:101620000721012000F042FE002508E00621EFE737
:101630000621F6E7062100F039FE0135EDB2B5428C
:101640001ED20D4B1A680A4B585D0C4B9A42F1D0D2
:101650000721F0E700E1F50500800020A08B0220C3
:101660009C8B0220A08E02209F8E0220E09700100B
:10167000848B0220A48E0220D486022000002050F9
:10168000C44D0121286807F013FE0200C24B9A46A0
:101690001860286853009B18DB00D033C3188021E2
:1016A00049010B438021090619601960036804325F
:1016B000012191400B430360B84907F017FEB84B76
:1016C0009B461860534619682868002300931D3311
:1016D000022207F0ABFE5B461B689A4610220021EF
:1016E00008A804F063FD80256D020895F8235B02CD
:1016F00009938023DB020A93C0231B030A93102261
:1017000008A904A804F058FD5346D91C1A1D059BCE
:101710000293A44B02980340C9010B4312031343E5
:101720000593102204A90CA804F046FD0F9B029318
:101730009D4B029A13401D430F95484604F08EFCC2
:1017400085B2002D00D10EE1280004F05FFC011CE1
:10175000484604F032FC8721C90504F04EFC04F031
:101760007DFCC3B21B022D041D430C950E9B0293FE
:101770008E4A1A408E4B13430E930D9B02938D4A53
:101780001A4080235B0413430D93824D2A68110095
:10179000303180239B011943012008602D32FF3234
:1017A0001343802252001A608349063002F00EFA79
:1017B0000121072002F0F2F92A68774B18680430FB
:1017C0007E4B9A4200D1D0E00823C018012102F0DC
:1017D000E5F9734B1A68704B9A466E4D0CAB514647
:1017E0000968286807F05AFE0121286807F060FDA3
:1017F0000200734B99461860286853009B18DB0061
:10180000D033C318802149010B4380210906196098
:10181000196003680432012191400B430360694B56
:101820003B43694A5381694907F060FD684B9B4619
:1018300018604B461968286801230093002207F0BE
:10184000F5FD4B4619682868002300933B00039E72
:10185000320007F0EBFD5B461F681022002108A84C
:1018600004F0A4FC80235B029B460893F8235B02F0
:1018700009938023DB020A93C0231B030A931022DF
:1018800008A904A804F098FC3B0008331A00059B43
:101890000293444B02990B40F9010B43120313438B
:1018A0000593102204A910A804F086FC102210A9A8
:1018B0000CA804F081FC0F9B02933B4B02990B4058
:1018C000F6031E430F96434B1E408023DB041E434A
:1018D0000F965B460C930E9B0293344B029A134077
:1018E0000E934B4619680CAB3A00286807F0D6FDFA
:1018F0002A68383280239B011343012252421A6026
:10190000FFF7C8F92A6853461D6811680123AB40E8
:1019100099430B431360013C5168280010300123A8
:1019200083400B42F8D10435AD00AC50244B1C6809
:1019300011680123A34099430B43136051682000B1
:101940001030012383400B42F8D10434A4004346F5
:10195000A3500023204A1370204A1370204B012209
:101960001A70012004E00023FCE600232DE700208C
:1019700015B0F0BCBB46B246A946A046F0BD00205B
:10198000F6E70020F4E70020F2E70020F0E700206F
:10199000EEE7C046D4860220588E022048970010F9
:1019A000D08602207F00FEFFFF7FF0FFFFFF0AFED0
:1019B0000000D101FFFFFFE0ED0600100000205005
:1019C0005C8E0220406000002804002020040020DB
:1019D000788E02201FFCFFE3988E0220998E022051
:1019E000A18E0220F0B5D6464F464646C0B590B00F
:1019F00082460F0016001C0018AB1D7819AB1B782F
:101A000099461AAB1B7898468A1880231B029A4283
:101A100000D369E1B94B984200D96CE1182D01D986
:101A2000002062E1802292020021B54804F0BEFB52
:101A3000B44B1F60B44B1E60B44B1D70B44B424698
:101A40001A70B44B00221A70002106E0635CB24A9F
:101A5000D25CB24B5A540131C9B2A942F6D3AE4B53
:101A60004A469B5C9946AE4B4A461A70052002F0E6
:101A70001BF804F0CBFA041C5346580004F0C6FAD5
:101A8000011C201C04F0A3FA071CA64CA6482060E9
:101A900007F074FC0121206807F00AFC0200A34B48
:101AA0001860206853009B18DB00D033C3188021D6
:101AB00049010B438021090619601960036804324B
:101AC000012191400B4303604346002B18D09849F5
:101AD00007F00CFC974B1860944B1968914C2068E8
:101AE000002300932033002207F0A0FC22688E4BD5
:101AF0009A420BD00721484600F0D8FB00240CE0A6
:101B00008D4907F0F3FB8B4B1860E5E70621F2E700
:101B1000062100F0CBFB0134E4B2AC4208D2814B89
:101B20001A687E4B185D804B9A42F1D00721F0E78E
:101B30004346002B00D1A9E07E4B1C6810220021F7
:101B400008A804F033FB80235B020893F8235B02B0
:101B500009938023DB020A93C0231B030A931022FC
:101B600008A904A804F028FBE21D059B0393734B0E
:101B700003990B40E40123431203134305931022FE
:101B800004A90CA804F018FB0F9B03936C4B039A59
:101B900013400F93381C04F061FA84B2002C00D17A
:101BA0009EE0200004F032FA011C381C04F005FA13
:101BB0008721C90504F021FA04F050FAC0B20002EE
:101BC000240404430C940E9B03935E4A1A40A02302
:101BD000DB0213430E930D9B03935B4B039A13405D
:101BE0004A46120613430D934E4C226811003031C1
:101BF00080239B011943012008602D32FF321343DB
:101C0000802252001A605149063001F0DFFF0121A5
:101C1000072001F0C3FF2268444B18680430424B90
:101C20009A425FD00823C018012101F0B7FF414B51
:101C30001A683E4D3B4C0CAB2968206807F02EFC1F
:101C40002268383280239B011343012252421A60DA
:101C5000FFF720F822682C6811680123A3409943FC
:101C60000B431360013E5168200010300123834074
:101C70000B42F8D10434A400A6500023344A137058
:101C8000344A1370344A137001202EE0294B1C682B
:101C90001022002108A804F089FA80235B0208932F
:101CA000F8235B0209938023DB020A93C0231B0302
:101CB0000A93102208A904A804F07EFAA21C033497
:101CC000059B03931D4B03990B40D201134324033F
:101CD00023430593102204A90CA804F06DFA53E7DE
:101CE00000206CE700239EE7002010B0E0BCBA465D
:101CF000B146A846F0BD0020F7E7C04600E1F50573
:101D000000800020A08B02209C8B0220A08E02204D
:101D1000A28E02209F8E0220E0970010848B02206A
:101D2000A38E0220D486022000002050588E02206C
:101D30007C970010D0860220949700107F00FEFF51
:101D4000FF7FF0FFFFFF0AFEFFFFFFE0CD0900105D
:101D5000988E0220998E0220A18E0220024B1878C4
:101D600001235840C0B27047988E0220F0B5CE468D
:101D7000474680B580468C463C4B1B78002B64D18F
:101D80003B4B1D683B4B1B68ED186A1E3A4B1B68AA
:101D90009A420DD95B1B394A91464B44384A13602D
:101DA000374B1C68374B1B78002B28D100213FE0B4
:101DB0005B1B0133324A1360F2E7334B9A5D023A00
:101DC000012393400340921BD3401F4301362F4B06
:101DD0001B78B342F1DC631CA4002D4AA75080227B
:101DE0001202934209D21C0001318D422AD9A3006C
:101DF000274A985800260027E9E70024F4E7002145
:101E0000F3E7214B9E5C0123B3400340B61AF34035
:101E10001F4301321D4B1B789342F2DC631CA4006C
:101E20001B4AA75080221202934209D21C000131A2
:101E30008D4207D9A300164A985800220027E9E7E7
:101E40000024F4E7094B01221A70094B1B68094A68
:101E500012689B1842461360094B62461B68136068
:101E60000B48C0BCB946B046F0BDC046998E0220B2
:101E7000A08B02209C8B0220A88B0220FF7F0000F9
:101E8000A48B02209F8E0220848B0220A08E022031
:101E90000080002070B584B0002004F02FFB431CAC
:101EA0001FD063490A78531CDBB20B706149885418
:101EB000012B10D0022B16D0022B12D91C009A1E17
:101EC0005C498A5CAA2A0CD15A1E8A5C552A08D120
:101ED0000022002118E00A78552AEBD0544B00224A
:101EE0001A7004B070BD534A5278AA2AE4D0504BFD
:101EF00000221A70F5E701324E4DAE5C0138FF3812
:101F00007040685401310132944206DD4948805CDA
:101F1000F028F0D0474D6854F4E7464A9278002AFA
:101F200008D0012A10D0444804F0A6FA404B002201
:101F30001A70D6E7052B03D03F4804F09DFAF5E769
:101F40003E4804F099FAF1E73D4B3E4A13601B7896
:101F5000012B27D0022B46D0364C6579230009335C
:101F60002B22A15CE26A12020A432721605CA16A6B
:101F7000090201432320265C606A000230436E1E82
:101F8000B5410295257901952125645D0094FFF7FF
:101F900029FD002848D02C4804F06EFA2B4B012272
:101FA0001A70C3E72A4B1C00093C2B22A15CE26A91
:101FB00012020A432721605CA16A0902014323201F
:101FC000255C606A00022843E679257A2D023543B4
:101FD000039565790295257901952125645D009425
:101FE000FFF7A8FAD5E71A4B1C00093C2B22A15C8D
:101FF000E26A12020A432721605CA16A09020143D6
:102000002320255C606A00022843E679257A2D02A8
:102010003543039565790295257901952125645D00
:102020000094FFF71BF8B4E70A4804F025FA7DE7AF
:10203000978E0220B08B0220D0960010E096001000
:10204000B38B0220448C0220F49600109A8E02205A
:10205000B98B02200497001030B585B003AB02AAFB
:1020600001A9444800F0CAF8002803D14149424878
:1020700001F000FC039A0299019800F083F804F043
:1020800039FAFA20800000F027FF802200213B4827
:1020900004F08CF8192000F021F9D0231B068022CF
:1020A00092045A6219E00134029B9C420DD2039BB8
:1020B0005A1C0392E85C04F0ABF980239B02039A5C
:1020C0009A42F0D300230393EDE72D4B00221A70C0
:1020D000D0231B06802292049A61D0231B06802203
:1020E00092045A61264B1B78002B3FD0FFF736FE37
:1020F00000281FD102AC03A92000FFF737FE05001E
:10210000642000F0E9FE207804F082F9607804F0A1
:102110007FF9A07804F07CF9E07804F079F9642084
:1021200000F0DAFE029B9B000293039B9B0003934B
:102130000024B9E7D0231B06802292049A61642010
:1021400000F0CAFE002004F0D9F9431C05D0FEF7C8
:1021500065FF0B4B00221A70BAE7D0231B068022C2
:1021600092045A61642000F0B7FEB1E7FFF792FED7
:10217000AEE7C046400D030014970010B08B02205C
:102180009A8E0220F0B583B004000D00160000F016
:1021900029F9002801D003B0F0BD154F00973B008E
:1021A00001220121053001F07DFB00962B00220069
:1021B0000121104801F08EFE31006943200003F038
:1021C0009BF804000C4B009300220221042001F034
:1021D00069FB0094230000220121052001F062FB2D
:1021E00000973B0002220021062001F05BFBD2E7B2
:1021F000006CDC0200800240001BB700F0B5DE4638
:1022000057464E464546E0B583B080468B46009221
:102210000193042001F048FCFA21890003F06CF8D6
:102220008246A0235B0099462CE0013C002C20D084
:1022300025007D432900300003F05EF84045F4D1CD
:102240002900300003F058F80029EED173019B1BE0
:102250009B009E19F6005B461E60009B1F60019B61
:102260001C60012003B0F0BCBB46B246A946A046A4
:10227000F0BD013F002F01D03C00D7E701235B42B6
:102280009C46E1444B460F2B09D956464B465E43CC
:10229000044BF218044B9A42F0D80727EAE70020D3
:1022A000E0E7C04680E5F9FF804F120010B58300DB
:1022B000084A944663441C6840226240C02414408B
:1022C0008022520113431C60C000034B9C466044B3
:1022D000416010BD04C001400040014010B5012321
:1022E0008340D0221206936293610521FFF7DEFF3F
:1022F00010BD0000EFF3108072B6034B1B68002B7B
:10230000FBD0BFF35F8F70472C0100D0BFF35F8F0E
:10231000024B00221A6080F3108870472C0100D015
:10232000F8B506000C001500FFF7E4FFE308F71806
:10233000F15C07222240012393400B4205D1DBB21E
:102340000B433B70FFF7E2FFF8BD2100280001F0CE
:1023500091FAF0B583B00600019114001F00FFF759
:10236000C9FF00E00134BC420CD8E308F518F35C67
:102370000721214001228A401A42F3D1D2B21A43E6
:102380002A7001E001246442FFF7C0FF002C02DB49
:10239000200003B0F0BD019B002BF9D0089801F09C
:1023A00069FA000070B505000C00FFF7A3FFE30811
:1023B000EE18EA5C07210C400123A340134204D02D
:1023C0009A433270FFF7A2FF70BD034B034A2C31D2
:1023D000034801F0B5F9C046F8970010589800106E
:1023E00018980010034B1B6802201840431E9841A8
:1023F000C0B2704700C00640002307E0054A9A18A3
:102400009200BFF35F8F0021116001331F2BF5D9BC
:102410007047C04640000034054A1078431CDBB2C8
:102420001370172B02D9130010221A707047C04680
:102430004204002000B583B00100044B00931F2329
:1024400018220348FFF785FF03B000BD689800100D
:10245000D886022070B505000C00080000F0CCFD05
:10246000200000F0FFFE0849200000F03FFEFFF7CB
:10247000D3FF064B9C466044800068602C75A40026
:10248000034BE55070BDC046992700104000003452
:10249000348C02200A4B1A68EFF3108172B613686D
:1024A000002BFCD0BFF35F8F054B1B68BFF35F8F22
:1024B00000221A6081F3108840BF0020002170477D
:1024C000548E022010B5002922D003681B7B99424C
:1024D0001ED8174B9C466144090183689C466144A1
:1024E0000C684968002A19D003681B7B9A4215D8EA
:1024F00083680F488446624412019A181068536832
:10250000020001208B4201D80ED00020C0B210BDC5
:10251000084B094A3B21094801F012F9054B064ACC
:102520003B21064801F00CF9A242EFD8EDE7C04686
:10253000FFFFFF0FD09800108C9B001098980010A0
:1025400010B500291ED0037B99421BD84B005B18A5
:10255000033B0468A4466344002919D0002A1DD017
:10256000914221D0002A25D0047BA24222D80468BF
:1025700050008018033820188170197800291FD165
:102580001A7010BD104B114A6821114801F0D8F89B
:10259000104B114A6F310E4801F0D2F80F4B0E4A22
:1025A00070210B4801F0CCF80D4B0B4A7121084803
:1025B00001F0C6F8044B054A6821054801F0C0F84F
:1025C00041701A70DDE7C04604990010F89B0010B6
:1025D0002099001068990010D49B00107499001085
:1025E0008099001070B506000D001400002914D069
:1025F000002A14D0806873689847002806D022000B
:1026000029003000FFF79CFF280007E02A00210086
:102610003000FFF795FF200000E0100070BD0800BB
:10262000FCE70000F0B583B00500009201930AAB0F
:102630001C780BAB1F78002C26D003685A7B944281
:1026400007D10123002B19D1002C3BD1200003B06E
:10265000F0BD002C0CD01A7B944209D81A68630094
:102660001B19033BD3189B78002BEBD00123E9E720
:102670003E4B3F4A68213F4801F062F83E4B3F4ADB
:1026800065213F4801F05CF803689C7B002CDBD09F
:1026900012D01A7B94420FD862001219033A1968BB
:1026A0008C46624451789973002900D1D973002374
:1026B000937053701370C7E72C4B2D4A68212D4837
:1026C00001F03EF8002C3AD02B681B7B9C4236D898
:1026D0002C4BE3181B01AA6894466344009A1A60C5
:1026E000019A5A60089A9A60099ADA602E68002C5A
:1026F0002BD030D0337B9C422DD863001B19033B79
:1027000032689446634400229A705A701A70717B42
:1027100022003000FFF766FF7073844200D095E717
:10272000287D009A019B00F029FD061E01D0002F94
:1027300017D00C9B002B00D188E71E7086E7124B48
:10274000124A3B210E4800F0FBFF114B114AA52114
:10275000084800F0F5FF054B054A6821054800F0E0
:10276000EFFF2868210000F069FFE2E704990010FC
:10277000F89B00102099001098990010049C0010FC
:1027800098980010FFFFFF0FD09800108C9B00104E
:1027900094980010E89B0010F0B5DE4657464E4670
:1027A0004546E0B58BB00990002308938200B24BF8
:1027B000D658370032E0B14BB14A3F21B14800F062
:1027C000BFFFB14BB14A3B21B14800F0B9FFB14B5B
:1027D000B14A8C21AE4800F0B3FFB04BAE4A902115
:1027E000AB4800F0ADFFA84BAD4A4021A84800F02F
:1027F000A7FF2A686B68099800F0C0FC00239A467E
:1028000098467B68BFF35F8F00221A6086F31088BA
:102810004346002B51D1002800D126E100F0F8FBFF
:1028200002000B1EC7DB002000210690079178688C
:10283000EFF3108672B601680029FCD0BFF35F8FFA
:10284000396888464C7B002C32D0BAD0097B8C4248
:10285000B7D8944965182D01B9688C466544286835
:102860006968801A99410029C3DC01D10028C0D1D0
:102870000021404600F0D8FEA042A8D12A686B682B
:1028800006920793AB689846EB689A464346002B3E
:10289000A3D0002CA7D03B681B7B9C42A3D8631E0F
:1028A000FA68D35C08931B02184338610020A8E73C
:1028B00000239A4698460020A3E7089B1B02234367
:1028C000994651461800C04705000E007A68EFF39C
:1028D000108B72B6136859424B41D9B2002BF9D113
:1028E000BFF35F8F002E26DB002E52DD3B69002BED
:1028F00053D04B4572D100F08BFB02000B1E73DBF3
:102900000100180052197341984202D804D1914233
:1029100002D901225242D317002B6BDB0021049114
:1029200001310391029451460191414600913800D2
:10293000FFF778FE49E03B69002BD5D04B451CD111
:10294000069A079B10001900521BB341994202D806
:1029500004D1904202D901225242D317002B12DB3C
:1029600000210491013103910294514601914146A5
:1029700000913800FFF756FE27E04B4B464A9F2157
:10298000434800F0DDFE3D4B3D4A3F213D4800F00D
:10299000D7FE002E01D1002DA8D13A68002C45D0D9
:1029A000537B9C422CD1012100293FD1D37B002BAA
:1029B00042D1D473002C52D03B681B7B9C424ED832
:1029C000FA68013C135D0133135500233B617A68BB
:1029D000BFF35F8F13608BF310881FE7324B2E4AD3
:1029E000A2212B4800F0ACFE244B254A3F2125486C
:1029F00000F0A6FE214B224A3F21224800F0A0FE13
:102A0000002C0DD0137B9C420AD863001B19033B9A
:102A10001068844663449B78002BC5D00121C3E72E
:102A2000224B234A6821234800F08AFE224B234A86
:102A3000F621204800F084FE002B0AD0117B8B4247
:102A400007D85900CB18033B11688C4663445C706F
:102A5000AFE7164B164A6821164800F071FE0A4B84
:102A60000F4A40210A4800F06BFE0BB0F0BCBB4699
:102A7000B246A946A046F0BD348C0220C099001091
:102A8000589B0010DC990010D09800108C9B00100F
:102A900098980010209A0010709B0010389A00102F
:102AA000B09B0010FFFFFF0F449A00100499001024
:102AB000F89B001020990010809A0010C49B001011
:102AC00010B50A4B5B68002B04D00A21084800F0BF
:102AD000E9FB10BD054C2300064A1021206800F0D8
:102AE000C3FC03212000FFF7B5FCEEE744040020FF
:102AF000548E0220C524001010B5064B5B68002BD5
:102B000001D0044810BD044B044A5C21044800F085
:102B100017FEC04644040020A49A0010989B0010A1
:102B200098980010F0B5DE4657464E464546E0B54B
:102B30008BB0804616001F00149B9A46159B994641
:102B400016AB1B789B461F2302AA944663440022BF
:102B50001A7032E0002809D042461268127B904277
:102B600004D8421E4146C9688A5C48E0434B444A47
:102B70004021444800F0E4FD0798002B75D05B46E7
:102B8000002B72D04946D04704000D0003000B43D0
:102B900000D171E0002946DB00F03AFA06000F1E72
:102BA00055DB36196F41B94202D804D1B04202D97F
:102BB00001267642F717002F4FDB43465A68EFF3A2
:102BC000108472B6136859424B41D9B20791002B59
:102BD000F8D1BFF35F8F1F3302AA94466344049376
:102BE0000023039302934B46019353460093320014
:102BF0003B004046FFF716FD031EABD102004146E5
:102C00004968BFF35F8F00250D6084F31088002BA7
:102C100029D01F2302A98C4663441B78002BABD11B
:102C200012021043A9E732003B00361BAF41BB4202
:102C300002D804D1B24202D901267642F717002FFA
:102C4000BBDA114B114A3F21114800F079FD0E4BC0
:102C50000E4A3F210E4800F073FD0B4B0B4A3F21FB
:102C60000B4800F06DFD012040420BB0F0BCBB46AC
:102C7000B246A946A046F0BD0798F6E7D0980010E6
:102C8000B09B001098980010C0990010589B00103D
:102C9000DC990010F8B504004268EFF3108572B6B5
:102CA000136858424341D8B2002BF9D1BFF35F8F6C
:102CB000CBB22268567BB3421BD10120002848D0FA
:102CC000206988422BD0090AC9B2002B2ED0206877
:102CD000007B83422AD8581EE668305C88422BD09D
:102CE00000206368BFF35F8F00221A6085F31088AD
:102CF000F8BD002B0DD0167BB3420AD85E00F61843
:102D0000033E1768BC466644B678002ED6D0012034
:102D1000D4E7134B134A6821134800F011FD8521B5
:102D2000124B134A4900134800F00AFD124B134A94
:102D30004021104800F004FD1900100000F07EFC56
:102D40000028CED112210E4B094AFF31094800F06C
:102D5000F7FC23698B42C4D100232361C1E7C0463D
:102D600004990010F89B001020990010C89A0010D8
:102D7000409B001098980010D0980010B09B001055
:102D8000EC9A0010F0B587B006000F00FDF76BFA63
:102D900000281FD106246442E517A4197D41BD42D5
:102DA00002D803D1B44201D900240025002D14DB40
:102DB0000494059500F02CF902000B1E13DBA41AF5
:102DC0009D41002D17DC14D03000390000F02CF9A3
:102DD00007B0F0BD234800F04DFD234B234A3F21AF
:102DE000234800F0ADFC204B204A3F21204800F052
:102DF000A7FC002CE8D0FFF77FFE0023029301938D
:102E00001C4B0093049A059BFFF78CFE002818DAF0
:102E1000DAE7002300E00023002BD5D1164B1A6817
:102E2000EFF3108172B61368002BFCD0BFF35F8FF5
:102E3000114B1B68BFF35F8F00221A6081F310886B
:102E400020BF0499059A0D4B5B6A9A42E3D80B4860
:102E5000806A884203D29A42DBD00123DCE7012357
:102E6000DAE7C046F09A0010C0990010589B001095
:102E7000DC99001095240010548E0220004005407B
:102E8000F8B504000D0000F0C3F802000B1E10DBC3
:102E900020002900801859418B4202D804D1824277
:102EA00002D901204042C117002908DBFFF76AFF61
:102EB000F8BD064B064A3F21064800F041FC034B93
:102EC000034A3F21034800F03BFCC046C099001074
:102ED000589B0010DC99001010B5FA2292000023D4
:102EE000002103F04DF8FFF7CBFF10BD70B584B0A3
:102EF00006000C00FFF700FE002302930193194B1C
:102F0000009332002300FFF70DFE051E11DD20BFE8
:102F1000FFF7F2FD2900FFF7BDFE134B5B6A9C42F1
:102F20001BD8114A926AB2421AD29C4213D0012095
:102F300014E00D4B5B6A9C4209D80B4A926AB2427C
:102F400007D29C4201D0012008E0002006E00020CA
:102F500004E0012002E0002000E0002004B070BD89
:102F60000120FBE7952400100040054070B5EFF309
:102F700005833F2018401038EFF3108C72B6194BC0
:102F80001B68002BFBD0BFF35F8F0123190081402A
:102F9000154A5163154A12781400C440234214D0D4
:102FA000114B5C6A8300124D5B599C4206D383002F
:102FB000104C1B598A430D490A7007E00A4A031D49
:102FC0009B0099589950002300E00023BFF35F8FC6
:102FD000044A002111608CF31088002B00D0984720
:102FE00070BDC046280100D000400540A58E0220DB
:102FF000688E0220C085022010B50100024A0348F5
:10300000FFF78EF910BDC0461C9C00109B8E02205D
:10301000044B5B6A034A906A1900536A9942F9D1DA
:103020007047C04600400540084B5B6A01E0074B13
:103030005B6A8B42FBD301E0044B5B6A8B4203D19A
:10304000024B9B6A8342F7D37047C046004005405D
:1030500070B504000D00FFF7DBFF02000B0020003D
:103060002900801859418B4202D804D1824202D9EA
:1030700001204042C117002902DBFFF7D5FF70BDD8
:10308000024B034A3F21034800F05AFBC09900104D
:10309000C09C0010DC99001010B5002807DB064B1F
:1030A0009A6A054B9B6A9B1A8342FAD310BD002192
:1030B000FFF7CEFFFAE7C0460040054010B50A4BC7
:1030C000984207D843011B1A9B001818C000FFF74D
:1030D000E3FF10BDFA2292000023002102F050FF0E
:1030E000FFF7B6FFF5E7C0469BC4200070B50400AB
:1030F0000D00EFF3108672B61B4B1B68002BFBD044
:10310000BFF35F8F002D1CD0200000F057FD174B40
:1031100083420BD01900200000F058FD012120004F
:1031200000F03CFD0123A340114A1360A400114BA1
:10313000E550BFF35F8F0C4B00221A6086F31088B6
:1031400070BDA2000B4B0021D1500122A2400A49C0
:103150000B7893430B700549200000F061FD0021BE
:10316000200000F01BFDE4E7280100D06D2F0010C7
:1031700038600540C0850220A58E0220F0B5DE46ED
:1031800000B584B00400150001921E000293FFF701
:103190003FFF03958E4202D84ED185424CD9EFF3C2
:1031A000108B72B6274B1B68002BFBD0BFF35F8FD1
:1031B000254A17780125A540EBB23B431370234BFA
:1031C0005D63221D92000199D150A200204902980E
:1031D00050501B6A2B4212D11C4B1B6C2B4208D047
:1031E0000020BFF35F8F174B00221A608BF310880B
:1031F00023E0184B184AC121184800F0A1FAFFF744
:1032000007FF8E4214D802D1039B834210D80E4B85
:103210001B78BB420ED00D4B1D625D631F20044026
:103220000123A3400E4A1360074B1F701E38D8E7D6
:103230000020D6E70120D4E7012004B080BCBB46C3
:10324000F0BDC046280100D0A58E022000400540F8
:10325000688E0220409C0010A49C0010649C00100A
:1032600080E200E0EFF3108C72B60B4B1B68002B72
:10327000FBD0BFF35F8F01238340084A13620849E4
:103280000A789A430A70BFF35F8F034B00221A60DB
:103290008CF310887047C046280100D000400540DC
:1032A000A58E0220024B9C46614489000160704754
:1032B0004000003410B50400FFF7AEF80100200014
:1032C000FFF7F0FFFF232371BFF35F8F10BD10B531
:1032D0000400FFF7A1F801002000FFF7E3FFFF2340
:1032E000237100236371BFF35F8F10BD034B9C46B6
:1032F000614489000160BFF35F8F70474000003474
:1033000010B504000120FFF795F801002000FFF739
:10331000EDFF10BD10B500291ED0037B99421BD8CC
:103320004B005B18033B0468A4466344002919D092
:10333000002A1DD0914221D0002A25D0047BA24230
:1033400022D804685000801803382018817019783A
:1033500000291FD11A7010BD104B114A6821114865
:1033600000F0EEF9104B114A6F310E4800F0E8F909
:103370000F4B0E4A70210B4800F0E2F90D4B0B4A3F
:103380007121084800F0DCF9044B054A6821054822
:1033900000F0D6F941701A70DDE7C04604990010BC
:1033A000949E00102099001068990010809E0010D3
:1033B000749900108099001070B506000D0014007B
:1033C000002914D0002A14D0806873689847002818
:1033D00006D0220029003000FFF79CFF280007E0FC
:1033E0002A0021003000FFF795FF200000E01000C8
:1033F00070BD0800FCE7000010B5002343730133E3
:103400008373037BC3730123027B9A4214D9002B7D
:103410000CD0027B934209D85A00D218033A0168B3
:103420008C4662440133DBB25370EDE70B4B0C4A20
:1034300068210C4800F084F9002A09D0924207D88C
:10344000016853009A18033A8A180023537010BD7C
:10345000024B034A6821034800F072F904990010F6
:10346000949E00102099001010B501734260836093
:10347000FFF7C2FF10BD000070B50400081E00D1A8
:1034800070BD002934D0237B994231D84B005B18A2
:10349000033B2268944663445A78002AF0D02DD02A
:1034A000237B9A422AD853009B18033B21688C4601
:1034B00063445D7800215970002825D0237B984211
:1034C00022D843001B18033B21688C46634400212B
:1034D000597001002000FFF76FFF0600290020004F
:1034E000FFF7CAFF020031002000FFF765FFC7E7C2
:1034F000084B094A6821094800F022F9054B064AA1
:103500006821064800F01CF9024B034A6821034871
:1035100000F016F904990010949E001020990010F4
:1035200070B505000C001600002928D02DD0037BB3
:1035300099422AD84B005B18033B026894466344C7
:103540005A78002A27D19A78002A2AD11978FFF7C9
:1035500093FF0300002E03D0EA7B002A27D1EC73EF
:10356000002B37D1002C49D02B7B9C4246D82B68AE
:1035700061000C19033C1C190023637070BD224BC1
:10358000224A3821224800F0DBF8224B224A6821E7
:10359000224800F0D5F8224B1C4A3A211C4800F082
:1035A000CFF8204B194A3B21194800F0C9F8002AEE
:1035B0000AD0297B8A4207D851008A18033A296821
:1035C0008C4662445470CAE7124B134A6821134870
:1035D00000F0B6F8002B0BD02A7B934208D84300AA
:1035E0001B18033B2A689446634400229A70B9E78B
:1035F000084B094A6821094800F0A2F8054B064A21
:103600006821064800F09CF8A09D00106C9E0010F8
:10361000A89D001004990010949E0010209900109D
:10362000E09D0010089E001070B504000A00457B64
:103630002900FFF775FF6073280070BD70B50400A6
:10364000002967D0437B8B420ED0002911D0037B29
:1036500099420ED84B005B18033B0268D018837860
:10366000002B0CD1002056E00121FFF7DDFF0120E7
:1036700051E0294B294A6821294800F061F8002BC4
:1036800020D0227B93421DD85A00D318033B2268D6
:10369000D2182568EB5C8B421AD0002B1BD0227B02
:1036A000934218D85A00D318033B2268D218537893
:1036B0008B4216D0002BF0D11A4B1B4A67211B48B6
:1036C00000F03EF8144B154A6821154800F038F810
:1036D0004378137007E0104B104A6821104800F03F
:1036E0002FF8437853700023837043700122200029
:1036F000FFF716FF0200617B814205D02000FFF733
:103700005BFE6073012006E0094B074A6D21074804
:1037100000F016F8002070BD04990010949E00106F
:10372000209900102C9E0010549E0010A89D00109F
:10373000349E001000BEFDE710B5FFF7FBFF000050
:1037400010B582B00C001900002A0CD0084B002ADA
:103750000BD00192009323000200064802F0BEFE47
:103760000120FFF7E7FF044BF1E7034AF1E7C0460A
:10377000A09E0010B09E0010AC9E001070B52B4BA8
:103780002B4A1A602B4B2C4A1A602C4B9A682A4BF6
:103790009343FAD12A4C01E008CC9847294B9C422C
:1037A000FAD300F001F9234B274A1A60234B9B6898
:1037B000DB43DB01FAD1254B40229A675A671A672F
:1037C000DA66234C09E0234B234A83212348FFF781
:1037D000B7FF2000FFF76EFD0834214B9C4209D251
:1037E0002368002BF5D0012BEDD12000FFF76FFDF2
:1037F0000834F2E71B4CA1681B4DC022280002F0E0
:10380000DBFCA560FCF72FFD002800D000BEFEF712
:10381000F3FD00F051FBFFF753F9144C01E008CC25
:103820009847134B9C42FAD370BDC04600E000405D
:10383000BFCDFBFE00F00040FE7F3C0000C000401A
:103840003005002040050020FFFFFF0100F001408F
:1038500020050020E09E0010549F0010009F0010E3
:103860003005002000ED00E00000002040050020B1
:10387000480500200FB400B583B0084802F0FCFDF5
:10388000049B002B07D005A90191180002F004FE4B
:10389000034802F0F1FD0120FFF74CFF409F0010AC
:1038A000509F0010F8B5DE4657464E464546E0B5F7
:1038B00005000F0092460A9A93424ED31A0E914683
:1038C0001E020A9A00233000494601F057FD804647
:1038D0006C006419A4002F4B9C46644463688342C7
:1038E00000D260602B1FDBB29B46012B3BD9C0236B
:1038F0009B012343802212011A60AB00264A99588B
:10390000002905D0506901F0F7FC01300138FDD1E4
:1039100053465A0123685A40E0231A4080235B0132
:1039200023431A605A46012A28D980239B01234346
:10393000802212011A604346636042460023300031
:10394000494601F01BFDAD00134B58510120F0BC5E
:10395000BB46B246A946A046F8BD104B104A2D21E1
:103960001048FFF7EDFE012FC1D1C0239B01234377
:1039700003221A60A368DB07FCD5C9E721687940F8
:1039800003220A401A60A2680123BB401342FAD006
:10399000CBE7C04600800040DC860220649F001018
:1039A000BC9F0010789F001030B583B00C2000F051
:1039B00021FBFEF717FD00280DD0002304E099003D
:1039C0002D4A2E4888500133092BF8D92A4B2C4A0E
:1039D0005A6203B030BD2B4B00229A6700F07CFB8B
:1039E000294B01221A60274B5B6C012BFBD1274B23
:1039F00003221A60234B9B6B012BFBD10224009402
:103A00000533234A0121234800F064FA009405237A
:103A1000214A0121214800F05DFA214B0093002248
:103A200002210420FFF73EFF1E4D00952B000022CF
:103A300001210520FFF736FF104C009423000022DF
:103A400000210720FFF72EFF009423000022002111
:103A50000820FFF727FF0A4B0093230000220021D4
:103A60000920FFF71FFF00952B00002200210620F0
:103A7000FFF718FFADE7C046DC860220006CDC02D1
:103A80001BB70000008000403CB0004030B0004058
:103A9000002F68590080024000389C1C00C0024082
:103AA000001BB700405973078000014BC058704796
:103AB000DC860220074B9B68103080001950BFF352
:103AC0005F8FBFF35F8F044B0021196082F3108872
:103AD0007047C04600ED00E0240100D010B5091A7F
:103AE000081F0A4B9C466144094A914208D8C30703
:103AF00006D440104005400D064B184380B210BD5F
:103B0000054B064A8B210648FFF71AFEFC0700000A
:103B1000FE0F000000E0FFFFCC9F001004A2001089
:103B2000FC9F001010B5091A04394C08090B08D184
:103B30004905490D064A11430180064B2343438042
:103B400010BD054B054A93210548FFF7F9FDC04616
:103B500000F0FFFF00F8FFFF38A00010D8A1001010
:103B6000FC9F001001238340034A10681840431E45
:103B70009841C0B27047C04600E100E0002904D07F
:103B8000034B1860034B18607047034B1860FBE74A
:103B900080E200E000E100E080E100E010B50123F8
:103BA00083401800FFF7EAFF10BD000001238340A7
:103BB000014A13607047C04600E200E0024B9B6878
:103BC00010308000C058704700ED00E070B5040070
:103BD0000D00EFF3108672B60C4B1B68002BFBD068
:103BE000BFF35F8F2000FFF7E9FF094B984201D038
:103BF000A84205D1320029002000FFF75BFF70BD0D
:103C0000044B054A6E210548FFF79AFD240100D0B8
:103C1000CD01001048A0001020A20010FC9F001051
:103C2000F0B5CE46474680B583B006000D00EFF3F1
:103C3000108872B6564B1B68002BFBD0BFF35F8F0A
:103C4000544B9A6834001034A300D758524B9F420B
:103C500007D0AF4200D199E00197504BFB1A2F2BB0
:103C600009D9424639003000FFF724FF03B0C0BC39
:103C7000B946B046F0BD3000FFF774FF8146002121
:103C80003000FFF78BFFBFF35F8FFCF7ECFA0028E3
:103C900001D0844211D10123019C9C430022A368DE
:103CA000AB4212D00622A256002A0DDB53009B180D
:103CB0009B002200394CE418F1E71E21384B394AA9
:103CC000FF313948FFF73CFD2200AB4257D10625B2
:103CD0006557002D39DB6B005B199A002F4B9B1841
:103CE0009A68A260DA79E27106229A56A2719B79EB
:103CF0005BB2002B10DABD200002A0806B005B19C4
:103D00009B00264AD318294A1178997115704946A3
:103D10003000FFF743FFA4E7201D6B005B199B00F9
:103D20001E4A9B181A1D9B88D90A1C2907D15B05BE
:103D30005B15023359005118FFF7D0FEDDE71C4B2D
:103D40001C4A99211848FFF7FBFC002812D1002AD1
:103D50000ED0FF239371184B9380144A1378A371EC
:103D6000164B0E49641A644163431B0D1370CEE772
:103D7000094FF2E7201D1249FFF7D4FEC7E7522191
:103D8000104B084AFF310848FFF7DAFC024F68E79A
:103D9000240100D000ED00E0CD0100106C040020F3
:103DA0005CA10010F0A10010FC9F00109D8E02206D
:103DB00044A1001010A2001000BDFFFFAAAA00003D
:103DC000A604002080A1001070B50400012606435F
:103DD0002D4BF31A2F2B28D8FCF745FA00282BD0AF
:103DE000EFF3108C72B6294B1B68002BFBD0BFF38E
:103DF0005F8F274D22002449521A524155432D0D01
:103E00006DB2244B9B6880001B58B3421BD000222C
:103E1000032A32D853009B189B001B49CB189B796F
:103E20005BB2AB421FD00132F2E7BB211A4B1B4AF7
:103E300049001B48FFF784FC7A211A4B174AFF31CF
:103E40001748FFF77DFC134B9B68174A1A50174B16
:103E50001A78A2711D70BFF35F8F0C4B00221A609D
:103E60008CF3108870BD0800530099188900411820
:103E7000FF268E710E4A8A80E9E7C5210D4B074A5D
:103E800049000748FFF75CFC6C040020240100D0C7
:103E9000AAAA000000ED00E088A10010BCA100105B
:103EA000FC9F0010B0A10010CD0100109D8E0220DB
:103EB00000BDFFFF2C9E00100022044B02E00449CD
:103EC00002C30132072AFAD97047C04600E400E075
:103ED00080808080F0B5CE4600B504000F0091468A
:103EE0001D000C2001F008FA060043011B1A99017D
:103EF000C91AC90009188901484601F0FDF90200F4
:103F0000103A98235B009A4233D86B1E062B36D8A2
:103F1000069B013B062B32D8069B9D4235D34B4670
:103F20001A09B24237D32D04069B1E03354323687A
:103F3000002B36DB254B9C4244D080225201244B7F
:103F40001A60244B1A60244B9B6811009943FAD1E4
:103F50002760A060231DC02292011A432123136011
:103F60002368002BFCDAE5600823136080BCB946A7
:103F7000F0BD1A4B1A4A16211A48FFF7E1FB1A4BFB
:103F8000174A19211748FFF7DBFB184B144A1F216A
:103F90001448FFF7D5FB164B114A22211148FFF7B1
:103FA000CFFB22683F231340BB42C3D1A3681B054C
:103FB0001B0D8342BED1E368EE22D2021340AB4216
:103FC000B8D1D3E780229201B9E7C04600C00240D1
:103FD00000E0004000F0004000C000403CA20010A3
:103FE00014A3001058A2001094A20010E0A2001028
:103FF000F8A2001080239B000343014AD36270475C
:1040000000800540024B1A68024B5A607047C04658
:10401000AC8B02200080054010B50200164B8020BA
:10402000C0051860154B1648186000290AD0154BBA
:10403000E021C9041960002A09D1124B802212061E
:104040001A6010BD0C4BE021C9041960F3E753015D
:104050009B1A9800801800010B4B186080235B04AA
:10406000984202D3084B094A1A60FFF7CBFF054B71
:104070008022D2051A60E4E700B005400820014024
:10408000FCFF010000A00540AC8B0220FFFFFF00F9
:1040900010B5030010000C4A8024E4051460002BC6
:1040A0000DD001221343094A094CD461094C5C40EC
:1040B0001462516293620021FFF7AEFF10BD034B03
:1040C0000022DA61F7E7C04600B0054000800540F5
:1040D000D3C007B02D3FF84F064BAA2212011A6039
:1040E0002F22DA60044B054A1A60024B5B68002BF2
:1040F000FBDA7047004002400060024000B0FA0066
:10410000704710B5002802D00B684968984710BD69
:104110000100002007E083001B185B00501C0860B2
:104120001078C01830380A681378303BDBB2092B9E
:10413000F1D97047F0B5DE4657464E464546E0B5E4
:1041400083B093461F000C9B9A460D9C0E9B99468C
:104150000F9B9B0703D0B8460F00060022E0019298
:10416000A34688464E46B9460700B44207D2551CBE
:104170004B4641462020B84701342A00F5E73D0070
:104180004F465C46019B9B46B1464646B8463700C3
:104190002E0007E0013C551C5346185D434639008C
:1041A000B0472A00002CF5D135003E0047460F9B52
:1041B0009B0707D4100003B0F0BCBB46B246A9462B
:1041C000A046F0BDB0464E46B9462F005D46531B93
:1041D000B342EFD2541C4B4641462020B847220040
:1041E000F5E7F0B5CE46474680B585B0944698468B
:1041F0000C9D0D9C0EAB1B789946109A119B129E3C
:10420000B7071CD4002B0CD0F7070AD54F46002F58
:1042100002D10C37374204D0013B02E030272F5542
:104220000134944201D21F2CF8D9F70707D59C42DC
:1042300005D21F2C03D830272F550134F5E7F70698
:1042400015D5770505D4002C03D0944224D09C4288
:1042500022D00F9A102A2BD00F9A102A30D00F9A02
:10426000022A35D01F2C02D830222A5501341F2CA7
:1042700005D84A46002A31D02D222A55013403960A
:1042800002930194009543466246FFF753FF05B041
:10429000C0BCB946B046F0BD621E012C06D00F9FCF
:1042A000102F01D01400D4E7023CD2E71400D0E76D
:1042B000B206D1D41F2CCFD878222A550134D1E7A9
:1042C000B206CCD51F2CCAD858222A550134C9E7CA
:1042D0001F2CC7D860322A550134C3E7720703D5B3
:1042E0002B222A550134CAE73207C8D520222A5585
:1042F0000134C4E7F0B5DE4657464E464546E0B5C4
:1043000093B081468A46089209931CAB10CB1B7868
:104310009B461E9D219B9846002C03D110234246AC
:104320009A4390468023DB0046461E4042461A428E
:1043300012D0002C22D000260EE03033D9B2771CE8
:104340000AAB99552900200000F0D6FFAC4216D3E5
:104350001F2F14D83E0004002900200000F0CCFFDD
:10436000CBB2092BE9D94246920605D54121C9189D
:10437000C9B20A39C9B2E2E76121F8E7270043462A
:104380000693209B05931F9B049303955B46029322
:1043900001970AAB0093099B089A51464846FFF7DC
:1043A00020FF13B0F0BCBB46B246A946A046F0BD04
:1043B000F0B5DE4657464E464546E0B595B0089006
:1043C00009910A920B931E9E1F9C20AB1B789B4663
:1043D000229B9946239D269B9A463300234303D173
:1043E000103352469A4392468023DB0057461F40C3
:1043F00052461A4219D0330023432DD0002714E02F
:104400003033DAB27B1C98460CABDA554A462B00A7
:104410003000210000F0B2FFA5421FD819D043465A
:104420001F2B1BD8474606000C004A462B003000C5
:10443000210000F0A3FFD3B2092BE1D95246920626
:1044400005D54122D218D2B20A3AD2B2DAE76122B5
:10445000F8E7B145E3D901E00023984653460693B7
:10446000259B0593249B04934B4603935B46029341
:10447000434601930CAB00930B9B0A9A0999089849
:10448000FFF7AFFE15B0F0BCBB46B246A946A0464A
:10449000F0BD0000F0B5DE4657464E464546E0B555
:1044A00091B083468A460C9298461A9C08941B9DAC
:1044B000099522002B002000290001F0EEF90028C8
:1044C00000D0E5E001225242D74B2000290001F044
:1044D000DFF9002800D0DBE001225242D34B20005C
:1044E000290001F0BFF9002800D0D1E0002200230C
:1044F000089E3000099D290001F0B4F9002800D081
:10450000DDE008980999069007918023DB001E9A48
:104510001A400D921E9A1A4201D106231C93069846
:10452000079904000D000A000600024300D1D1E003
:10453000080D4005400DBE4CA44660440A03120B12
:10454000BC4B13431F0001F0BBF9BB4ABB4B01F04E
:1045500046F9BB4ABB4B01F01BF904000D000022D9
:10456000B94B3000390001F00AF9B84AB84B01F0F4
:1045700036F902000B002000290001F009F901F0D2
:10458000B7F9814601F09CF904000D00B14AB24B25
:1045900001F025F90022B14B01F0FAF801F0A8F979
:1045A0000600AF4AAF4B2000290001F018F90400C3
:1045B0000D00300001F084F9AB4AAC4B01F00FF96B
:1045C00002000B002000290001F0D9F804000D00C2
:1045D00002000B0001F003F90A900B91A44BF318B1
:1045E00000261F0522002B002000290001F0D0F832
:1045F0000E900F9122002B0000208021C90501F0B0
:10460000BEF804000D0000229A4B0A980B9901F0A5
:10461000C8F80022984B01F0BBF802000B000A9882
:104620000B9901F0BEF80022944B01F0B1F80200A2
:104630000B000A980B9901F0B4F802000B0020005F
:10464000290001F0A5F802000B000E980F9901F067
:10465000A8F80022774B01F09BF832003B0001F0F4
:10466000BEF806000F0004000D00069A079B01F03B
:104670000FF9002830D001235B429C46E144002220
:104680007D4B3000390001F08CF804000D0023E070
:104690001E9B04931D9B03931C9B0293089A099BEA
:1046A0000092019343460C9A5146584600F0FCF89C
:1046B00011B0F0BCBB46B246A946A046F0BD0023EF
:1046C000002406930794069680231B069C466544A7
:1046D00007951AE7002399464B466333C62B1ED82D
:1046E00004261E9B1B0526D52B0023430FD0644AAE
:1046F000644B0698079901F0C3F8002879D000228E
:10470000614B0698079901F0ADF8002871D01C9B09
:104710004B4506DD4A46981A431E1C9303E00526C6
:10472000DFE700231C938023DB001E9A1A431E92AE
:104730000026002399461D9B9E4264D29F1B0223A4
:104740001E9A1A400A921E9A134202D0002E00D0DE
:1047500000274B46002B07D022002B000698079914
:1047600001F01FF80690079100220023089809998C
:1047700001F078F8002848D1444B1E9A1340049366
:1047800003971C9B0293069B079C0093019443464E
:104790000C9A5146584600F087F8002E00D187E762
:1047A0001E9B9B063DD54525441C434602005146B1
:1047B0002800D8474B46DA179B185340052205922C
:1047C000013E0496002203920A3202924A46D00F1A
:1047D000019000934346220051465846FFF78AFD58
:1047E0000A9B002B00D163E702005F460C9E1D9DD3
:1047F00054E01C9B002B9ED00D9B002B9BD01C9B40
:10480000013B1C9397E7002799E7069C079D220030
:10481000290080200006844661440B00069207931D
:10482000AAE76525C0E7C046FFFFEF7FFFFFEFFF68
:1048300001FCFFFF0000F03FFB799F501344D33F82
:10484000B3C8608B288AC63F0000F83F61436F639E
:10485000A787D23F71A379094F930A400000E03F38
:104860001655B5BBB16B0240EF39FAFE422EE63F5A
:10487000FF03000000002C4000002440000018400E
:104880002D431CEBE2361A3F80842E41FFF7FFFFD9
:10489000541C434651462020B8472200931BAB428C
:1048A000F6D3100004E7C046F0B5DE4657464E4644
:1048B0004546E0B595B00690079193469946209FEE
:1048C0001E9A1F9B1000190000F0E7FF002831D14D
:1048D00001225242BF4B1E981F9900F0C3FF0028CF
:1048E00037D101225242BC4B1E981F9900F0D0FFD5
:1048F00000283DD10022B94B1E981F9900F0C8FF37
:10490000002850D10022B64B1E981F9900F0AAFF34
:10491000002848D1002200231E981F9900F0A2FF12
:10492000002850D100239846229B5B0500D4B6E0B6
:10493000002458E0229B0393219B029303230193BD
:10494000A84B00934B465A4607990698FFF7F2FB8F
:104950000EE1229B0393219B029304230193A24B1C
:1049600000934B465A4607990698FFF7E3FBFFE092
:104970000423229A1A4022990B4210D09B4B002A02
:104980000FD0042222990391219902910192009360
:104990004B465A4607990698FFF7CCFBE8E0944B44
:1049A000EDE70322EEE7229B0493219B03930297FA
:1049B0001E9B1F9C009301944B465A4607990698EC
:1049C000FFF768FDD4E01E9A1F9B0020002100F035
:1049D000D6FE1E901F9101239846A5E70CAB30220E
:1049E0001A55013F01341F2C01D8092FF6D81E9803
:1049F0001F9900F07DFF050000F062FF02000B0030
:104A00001E981F9900F0BBFEFA007A4B9B181A689B
:104A10005B680A920B9300F0E2FE0890099100F0A7
:104A20008BFF060000F048FF02000B000898099970
:104A300000F0A5FE0890099100226F4B00F028FFBE
:104A400000282ED00136300000F036FF02000B00A7
:104A50000A980B9900F00CFF002801D001350026C0
:104A6000002F2CD1280000F02BFF02000B001E9815
:104A70001F9900F084FE06000F0000225E4B00F03C
:104A8000F1FE002846D100225B4B3000390000F0D7
:104A9000FFFE00283ED1EB073CD501353AE0062762
:104AA00046E70022544B0898099900F0DBFE0028E5
:104AB000D6D1002E01D0F307D2D50136D0E7AA46D1
:104AC0001F2C11D8013F0A21300000F015FC651C95
:104AD00030310CAB19550A21300000F00DFC092EC5
:104AE0000ED906002C00EBE755461F2C0CD87B1E78
:104AF000002F09D00CAA302111551F000134F4E712
:104B00002B0055461C00F0E71F2C03D80CAB2E22BF
:104B10001A5501341F2C10D80A21280000F0C4FBBC
:104B2000661C30310CAB19550A21280000F0BCFB83
:104B3000051E01D03400EDE734000323229A134010
:104B4000012B1CD01F2C06D84346002B32D00CABB7
:104B50002D221A550134229B0393219B0293019429
:104B60000CAB00934B465A4607990698FFF7E2FABA
:104B700015B0F0BCBB46B246A946A046F0BD219B8D
:104B8000002B13D04346002B02D10C3313420FD01D
:104B9000219B013B2193190003E00CAB30221A55F5
:104BA00001348C42CED21F2CF7D9CBE72199F8E7FC
:104BB0002199F6E7229B5B0704D50CAB2B221A55F3
:104BC0000134C8E7229B1B07C5D50CAB20221A5520
:104BD0000134C0E7FFFFEFFFFFFFEF7F65CDCD4161
:104BE00065CDCDC12CA3001030A3001024A300106C
:104BF00020A3001018A500100000E03FF0B5DE462D
:104C000057464E464546E0B593B082468B469046A1
:104C10001193002900D1EBE200275546119B18782B
:104C2000002800D1E7E2252809D07C1C43463A0041
:104C30005946A847119B013311932700EEE7013332
:104C400011930024119A11780B00203BD8B2102840
:104C500003D88300D048C3589F460B00303BDBB2DB
:104C6000092B2CD92A292FD000230A93119B1A78BB
:104C70002E2A39D000239A46119A1378683BD9B26C
:104C8000122976D88B00C549CB589F4601231C4377
:104C900001321192D6E702231C4301321192D1E76F
:104CA00004231C4301321192CCE708231C43013238
:104CB0001192C7E710231C4301321192C2E711A8D9
:104CC000FFF726FA0A90D1E71C9B1A1D1C92186860
:104CD000002804DB0A90119B01331193C6E70223DD
:104CE0001C4343420A93F6E78022D20014435A1C25
:104CF00011925A781300303BDBB2092B04D92A2ACF
:104D000007D000239A46B7E711A8FFF701FA8246B9
:104D1000B2E71C9B1A1D1C921868002804DB82460F
:104D2000119B01331193A7E70020F8E780235B0074
:104D30002343511C119152786C2A01D01C0018E0B9
:104D4000C0239B001C430131119112E080232343B7
:104D5000511C11915278682A01D01C0009E0C0232F
:104D60001C430131119104E080235B001C4301329C
:104D70001192119B18780300253BDAB2532A00D90F
:104D80002CE29300864AD3589F4680239B001C4305
:104D900001321192EDE780235B001C430132119236
:104DA000E7E7782809D0582838D06F2838D062280B
:104DB00038D010239C430A2600E01026582833D010
:104DC000692803D0642801D00C229443630501D5DF
:104DD0000122944369282AD0642828D0A30500D54D
:104DE0009FE0E30500D5B8E0630600D4CAE01C9A52
:104DF000111D1C911168FF220A4005940A9B04931F
:104E000053460393029600230193009243463A00CF
:104E100059462800FFF76EFA070027E01026CDE775
:104E20000826CBE70226C9E720221443C8E7A305DA
:104E300020D4E30550D4630666D51C9A111D1C913D
:104E40001168FF220A40D317D118594005940A9BD4
:104E50000493534603930296D20F01920091434666
:104E60003A0059462800FFF745FA0700119B013325
:104E70001193D3E61C9BDA1D07218A4311000831E8
:104E80001C91116853689C46DB170C930D930C9A88
:104E90000D9B100048400E90624653400F930E98B1
:104EA0000F990C9A0D9B801A99410E900F910894BE
:104EB0000A9B079353460693049600230593634683
:104EC000DA0F02920090019143463A0059462800B9
:104ED000FFF76EFA0700C9E71C9A111D1C911268B2
:104EE000D317D118594005940A9B04935346039352
:104EF0000296D20F0192009143463A00594628008B
:104F0000FFF7F8F90700B1E7230605D51C9A111D34
:104F10001C910023D25E96E71C9A111D1C91126809
:104F200091E71C9BDA1D07218A43110008311C916F
:104F300008940A9B0793534606930496002305930F
:104F40000293136854680093019443463A0059460B
:104F50002800FFF72DFA070088E71C9A111D1C9105
:104F600005940A9B049353460393029600230193EE
:104F70001368009343463A0059462800FFF7BAF9F0
:104F8000070073E723060DD51C9A111D1C911268AA
:104F90001204120C31E7C04638A300107CA30010A5
:104FA000C8A300101C9A111D1C91126825E7462801
:104FB0001AD01C9B0733072293431A0008321C9215
:104FC00004940A9A0392524602925C681B6800930A
:104FD000019443463A0059462800FFF765FC070054
:104FE000119B0133119319E620231C43E1E7672845
:104FF00001D0472802D180231B011C43452801D042
:10500000472801D120231C431C9B073307229343CD
:105010001A0008321C9204940A9A03925246029291
:105020005C681B680093019443463A005946280087
:10503000FFF730FA0700119B01331193EEE50223CD
:105040001A002240924623421FD001241C9B1A1DA5
:105050001C927A1C9146187843463A005946A84754
:105060005346002B16D1119B013311934F46D5E5C2
:10507000561C434659462020B847230032005C1C8A
:105080009D42F5D83D001700E0E701233A002F00CC
:105090000A9DF4E74A46A9460A9D06E0571C434686
:1050A00059462020C84734003A00661CA542F5D86E
:1050B0004D469146D7E71C9B1A1D1C921B689946CA
:1050C0005346002B00D1013B4E4601E00136130050
:1050D0003278002A02D05A1E002BF7D14B46F21A22
:1050E00010928023DB0026001E401C4203D0524554
:1050F00001D95346109302231A0022400B922342F7
:1051000005D03A0037004C46A946554620E03A0003
:10511000109B5F46B3462E0006E0551C43463900FF
:105120002020B04723002A005C1C0A999942F4D839
:1051300035005E46BB46109437004C46A94655469E
:1051400006E01D000134561C43465946C84732004C
:105150002078002804D0002FF4D06B1E002DF0D151
:1051600017004D460B9B002B03D1119B013311936C
:1051700054E50A9F109B06E0561C434659462020E2
:10518000A847230032005C1C9F42F5D81700ECE7CB
:1051900021231C431C9B1A1D1C921B680093059421
:1051A000082304935346039310230293002301938F
:1051B00043463A0059462800FFF79CF80700119B28
:1051C000013311932AE57C1C43463A0059462520B9
:1051D000A847119B0133119327001FE57C1C434610
:1051E0003A005946A847119B01331193270015E552
:1051F0000A4B9A4610E5AA46474502D343465A1E33
:1052000000E03A00434659460020D047380013B02A
:10521000F0BCBB46B246A946A046F0BD0141001015
:1052200000B585B0029003910121009313004A421A
:1052300002A90248FFF7E2FC05B000BD03410010DF
:1052400001480421014B1847C0040020715200108E
:1052500010B5010018231B8814221088984710BD30
:1052600010B5010018231B8816221088984710BD1E
:10527000F0B5C64600B507000E000025012398468C
:1052800000E00135B5420AD2AC003C192068FFF7B6
:10529000DFFF20600028F4D100239846F1E7404664
:1052A00080BCB846F0BD0000124A936F9B0815D22F
:1052B0009066D166002905D0FFE7FFE7FFE7516F51
:1052C000106F704704B580210906C21751400028AD
:1052D00000D0C84304F09CF9002104BDF0B5146E61
:1052E000556E576F166FFFF7E3FF146655665767E5
:1052F0001667F0BD000000D0114A936F9B0813D2CF
:1053000010665166002905D0FFE7FFE7FFE7516F00
:10531000106F704704B5002801D00020C04304F08E
:1053200077F9002104BDC046F0B5146E556E576F75
:10533000166FFFF7E5FF1466556657671667F0BDF1
:10534000000000D094464E4A926F9208624601D205
:1053500030E0C046F0B54A4EB56F6D08FCD3346EF0
:10536000756E776F366F00F025F89446444A1466E0
:105370005566576716676246F0BDC0469446404A78
:10538000926F9208624601D258E0C046F0B53C4E9A
:10539000B56F6D08FCD3346E756E776F366F00F0A5
:1053A0004DF89446364A1466556657671667624646
:1053B000F0BDC046002B24DB11D000293EDA00B539
:1053C000C943404200D1013100F038F8C94340429E
:1053D00000D10131DB43524200D1013300BD002A2C
:1053E000EBD1002801D1002905D00020C90FC90741
:1053F00001D1C043410800B504F002F900220023A6
:1054000000BD00B500290ADBDB43524200D1013365
:1054100000F014F8C943404200D1013100BDC94336
:10542000404200D10131DB43524200D1013300F050
:1054300005F8DB43524200D1013300BD002923D1DE
:10544000002B18D1002A0CD0BC460D4F38667A6666
:1054500000210023FFE7FFE7FFE77A6F386F674619
:105460007047002801D00748010000B504F0C8F8D3
:105470000022002300BD02000B0000200021704725
:10548000000000D0FFFFFFFF002B00D0BFE0130C97
:1054900028D1002AE7D080B4114F39667A66FFE739
:1054A000FFE730B4040C7B6F396F1B0423433B666A
:1054B0007A66FFE7FFE7FFE7C04684B27B6F3D6F88
:1054C0001B0423433B667A66FFE7FFE7C0460023E1
:1054D0002C042D0C7A6F386F00196941B0BC7047ED
:1054E000000000D0F0B594460025140E01D1120240
:1054F0000835140F01D112010435940F01D1920027
:105500000235D40F01D152000135D40B0134254F9F
:105510007C66254C3C660E0C93B2FFE7FFE7FFE785
:105520003C6F6643360C7703BE467343DF0B5B0468
:10553000C01AB941130C7343DB18C91ACE0866436D
:10554000360CB64493B273431F0F1B01C01AB94106
:10555000130C73431F0B1B05C01AB941860D8F0234
:105560003E436643360C092D24DB520A7243801AEF
:105570007703460A6643360C16235B1BDE40DF408A
:10558000BF1964466643821B70460435063301002A
:10559000D940A840C01900D30131A24206D200234D
:1055A000F0BD0000000000D0FFFFFFFF121B013024
:1055B000F3D3F1E709277F1BFE406446A2B2724392
:1055C000801A00D20139220C7243130C1204821A81
:1055D00099410B007046043513370100F940A8408B
:1055E000801900D30131002B02D1A2420AD2F0BDB2
:1055F000013000D30131121BFAD2013BF8D1A24293
:1056000000D2F0BD013000D30131121BF7E7F0B535
:105610001C0C00D080E00CB400251C0A04D11B0235
:10562000160E3343120208351C0B04D11B01160F52
:105630003343120104359C0B04D19B00960F334376
:1056400092000235DC0B02D192185B4101351C003F
:10565000971864410134464F7C66464C3C660E0CFC
:10566000FFE7FFE7FFE7C0463C6F6643360C770372
:10567000BE4697B27743C01B00D20139C01B00D28F
:1056800001399FB27743C91BC91B170C77437E04AE
:10569000FF0B801BB941CE086643360C0C2D33DB63
:1056A000B644120B1F053A431B0B97B27743C01B3E
:1056B00000D201399FB27743C91B170C77433E04D0
:1056C0003F0C801BB941860D8F023E43664329275C
:1056D0007F1BFE400C3D7746AF40BF1930BCA2B2E5
:1056E000ABB272437343801A9941220C7243130C7C
:1056F0001204801A994102000B000137001BA941D6
:10570000F9D2781E0021F0BD0C277F1BFE407746A2
:105710007F0BAF40FF19E0E700245D1C07D0144F5A
:105720007D663966FFE7FFE7FFE7FFE73C6F95B26D
:105730009EB265436643401BB141150C1E0C654388
:10574000664336042F0C3E432D04401BB141994261
:1057500004D202000B0020000021F0BD01D19042D4
:10576000F7D3801A994101349942F2D3F6E7000049
:10577000000000D0FFFFFFFF48404140484018B400
:105780001B4B5B68FC46019308BD04DF535A0010B5
:1057900018B4174B1B68FC46019308BD00DF5D5A27
:1057A00000109446134A926F920809D2624618B4C8
:1057B0000F4BDB68FC46019308BD0CDF155D001044
:1057C0000C4AF0B5146E556E576F166F6246FFF7B0
:1057D000EEFF084A1466556657671667F0BD18B4A1
:1057E000034B9B68FC46019308BD08DFB95B0010C2
:1057F000508C0220000000D0FFB550404240504085
:1058000059404B40594000E0FFB5154F4C00640D26
:1058100003D0BC4204D10C0314D80020090D0905A3
:105820005C00640D03D0BC4204D11C030AD80022E2
:105830001B0D1B0501264B4009D44B4003D58B4261
:1058400000D18242FFBD9942FCD19042FFBD0B4383
:10585000DB1803431343F5D0C9434918FFBD0000CB
:10586000FF07000000B5FFF7CFFF804100BDC04635
:1058700000B5FFF7C9FF01D9002000BD012000BD20
:1058800000B5FFF7B9FF01D9002000BD012000BD20
:1058900000B5FFF7B1FF804100BD012040054A007F
:1058A000121804D85A00121801D80020704701209D
:1058B00070470020704700000021002805D1704784
:1058C000C1174840401AFAD0C90713B5064B1B68E8
:1058D00098470CBC441CA2401005120B0349091B3D
:1058E00009051943114310BD508D02201F0400000B
:1058F00010B54C00620D8023D218DB00D21A5B0574
:105900007E2A10DD9E3A13DACC17090349081943A1
:105910005242D140640001341532202A05DAD040C9
:105920000843604310BD002010BD0846604310BD11
:10593000C80FC018013810BD18B4044B5B6AFC4690
:10594000019308BD24DFC55E00100000508C0220CA
:1059500070B513231C78012C14D0012C14DC022CFC
:1059600002DC1F4A1F4B9A641F48FFF771FC1F4B54
:10597000186070BD99001A481A4A885001331F2BCD
:10598000F8D9EAE70023FAE71948FFF769FC0500B0
:105990001848FFF765FC023803789B007F2B19DD60
:1059A000802229000F4800F007FC022CD7D1124BAF
:1059B0001A88B5231B029A4209D1104B1A88104B42
:1059C0009A4204D10F4B1A880F4B9A42C7D000203D
:1059D000FDF750FF0D4B0E4A32210E48FDF7B0FE89
:1059E000195A0010508C02204C330000508D0220B8
:1059F000534400005346000054380000D8380000DB
:105A0000494600009C3800005946000068A5001077
:105A100010A60010C8A5001007B56046002800D1E8
:105A200000BE01880A0A0230DF2AFAD1C9B2820810
:105A300004D3028840880004104300E00068024A52
:105A40005050039007BD0000508C02200FB403BCDF
:105A50000CBCF0B50124E407634000E0F0B50C0D88
:105A6000CF0F661E3605891B640503D3C943404228
:105A700000D30131640D03D0661CF60A07D0E41B85
:105A800000207F00791C89078912803C24031D0DAA
:105A9000DF0F6E1E36059B1B6D0503D3DB435242A1
:105AA00000D301336D0D03D06E1CF60A07D0ED1B39
:105AB00000227F007B1C9B079B12803D2D032F1B28
:105AC000661B58D4A446202E46DA20371400BC406A
:105AD0001D00BD40F24033412A4380185941CB0F8D
