:020000041000EA
:1000000000B5324B212058609868022188439860DF
:10001000D860186158612E4B002199600221596106
:100020000121F02299502B49196001219960352056
:1000300000F044F80222904214D00621196600F024
:1000400034F8196E01211966002018661A6600F04E
:100050002CF8196E196E196E052000F02FF8012189
:100060000842F9D1002199601B49196000215960AB
:100070001A491B48016001219960EB211966A021F2
:10008000196600F012F800219960164914480160C1
:100090000121996001BC002800D000471248134993
:1000A000086003C880F30888084703B5996A0420EC
:1000B0000142FBD001200142F8D103BD02B5186610
:1000C0001866FFF7F2FF186E186E02BD00000240BE
:1000D000000000180000070000035F00212200005C
:1000E000F4000018222000A00001001008ED00E03C
:1000F00000000000000000000000000074B24E7A12
:1001000000200420F7010010C3010010C5010010F9
:10011000C1010010C1010010C1010010C101001097
:10012000C1010010C1010010C1010010C701001081
:10013000C1010010C1010010C9010010CB01001065
:10014000CD010010CD010010CD010010CD01001037
:10015000CD010010CD010010CD010010CD01001027
:10016000CD010010CD010010CD010010CD01001017
:10017000CD010010CD010010CD010010CD01001007
:10018000CD010010CD010010CD010010CD010010F7
:10019000CD010010CD010010CD010010CD010010E7
:1001A000CD010010CD010010CD010010CD010010D7
:1001B000CD010010CD010010CD010010CD010010C7
:1001C00000BE00BE00BE00BE00BE00BE00F04BF888
:1001D000103800BEF2EB8871DCAE001000AF0010EA
:1001E0003402001090A31AE700202149086006C8D5
:1001F00081F3088810471F48006800282FD10DA4FC
:100200000ECC002902D000F012F8F9E71A491B4A77
:10021000002000E001C19142FCD1194988471949E9
:1002200088471949884700BEFDE701C901C29A42C3
:10023000FBD3704700AF0010C0000020480500202D
:1002400088B30010000004200000042088B30010D0
:1002500000100420001004200000000070470B482C
:1002600005F09AF90047EFF30580C0B2704700002F
:1002700008ED00E0000000D000800020AC8E0220DD
:10028000C53E001005210010813E001057560000A9
:1002900006005250ABB3605344A500100600525004
:1002A000861C030254A50010060052505422A29D41
:1002B00064A5001005005250DE65F46888B3001094
:1002C000F8B5C04610B5064C2378002B07D1054B76
:1002D000002B02D0044800E000BF0123237010BDB2
:1002E000088102200000000010940010044B10B59B
:1002F000002B03D00349044800E000BF10BDC046F6
:10030000000000000C8102201094001070B5040061
:1003100001238B40DDB2013DEDB2FF20002307E059
:100320008021490119435A00084E91530133DBB231
:100330001F2B09D82A001A40A242F1D05A000349C3
:10034000034850521800F1E770BDC04624810220D6
:10035000A0A0FFFF10B5052003F05CFA244B19683C
:100360008B01A022D205944663441B69DB0132D481
:100370000122524211001F4B18688301A024E4059A
:10038000A44663441B69DB0127D408001A4B196893
:100390008B01A024E405A44663441B69DB011FD440
:1003A0000100164B18688301A024E405A4466344A9
:1003B0001B69DB0117D40800431C0BD08001A0236C
:1003C000DB059C466044806880239B01181A8018D6
:1003D00001380BD410BD0022CDE780229201D5E771
:1003E0008022D201DDE7C022D201E5E70448F1E72F
:1003F0006C87022070870220748702207887022091
:10040000FF7F000070B50124A24B1C70FFF7A2FF14
:10041000A14B1860A14B1A689440A021C905A04BBC
:10042000CC509301A021C9058C466344DB68DB01F5
:10043000F7D49C4B1A680123934008009849435015
:100440009301A021C9058C466344DB68DB01F7D426
:10045000954B1A680123934008009149435093013A
:10046000A021C9058C466344DB68DB01F7D48F4BC0
:10047000196801238B406046894A83508B01A02272
:10048000D20594466344DA6880235B0414001C4060
:100490001A42F3D1864D2A68303280239B011343E0
:1004A00001221A600021072002F09AF82A68814B85
:1004B00018680430804B9A4200D0082400190021AB
:1004C00002F08EF87D49072002F0F6F9734B1A68A6
:1004D0007B4B0C2A00D9C4E07A490B40D20213436B
:1004E0000C229343043A1343774A1340774A13404C
:1004F000774A13400122134376490B4002218B4374
:100500009343664A10688201A021C9058C46624463
:100510000021116051609160136108F0E9FC614BAA
:100520001A68674B0C2A00D9A1E066490B40D20239
:1005300013430C229343043A1343634A1340634A20
:100540001340634A13400122134362490B400221C6
:100550008B439343534A10688201A021C9058C46FE
:1005600062440021116051609160136108F0C0FC89
:100570004D4B1A68524B0C2A00D97EE051490B4072
:10058000D20213430C229343043A13434E4A1340BE
:100590004E4A13404E4A1340012213434D490B402B
:1005A00002218B439343404A10688201A021C90570
:1005B0008C4662440021116051609160136108F023
:1005C00097FC3A4B1A683E4B0C2A5CD83D490B40CD
:1005D000D20213430C229343043A13433A4A134082
:1005E0003A4A13403A4A134001242343394A1340FC
:1005F00002229343A3432D4A10688201A021C9051A
:100600008C4662440021116051609160136108F0D2
:100610006FFC274D2868274B1968036822008A4021
:100620009343036008F014FD2B4B1A6828682B498C
:1006300008F058FD2A4D28682A4E03683268944015
:10064000A34303600022316808F096FD31682868F2
:1006500008F0FEFC244B1A682868244908F042FD83
:1006600070BD234B234AC421234803F00DFC204BCB
:10067000204AC421204803F007FC1D4B1D4AC42119
:100680001D4803F001FC1A4B1A4AC4211A4803F012
:10069000FBFBC0469C8E0220A88B02206C870220A8
:1006A00044040000708702207487022078870220AB
:1006B000D4860220588E022000002050050400102D
:1006C00010801F00FF87FFFF3FF8FFFFFFFFBFFF06
:1006D000FFFFDFFFFFFF7FFFD08602203095001075
:1006E0007C8E02205C8E0220788E02203C0400204A
:1006F00010940010789500103094001070B501240B
:10070000A14B1C70FFF726FEA04B1860A04B1A6887
:100710009440A021C9059F4BCC509301A021C9054D
:100720008C466344DB68DB01F7D49B4B1A680123DA
:1007300093400800974943509301A021C9058C4676
:100740006344DB68DB01F7D4944B1A6801239340C0
:100750000800904943509301A021C9058C46634489
:10076000DB68DB01F7D48E4B196801238B406046B0
:10077000884A83508B01A022D20594466344DA68EC
:1007800080235B0414001C401A42F3D1854D2A6873
:10079000303280239B01134301221A60002107207D
:1007A00001F01EFF2A68804B186804307F4B9A4284
:1007B00000D008240019002101F012FF7C49072015
:1007C00002F07AF8724B1A687A4B0C2A00D9C3E00F
:1007D00079490B40D20213430C229343043A13434A
:1007E000764A1340764A1340764A13400122134357
:1007F00075490B4002218B439343654A106882017F
:10080000A021C9058C4662440021116051609160AD
:10081000136108F06DFB604B1A68664B0C2A00D917
:10082000A0E065490B40D20213430C229343043AE3
:100830001343624A1340624A1340624A1340012242
:10084000134361490B4002218B439343524A106882
:100850008201A021C9058C466244002111605160CB
:100860009160136108F044FB4C4B1A68514B0C2A01
:1008700000D97DE050490B40D20213430C22934330
:10088000043A13434D4A13404D4A13404D4A134016
:10089000012213434C490B4002218B4393433F4AAF
:1008A00010688201A021C9058C46624400211160B4
:1008B00051609160136108F01BFB394B1A683D4B86
:1008C0000C2A5BD83C490B40D20213430C229343C1
:1008D000043A1343394A1340394A1340394A134002
:1008E00001242343384A134002229343A3432C4A52
:1008F00010688201A021C9058C4662440021116064
:1009000051609160136108F0F3FA264D2868264B78
:100910001968036822008A409343036008F098FB3B
:100920002A4B1A682A49286808F0DCFB2868294EF7
:10093000036832689440A34303600022316808F0E2
:100940001BFC3168286808F083FB234B1A68286871
:10095000224908F0C7FB70BD214B224AC42122481E
:1009600003F092FA1E4B1F4AC4211F4803F08CFA71
:100970001B4B1C4AC4211C4803F086FA184B194A29
:10098000C421194803F080FA9C8E0220A88B022013
:100990006C870220440400007087022074870220C4
:1009A00078870220D4860220588E02200000205032
:1009B000FD06001010801F00FF87FFFF3FF8FFFFBC
:1009C000FFFFBFFFFFFFDFFFFFFF7FFFD08602209B
:1009D000149500105C8E0220788E022020040020E6
:1009E00010940010789500103094001070B5012418
:1009F0009D4B1C70FFF7AEFC9C4B18609C4B1A681B
:100A00009440A021C9059B4BCC509301A021C9055E
:100A10008C466344DB68DB01F7D4974B1A680123EB
:100A200093400800934943509301A021C9058C4687
:100A30006344DB68DB01F7D4904B1A6801239340D1
:100A400008008C4943509301A021C9058C4663449A
:100A5000DB68DB01F7D48A4B196801238B406046C1
:100A6000844A83508B01A022D20594466344DA68FD
:100A700080235B0414001C401A42F3D1814D2A6884
:100A8000303280239B01134301221A60002107208A
:100A900001F0A6FD2A687C4B186804307B4B9A4213
:100AA00000D008240019002101F09AFD78490720A0
:100AB00001F002FF6E4B1A68764B0C2A00D9B2E0A7
:100AC00075490B40D20213430C229343043A13435B
:100AD000724A1340724A1340724A13400122134370
:100AE00071490B4002218B439343614A1068820194
:100AF000A021C9058C4662440021116051609160BB
:100B0000136108F0F5F95C4B1A68624B0C2A00D9A6
:100B10008FE061490B40D20213430C229343043A05
:100B200013435E4A13405E4A13405E4A134001225B
:100B300013435D490B4002218B4393434E4A106897
:100B40008201A021C9058C466244002111605160D8
:100B50009160136108F0CCF9484B1A684D4B0C2A90
:100B600000D96CE04C490B40D20213430C22934352
:100B7000043A1343494A1340494A1340494A13402F
:100B80000122134348490B4002218B4393433B4AC4
:100B900010688201A021C9058C46624400211160C1
:100BA00051609160136108F0A3F9354B1A68394B15
:100BB0000C2A4AD838490B40D20213430C229343E3
:100BC000043A1343354A1340354A1340354A13401B
:100BD00001242343344A134002229343A343284A67
:100BE00010688201A021C9058C4662440021116071
:100BF00051609160136108F07BF9224B1868224B19
:100C0000196803688C40A343036008F021FA274B5E
:100C10001B78002B1FD0264B1A681A4B18682549E1
:100C200008F060FA70BD244B244AC421244803F024
:100C30002BF9214B214AC421214803F025F91E4BF1
:100C40001E4AC4211E4803F01FF91B4B1B4AC42136
:100C50001B4803F019F9164B1A680A4B1868194912
:100C600008F040FADEE7C0469C8E0220A88B0220E6
:100C70006C870220440400007087022074870220E1
:100C800078870220D4860220588E0220000020504F
:100C9000ED09001010801F00FF87FFFF3FF8FFFFE6
:100CA000FFFFBFFFFFFFDFFFFFFF7FFFA68E0220DA
:100CB000D0860220609500101094001078950010E6
:100CC0003094001048950010F8B5012008F018F98C
:100CD000CC4C2060012008F013F9CB4B18600120A8
:100CE00008F00EF9C94B1860012008F009F9C84B4B
:100CF00018602168C74A0C2900D932E1C64B1A4056
:100D0000C9020A430C20824308210A43C34B1A40FC
:100D1000C34B1A40C34B1A4001231A43C24B1A401B
:100D200002239A430E339A43130020221343834332
:100D30000B43B54A12680C2A00D918E1B64919408C
:100D4000D3020B43B94A1068B94A12680432B94950
:100D5000884200D111E1082152183F2A00D90EE142
:100D6000B5491940D3030B43AC4A1340F822D200D3
:100D70001343A54A1068A7490C2800D905E1A64AE3
:100D80001140C00201430C24A14308200143A34A9F
:100D90001140A34A1140A34A114001221143A24A23
:100DA0001140022291430E3291430A0020210A434E
:100DB000A2430243954909680C2900D9EBE0964803
:100DC0001040CA02024399490C68994909680431E4
:100DD0009848844200D1E4E0082009183F2900D94E
:100DE000E1E095481040CA0302438C490A40F821CB
:100DF000C9000A4385490C6886480C2C00D9D8E004
:100E000085490840E40220430C25A84308242043D8
:100E1000824908408249084082490840012108432C
:100E200081490840022188430E3188430100202077
:100E30000143A9432143764800680C2800D9BEE04D
:100E4000754C0C40C1022143784805687848006819
:100E50000430784CA54200D1B7E0082400193F289F
:100E600000D9B4E0744C0C40C10321436B480140ED
:100E7000F820C000014366480568664C0C2D00D977
:100E8000ABE065480440ED022C430C26B443082532
:100E90002C436248044062480440624804400120F8
:100EA000044361480440022084430E308443200000
:100EB00020242043B0432843524C24680C2C00D9F2
:100EC00091E0554D0540E0022843584C2668584CA7
:100ED00024680434574DAE4200D18AE008256419D5
:100EE0003F2C00D987E0544D0540E00328434B4C8C
:100EF0002040F824E4002043454C27684B4C2668EA
:100F00004B4C24680834A5007519BF01A024E405E2
:100F1000A44667443D60494C7C608026B601BE60B3
:100F200038613A480068800160440560444FE71921
:100F300047608660016134490968890161440D6038
:100F40004048201848608E600A612E4A126892015B
:100F5000624415603C498C46644454609660D3609A
:100F6000F8BD3A4B3A4AC4213A4802F08DFF374B5C
:100F7000374ABC31374802F087FF0021ECE6364B98
:100F8000364AB621334802F07FFF304B304AC42145
:100F9000304802F079FF2D4B2D4AC4212D4802F034
:100FA00073FF002019E72C4B2C4AB621294802F088
:100FB0006BFF264B264AC421264802F065FF234BCF
:100FC000234AC421234802F05FFF002446E7224B56
:100FD000224AB6211F4802F057FF1C4B1C4AC4216D
:100FE0001C4802F051FF194B194AC421194802F05C
:100FF0004BFF002573E7184B184AB621154802F03D
:1010000043FFC0466C87022070870220748702204D
:101010007887022010801F00FF87FFFF3FF8FFFF47
:10102000FFFFBFFFFFFFDFFFFFFF7FFFD486022030
:10103000588E022000002050FF7FE0FF00000220B9
:101040000080FFFF0000FFFF0080FEFF10940010F3
:1010500078950010309400107C9400109495001046
:1010600010B50D4B1B78002B0CD1EFF3108472B62A
:101070000A4B1B78002B06D0012B07D0022B08D07F
:1010800084F3108810BDFFF7B1FCF9E7FFF736FBDA
:10109000F6E7FFF7B7F9F3E79C8E0220A58E022052
:1010A000F0B5DE4657464E464546E0B595B002904F
:1010B0000D00140003931EAB1E781FAB1A789346E5
:1010C00020AB1F7821AB1A8890460A1980231B0297
:1010D0009A4200D305E23D4B984200D909E2182E0E
:1010E00000D908E25A460F2A00D906E2052F00D996
:1010F00005E2002F00D104E2BB18102B01DD002017
:10110000F0E1802292020021314804F0F5FE314BDB
:101110001D60314B1C60314B1E70314B01221A7027
:101120000023039806E0C25C2E49895C2E4AD15404
:101130000133DBB2B342F6D32A4B5A469B5C1A000A
:1011400003932A4B1A70052003F052F804F054FE62
:101150008146029B580004F04FFE011C484604F0F3
:1011600030FE8146224D234B1D60280007F0E6FF2C
:10117000214B9B462148186007F0E0FF5B461B6847
:10118000AB420ED00721002001F0E2F8194B1A689B
:10119000174B9A4207D00721012001F0D9F800250A
:1011A00008E00621EFE70621F6E7062101F0D0F876
:1011B0000135EDB2B54223D20E4B1A680A4B585D89
:1011C0000B4B9A42F1D00721F0E7C04600E1F5054C
:1011D00000800020A08B02209C8B0220A48E022085
:1011E000A38E0220AC950010848B0220A88E0220D2
:1011F00000002050D48602207C8E02200000305057
:10120000C14D0121286807F033FF0200BF4B9A4609
:101210001860286853009B18DB00D033C318802166
:1012200049010B43802109061960196003680432E3
:10123000012191400B430360B54907F037FFB54BDF
:101240009B461860534619682868002300931D3395
:10125000022207F0CBFF5B461B689A461022002152
:1012600008A804F049FE80256D020895F8235B026A
:1012700009938023DB020A93C0231B030A931022E5
:1012800008A904A804F03EFE5346991CDA1C059BED
:101290000293A14B02980340C9010B43120313436D
:1012A0000593102204A90CA804F02CFE0F9B0293B6
:1012B0009A4B029A13401D430F95484604F0C4FD13
:1012C00085B2002D00D108E1280004F095FD011C35
:1012D000484604F070FD8721C90504F086FD04F03E
:1012E000B3FDC3B21B022D041D430C950E9B02934C
:1012F0008B4A1A408B4B13430E930D9B02938A4AE1
:101300001A4080235B0413430D937F4D2A6811001C
:10131000303180239B011943012008602D32FF32B8
:101320001343802252001A608049063001F082F98E
:101330000121072001F054F92A68744B1868043021
:101340007B4B9A4200D1CAE00823C018012101F06A
:1013500047F9704B1A686D4B9A466B4B9B460CAB2A
:10136000514609685846006807F078FF714D012121
:10137000286807F07DFE704B994618602A68430084
:101380001B18DB00D033D318802149010B43802187
:1013900009061960196013680430012181400B436C
:1013A00013604346D8B23900FEF7B0FF634928689E
:1013B00007F07CFE624B984618604B461968286817
:1013C00001230093002207F011FF4B46196828689B
:1013D000002300933B00039E320007F007FF4346C3
:1013E0001F681022002108A804F086FD80256D02E8
:1013F0000895F8235B0209938023DB020A93C0233C
:101400001B030A93102208A904A804F07BFD3B00EB
:101410001F331A00059B02933F4B02990B40FF01BB
:101420003B4312031343059307990291CA00D20864
:10143000802189050A430792424A134005931022EE
:1014400004A910A804F05EFD102210A90CA804F055
:1014500059FD0F9B0293314B02990B40F6031E433B
:101460000F96394B1E408023DB041E430F96374BEB
:101470001E400F960C95FFF727FC5B461D685346F0
:1014800018682A68012383409A4313432B60013C68
:101490006A680100103101238B401342F8D10430F7
:1014A00080004451264B1A68234C224D0CAB216816
:1014B000286807F0D3FE296820680A680123834062
:1014C0009A4313430B600023214A1370214A13707F
:1014D000214B02221A70012004E0002302E70023BE
:1014E00033E7002015B0F0BCBB46B246A946A04683
:1014F000F0BD0020F6E70020F4E70020F2E700202E
:10150000F0E70020EEE7C046D4860220588E022085
:1015100030950010D08602207F00FEFFFF7FF0FF95
:10152000FFFF0AFE0000D101FFFFFFE005040010ED
:10153000000020507C8E02205C8E02203C040020A3
:10154000788E0220FFFFFF9F1FFCFFE3FF83FFFF5A
:101550009C8E02209D8E0220A58E0220F0B5DE46D4
:1015600057464E464546E0B595B002900D00140032
:1015700003931EAB1E781FAB1A78934620AB1F78DF
:1015800021AB1A8890460A1980231B029A4200D385
:10159000F9E13A4B984200D9FDE1182E00D9FCE15F
:1015A0005A460F2A00D9FAE1102F00D9F9E1002F8D
:1015B00000D1F8E1BB18102B01DD0020E4E180220E
:1015C000920200212E4804F097FC2E4B1D602E4BFA
:1015D0001C602E4B1E702E4B01221A7000230398A4
:1015E00006E0C25C2B49895C2B4AD1540133DBB243
:1015F000B342F6D3274B5A469B5C1A000393274B02
:101600001A70052002F0F4FD04F0F6FB8146029BFF
:10161000580004F0F1FB011C484604F0D2FB81465F
:101620001F4B9B461F4D1D60280007F087FD5B4642
:101630001B68AB420ED00721002000F089FE184B3A
:101640001A68184B9A4207D00721012000F080FE4B
:10165000002508E00621EFE70621F6E7062100F065
:1016600077FE0135EDB2B5421ED20D4B1A680A4B1A
:10167000585D0C4B9A42F1D00721F0E700E1F505E7
:1016800000800020A08B02209C8B0220A48E0220D0
:10169000A38E0220AC950010848B0220A88E02201D
:1016A000D486022000002050C04D0121286807F098
:1016B000DFFC0200BE4B9A461860286853009B1856
:1016C000DB00D033C318802149010B438021090678
:1016D0001960196003680432012191400B430360D3
:1016E000B44907F0E3FCB44B9B46186053461968B5
:1016F0002868002300931D33022207F077FD5B4624
:101700001B689A461022002108A804F0F5FB8025EA
:101710006D020895F8235B0209938023DB020A938C
:10172000C0231B030A93102208A904A804F0EAFBB3
:101730005346D91C1A1D059B0293A04B02980340E7
:10174000C9010B43120313430593102204A90CA8EB
:1017500004F0D8FB0F9B0293994B029A13401D4350
:101760000F95484604F070FB85B2002D00D106E1CC
:10177000280004F041FB011C484604F01CFB8721B3
:10178000C90504F032FB04F05FFBC3B21B022D0459
:101790001D430C950E9B02938A4A1A408A4B1343B1
:1017A0000E930D9B0293894A1A4080235B041343D6
:1017B0000D937E4D2A681100303180239B0119431F
:1017C000012008602D32FF321343802252001A603C
:1017D0007F49063000F02EFF0121072000F000FFB6
:1017E0002A68734B186804307A4B9A4200D1C8E0DB
:1017F0000823C018012100F0F3FE6F4B1A686C4BF0
:101800009A466A4D0CAB51460968286807F026FDD8
:101810000121286807F02CFC02006F4B99461860E4
:10182000286853009B18DB00D033C318802149017E
:101830000B438021090619601960036804320121F5
:1018400091400B430360654B3B43654A53816549B7
:1018500007F02CFC644B9B4618604B4619682868BF
:1018600001230093002207F0C1FC4B461968286849
:10187000002300933B00039E320007F0B7FC5B4659
:101880001F681022002108A804F036FB80235B02A9
:101890009B460893F8235B0209938023DB020A939B
:1018A000C0231B030A93102208A904A804F02AFBF2
:1018B0003B0008331A00059B0293404B02990B40F2
:1018C000F9010B43120313430593102204A910A836
:1018D00004F018FB102210A90CA804F013FB0F9BB6
:1018E0000293374B02990B40F6031E430F963F4B72
:1018F0001E408023DB041E430F965B460C930E9B19
:101900000293304B029A13400E934B4619680CAB6E
:101910003A00286807F0A2FCFFF7D6F92A68534678
:101920001D6811680123AB4099430B431360013CD0
:10193000516828001030012383400B42F8D1043550
:10194000AD00AC50244B1C6811680123A34099439F
:101950000B431360516820001030012383400B4279
:10196000F8D10434A4004346A3500023204A137046
:10197000204A1370204B01221A70012004E000233A
:1019800004E7002335E7002015B0F0BCBB46B246A3
:10199000A946A046F0BD0020F6E70020F4E70020AD
:1019A000F2E70020F0E70020EEE7C046D4860220F0
:1019B000588E022014950010D08602207F00FEFF72
:1019C000FF7FF0FFFFFF0AFE0000D101FFFFFFE0F5
:1019D000FD060010000020505C8E022040600000D8
:1019E0002804002020040020788E02201FFCFFE342
:1019F0009C8E02209D8E0220A58E0220F0B5D64638
:101A00004F464646C0B590B082460F0016001C00F7
:101A100018AB1D7819AB1B7899461AAB1B78984602
:101A20008A1880231B029A4200D361E1B54B984289
:101A300000D964E1182D01D900205AE180229202D8
:101A40000021B14804F058FAB04B1F60B04B1E6043
:101A5000B04B1D70B04B42461A70B04B00221A704A
:101A6000002106E0635CAE4AD25CAE4B5A540131B1
:101A7000C9B2A942F6D3AA4B4A469B5C9946AA4BE7
:101A80004A461A70052002F0B3FB04F0B5F9041CB5
:101A90005346580004F0B0F9011C201C04F091F9E1
:101AA000071CA24CA248206007F048FB01212068D7
:101AB00007F0DEFA02009F4B1860206853009B1865
:101AC000DB00D033C318802149010B438021090674
:101AD0001960196003680432012191400B430360CF
:101AE0004346002B18D0944907F0E0FA934B186056
:101AF000904B19688D4C20680023009320330022FE
:101B000007F074FB22688A4B9A420BD007214846A3
:101B100000F01EFC00240CE0894907F0C7FA874B4F
:101B20001860E5E70621F2E7062100F011FC013418
:101B3000E4B2AC4208D27D4B1A687A4B185D7C4BFC
:101B40009A42F1D00721F0E74346002B00D1A1E0F3
:101B50007A4B1C681022002108A804F0CDF98023DC
:101B60005B020893F8235B0209938023DB020A934C
:101B7000C0231B030A93102208A904A804F0C2F989
:101B8000E21D059B03936F4B03990B40E401234334
:101B9000120313430593102204A90CA804F0B2F910
:101BA0000F9B0393684B039A13400F93381C04F068
:101BB0004BF984B2002C00D196E0200004F01CF90F
:101BC000011C381C04F0F7F88721C90504F00DF951
:101BD00004F03AF9C0B20002240404430C940E9BB2
:101BE00003935A4A1A40A023DB0213430E930D9B22
:101BF0000393574B039A13404A46120613430D931F
:101C00004A4C22681100303180239B011943012086
:101C100008602D32FF321343802252001A604D4972
:101C2000063000F007FD0121072000F0D9FC2268F2
:101C3000404B186804303E4B9A4257D00823C018D6
:101C4000012100F0CDFC3D4B1A683A4C374D0CABEE
:101C50002168286807F002FBFFF736F82A68246835
:101C600011680123A34099430B431360013E51685F
:101C700020001030012383400B42F8D10434A4002B
:101C8000A6500023344A1370344A1370344A137038
:101C900001202EE0294B1C681022002108A804F026
:101CA0002BF980235B020893F8235B0209938023BE
:101CB000DB020A93C0231B030A93102208A904A87D
:101CC00004F020F9A21C0334059B03931D4B0399D8
:101CD0000B40D2011343240323430593102204A98C
:101CE0000CA804F00FF95BE7002074E70023A6E7D7
:101CF000002010B0E0BCBA46B146A846F0BD0020B6
:101D0000F7E7C04600E1F50500800020A08B022027
:101D10009C8B0220A48E0220A68E0220A38E02207D
:101D2000AC950010848B0220A78E0220D48602205E
:101D300000002050588E022048950010D0860220C6
:101D4000609500107F00FEFFFF7FF0FFFFFF0AFE9F
:101D5000FFFFFFE0ED0900109C8E02209D8E022007
:101D6000A58E0220024B187801235840C0B270475C
:101D70009C8E0220F0B5CE46474680B580468C4604
:101D80003C4B1B78002B64D13B4B1D683B4B1B68C5
:101D9000ED186A1E3A4B1B689A420DD95B1B394AF3
:101DA00091464B44384A1360374B1C68374B1B78BD
:101DB000002B28D100213FE05B1B0133324A136026
:101DC000F2E7334B9A5D023A012393400340921BA2
:101DD000D3401F4301362F4B1B78B342F1DC631C09
:101DE000A4002D4AA75080221202934209D21C005F
:101DF00001318D422AD9A300274A9858002600278E
:101E0000E9E70024F4E70021F3E7214B9E5C01237E
:101E1000B3400340B61AF3401F4301321D4B1B78F9
:101E20009342F2DC631CA4001B4AA75080221202DA
:101E3000934209D21C0001318D4207D9A300164AF2
:101E4000985800220027E9E70024F4E7094B012213
:101E50001A70094B1B68094A12689B1842461360A6
:101E6000094B62461B6813600B48C0BCB946B046BC
:101E7000F0BDC0469D8E0220A08B02209C8B0220CC
:101E8000A88B0220FF7F0000A48B0220A38E0220DB
:101E9000848B0220A48E02200080002010B504F064
:101EA000C3F910BDF0B5CE46474680B587B00600F1
:101EB0000F000592002406E01278552A10D0754BC9
:101EC00000221A700134BC4200D3DEE0714A15785A
:101ED0006B1CDBB21370315D6F4A5155012BEBD097
:101EE000022B0FD0022BEDD904939A1E6A48825C14
:101EF000AA2AE7D15A1E825C552AE3D1002200218A
:101F0000884615E0644A5278AA2AEBD0614B002239
:101F10001A70D7E7013260488446805C013DFF3D7E
:101F2000454060464146455401208446E044013224
:101F30000499914207DD584DAD5CF02DEAD056482A
:101F400041464554F0E7544A9278002A09D0012AC4
:101F500013D005995148FFF7A1FF4E4B00221A708C
:101F6000B0E7052B04D005994C48FFF797FFF4E73D
:101F700005994B48FFF792FFEFE74A4B4A4A136037
:101F80001B78012B2ED0022B53D0434D6B790922A5
:101F90009446AC442232A95CEA6A12020A43904693
:101FA0002721685CA96A090201432320285C814635
:101FB000686A00024A4610435A1E934102932B79E5
:101FC00001932123EB5C009363464246FFF716FD25
:101FD000002855D005993548FFF760FF344B0122A2
:101FE0001A70BAE7334B9C461D00093D2B23EB5C6E
:101FF000EA6A12021A4390462723EB5CA96A090297
:1020000019432323EB5C686A00021843EB79994675
:102010002B7A1B024A46134303936B7902932B7965
:1020200001932123EB5C009363464246FFF796FA47
:10203000CEE7204B9C461D00093D2B23EB5CEA6A52
:1020400012021A4390462723EB5CA96A090219433E
:102050002323EB5C686A00021843EB7999462B7ADC
:102060001B024A46134303936B7902932B79019326
:102070002123EB5C009363464246FFF711F8A7E784
:1020800005990D48FFF70AFF67E707B0C0BCB946DE
:10209000B046F0BD9B8E0220B08B022090940010C1
:1020A000A4940010B38B0220448C0220BC94001036
:1020B0009E8E0220B98B0220D094001010B582B001
:1020C0000400002004F0C0F8431C0ED06B46D87109
:1020D000002C02D0200002B010BD002201216B466E
:1020E000D81DFFF7DFFE0134F4E70024F2E710B556
:1020F0000020FFF7E3FF10BD10B50120FFF7DEFF62
:1021000010BD000030B585B003AB02AA01A942485A
:1021100000F0C6F8002803D13F49404801F04EFFC7
:10212000039A0299019800F07FF804F089F8FA20E8
:10213000800001F07DFA80220021394803F0DCFEA6
:10214000192000F01DF9D0231B06802292045A6248
:102150005A6114E00134029B9C420DD2039B5A1C2D
:102160000392E85C03F0FAFF80239B02039A9A42F1
:10217000F0D300230393EDE72A4B00221A70294B7A
:102180001B78002B45D0FFF7EDFD00281FD102ACD6
:1021900003A92000FFF7EEFD0500642001F048FAD6
:1021A000207803F0DBFF607803F0D8FFA07803F01D
:1021B000D5FFE07803F0D2FF642001F039FA029BEA
:1021C0009B000293039B9B0003930024C3E7D0234F
:1021D0001B06802292049A61FA20400001F028FA3E
:1021E000FFF78AFF00280AD0FEF73AFF0D4B0022C6
:1021F0001A70D0231B06802292045A61BFE7D023B5
:102200001B06802292045A61FA20400001F010FA65
:10221000B5E7FFF76CFFB2E7400D0300E094001054
:10222000B08B02209E8E0220F0B583B004000D001A
:10223000160000F029F9002801D003B0F0BD154FB9
:1022400000973B0001220121053001F0CFFE0096EE
:102250002B0022000121104801F0D0FF310069431A
:10226000200003F0EDF904000C4B00930022022142
:10227000042001F0BBFE0094230000220121052070
:1022800001F0B4FE00973B0002220021062001F07D
:10229000ADFED2E7006CDC0200800240001BB700FC
:1022A000F0B5DE4657464E464546E0B583B080461B
:1022B0008B4600920193042001F09AFFFA218900D5
:1022C00003F0BEF98246A0235B0099462CE0013C56
:1022D000002C20D025007D432900300003F0B0F908
:1022E0004045F4D12900300003F0AAF90029EED1CD
:1022F00073019B1B9B009E19F6005B461E60009BB2
:102300001F60019B1C60012003B0F0BCBB46B246BD
:10231000A946A046F0BD013F002F01D03C00D7E701
:1023200001235B429C46E1444B460F2B09D956469C
:102330004B465E43044BF218044B9A42F0D80727F1
:10234000EAE70020E0E7C046508EF4FF50F80C00AA
:1023500010B58300084A944663441C6840226240DA
:10236000C02414408022520113431C60C000034B60
:102370009C466044416010BD04C0014000400140E3
:1023800010B501238340D022120693629361052188
:10239000FFF7DEFF10BD0000EFF3108072B6034BB5
:1023A0001B68002BFBD0BFF35F8F70472C0100D060
:1023B000BFF35F8F024B00221A6080F310887047D2
:1023C0002C0100D0F8B506000C001500FFF7E4FF63
:1023D000E308F718F15C07222240012393400B42E7
:1023E00005D1DBB20B433B70FFF7E2FFF8BD2100E4
:1023F000280001F0E3FDF0B583B006000191140060
:102400001F00FFF7C9FF00E00134BC420CD8E3080D
:10241000F518F35C0721214001228A401A42F3D1CA
:10242000D2B21A432A7001E001246442FFF7C0FFD0
:10243000002C02DB200003B0F0BD019B002BF9D083
:10244000089801F0BBFD000070B505000C00FFF717
:10245000A3FFE308EE18EA5C07210C400123A34028
:10246000134204D09A433270FFF7A2FF70BD034BB2
:10247000034A2C31034801F007FDC046C495001003
:1024800024960010E4950010034B1B6802201840AE
:10249000431E9841C0B2704700C00640002307E0C9
:1024A000054A9A189200BFF35F8F00211160013333
:1024B0001F2BF5D97047C04640000034054A1078FC
:1024C000431CDBB21370172B02D9130010221A70B1
:1024D0007047C0464204002000B583B00100044BA1
:1024E00000931F2318220348FFF785FF03B000BDA8
:1024F00034960010D8860220074B9B68103080006D
:102500001950BFF35F8FBFF35F8F044B0021196039
:1025100082F310887047C04600ED00E0240100D02F
:1025200010B5091A081F0A4B9C466144094A91429A
:1025300008D8C30706D440104005400D064B184389
:1025400080B210BD054B064A9921064801F09CFC5B
:10255000FC070000FE0F000000E0FFFF5096001097
:10256000AC9800108096001010B5091A04394C0878
:10257000090B08D14905490D064A11430180064B54
:102580002343438010BD054B054AA121054801F0B6
:102590007BFCC04600F0FFFF00F8FFFFBC96001078
:1025A000809800108096001001238340034A106831
:1025B0001840431E9841C0B27047C04600E100E099
:1025C000002904D0034B1860034B18607047034B7D
:1025D0001860FBE780E200E000E100E080E100E05D
:1025E00010B5012383401800FFF7EAFF10BD00007B
:1025F00001238340014A13607047C04600E200E0B7
:10260000024B9B6810308000C058704700ED00E01E
:1026100010B5FFF7F5FF002805D0054BC01A2F288D
:1026200003D8012010BD0020FCE70020FAE7C046D7
:102630004404002070B504000D00EFF3108672B65C
:102640000C4B1B68002BFBD0BFF35F8F2000FFF704
:10265000D7FF094B984201D0A84205D1320029008A
:102660002000FFF749FF70BD044B054A7C21054857
:1026700001F00AFC240100D0CD010010CC9600101E
:10268000E098001080960010F0B5DE4657464E46A2
:102690004546E0B589B0814601911500EFF3108AF7
:1026A00072B6744B1B68002BFBD0BFF35F8F724B6D
:1026B0000027DF57002F40DB7C00E419A4006F489F
:1026C00024180622A2566C4B1A706D4B9A684B4622
:1026D00010339B00D35898461E001B1A2F2B38D955
:1026E000684B98452FD105AE674B33807B009B46E6
:1026F000D8198000614B9846404402306349FFF787
:102700000FFF7080624BB380FF23B371F571019BA3
:1027100007935F44BF0047440ECE0EC701231C43FE
:10272000A046524641464846FFF7E6FE09B0F0BCD7
:10273000BB46B246A946A046F0BD564B564ACD21EF
:10274000564801F0A1FB564B534AD421534801F09F
:102750009BFBC04340440C2102F072FF002912D1C0
:1027600001239E43B34633000026DA79AA4211D9E9
:102770000621595600290CDB4A00521892001E000F
:102780003E4B9B18F1E7474B434AE021434801F099
:102790007BFB1E00002E3BD005AB434A1A80813ADA
:1027A0005A800623F3560293002B18DABD2000024C
:1027B00005AB9B469880029A9A71DD71019A079247
:1027C000301D2100FFF7ACFEB080B7717B00DB1934
:1027D0009B002A4FFF185B4607CB07C7A1E778008D
:1027E000C0198000254BC0180430321DB388D90AA7
:1027F0001C2907D15B055915023149005118FFF713
:102800008FFED5E7294B2A4AA721244801F03CFB3B
:1028100005AE1D4B33807B000293D8198000174A08
:102820009046020042440392901C1849FFF778FE3C
:102830007080039A101D5946FFF772FEB0801D4B41
:102840005A464146521A524153431B0DB371F5711A
:10285000019A0792029B9C466744BF0047440ECEF4
:102860000EC7114B5A461380813B538001231C43F2
:10287000A04656E7240100D0A18E02204404002087
:1028800000ED00E0CD01001000A1FFFF7404002066
:1028900000BDFFFF04970010C8980010809600103C
:1028A0002C9700105497001001480000C8970010A2
:1028B000B8980010AAAA0000F0B5CE46474680B5E9
:1028C00083B006000D00EFF3108872B6564B1B68FC
:1028D000002BFBD0BFF35F8F544B9A683400103449
:1028E000A300D758524B9F4207D0AF4200D199E086
:1028F0000197504BFB1A2F2B09D942463900300063
:10290000FFF7FAFD03B0C0BCB946B046F0BD3000D9
:10291000FFF74AFE814600213000FFF761FEBFF35A
:102920005F8FFDF7A0FC002801D0844211D1012364
:10293000019C9C430022A368AB4212D00622A256FF
:10294000002A0DDB53009B189B002200394CE41831
:10295000F1E72C21384B394AFF31394801F094FA1C
:102960002200AB4257D106256557002D39DB6B009D
:102970005B199A002F4B9B189A68A260DA79E27172
:1029800006229A56A2719B795BB2002B10DABD2009
:102990000002A0806B005B199B00264AD318294ACD
:1029A00011789971157049463000FFF719FEA4E7B8
:1029B000201D6B005B199B001E4A9B181A1D9B88EB
:1029C000D90A1C2907D15B055B1502335900511840
:1029D000FFF7A6FDDDE71C4B1C4AA721184801F0B4
:1029E00053FA002812D1002A0ED0FF239371184BFE
:1029F0009380144A1378A371164B0E49641A6441EC
:102A000063431B0D1370CEE7094FF2E7201D1249F7
:102A1000FFF7AAFDC7E76021104B084AFF310848BD
:102A200001F032FA024F68E7240100D000ED00E027
:102A3000CD01001044040020E09700109898001089
:102A400080960010A18E0220C8970010B898001040
:102A500000BDFFFFAAAA00007E0400200498001019
:102A600070B50400012606432D4BF31A2F2B28D8EE
:102A7000FDF7F9FB00282BD0EFF3108C72B6294B31
:102A80001B68002BFBD0BFF35F8F274D220024492A
:102A9000521A524155432D0D6DB2244B9B68800054
:102AA0001B58B3421BD00022032A32D853009B1874
:102AB0009B001B49CB189B795BB2AB421FD0013204
:102AC000F2E7C2211A4B1B4A49001B4801F0DCF90E
:102AD00088211A4B174AFF31174801F0D5F9134BDB
:102AE0009B68174A1A50174B1A78A2711D70BFF3D2
:102AF0005F8F0C4B00221A608CF3108870BD0800A9
:102B00005300991889004118FF268E710E4A8A8059
:102B1000E9E7CC210D4B074A4900074801F0B4F919
:102B200044040020240100D0AAAA000000ED00E027
:102B30000C980010649800108096001034980010D3
:102B4000CD010010A18E022000BDFFFF40980010B3
:102B50000022044B02E0044902C30132072AFAD9D9
:102B60007047C04600E400E08080808000B583B0FC
:102B70000100D0231B061B680648C018064B0093B3
:102B800005230022FFF737FC002801DB1F23181A5A
:102B900003B000BD948E022048980010024B9C4662
:102BA00061448900016070474000003470B5050041
:102BB0000C00080000F0CCFD200000F0FFFE0849EA
:102BC000200000F03FFEFFF779FC064B9C46604476
:102BD000800068602C75A400034BE55070BDC046B2
:102BE000F12E001040000034348C02200A4B1A6889
:102BF000EFF3108172B61368002BFCD0BFF35F8F28
:102C0000054B1B68BFF35F8F00221A6081F31088A9
:102C100040BF002000217047548E022010B50029CB
:102C200022D003681B7B99421ED8174B9C466144F7
:102C3000090183689C4661440C684968002A19D0E0
:102C400003681B7B9A4215D883680F488446624408
:102C500012019A1810685368020001208B4201D8B3
:102C60000ED00020C0B210BD084B094A3B210948D4
:102C700001F00AF9054B064A3B21064801F004F928
:102C8000A242EFD8EDE7C046FFFFFF0F48990010C2
:102C9000049C00101099001010B500291ED0037B71
:102CA00099421BD84B005B18033B0468A44663445D
:102CB000002919D0002A1DD0914221D0002A25D008
:102CC000047BA24222D804685000801803382018E0
:102CD0008170197800291FD11A7010BD104B114A4C
:102CE0006821114801F0D0F8104B114A6F310E489D
:102CF00001F0CAF80F4B0E4A70210B4801F0C4F8DE
:102D00000D4B0B4A7121084801F0BEF8044B054AEF
:102D10006821054801F0B8F841701A70DDE7C04637
:102D20007C990010709C001098990010E099001098
:102D30004C9C0010EC990010F899001070B506003A
:102D40000D001400002914D0002A14D08068736884
:102D50009847002806D0220029003000FFF79CFF8A
:102D6000280007E02A0021003000FFF795FF20002F
:102D700000E0100070BD0800FCE70000F0B583B073
:102D80000500009201930AAB1C780BAB1F78002C56
:102D900026D003685A7B944207D10123002B19D116
:102DA000002C3BD1200003B0F0BD002C0CD01A7BCE
:102DB000944209D81A6863001B19033BD3189B7807
:102DC000002BEBD00123E9E73E4B3F4A68213F4807
:102DD00001F05AF83E4B3F4A65213F4801F054F854
:102DE00003689C7B002CDBD012D01A7B94420FD856
:102DF00062001219033A19688C466244517899733B
:102E0000002900D1D9730023937053701370C7E762
:102E10002C4B2D4A68212D4801F036F8002C3AD071
:102E20002B681B7B9C4236D82C4BE3181B01AA68ED
:102E300094466344009A1A60019A5A60089A9A600C
:102E4000099ADA602E68002C2BD030D0337B9C425C
:102E50002DD863001B19033B32689446634400225B
:102E60009A705A701A70717B22003000FFF766FF6B
:102E70007073844200D095E7287D009A019B00F092
:102E800029FD061E01D0002F17D00C9B002B00D16E
:102E900088E71E7086E7124B124A3B210E4800F06D
:102EA000F3FF114B114AA521084800F0EDFF054B37
:102EB000054A6821054800F0E7FF2868210000F076
:102EC00031FFE2E77C990010709C00109899001087
:102ED000109A00107C9C001010990010FFFFFF0F4B
:102EE00048990010049C00100C990010609C001080
:102EF000F0B5DE4657464E464546E0B58BB00990E4
:102F0000002308938200B24BD658370032E0B14B11
:102F1000B14A3F21B14800F0B7FFB14BB14A3B2164
:102F2000B14800F0B1FFB14BB14A8C21AE4800F07E
:102F3000ABFFB04BAE4A9021AB4800F0A5FFA84BC9
:102F4000AD4A4021A84800F09FFF2A686B680998A5
:102F500000F0C0FC00239A4698467B68BFF35F8F61
:102F600000221A6086F310884346002B51D10028B6
:102F700000D126E100F0F8FB02000B1EC7DB0020A9
:102F80000021069007917868EFF3108672B6016809
:102F90000029FCD0BFF35F8F396888464C7B002C3A
:102FA00032D0BAD0097B8C42B7D8944965182D012C
:102FB000B9688C46654428686968801A9941002977
:102FC000C3DC01D10028C0D10021404600F0A0FEA2
:102FD000A042A8D12A686B6806920793AB6898460E
:102FE000EB689A464346002BA3D0002CA7D03B6841
:102FF0001B7B9C42A3D8631EFA68D35C08931B0218
:10300000184338610020A8E700239A46984600201C
:10301000A3E7089B1B022343994651461800C0476B
:1030200005000E007A68EFF3108B72B613685942F0
:103030004B41D9B2002BF9D1BFF35F8F002E26DBB5
:10304000002E52DD3B69002B53D04B4572D100F06E
:103050008BFB02000B1E73DB010018005219734139
:10306000984202D804D1914202D901225242D31788
:10307000002B6BDB00210491013103910294514636
:103080000191414600913800FFF778FE49E03B6925
:10309000002BD5D04B451CD1069A079B1000190078
:1030A000521BB341994202D804D1904202D9012265
:1030B0005242D317002B12DB0021049101310391FE
:1030C000029451460191414600913800FFF756FEA7
:1030D00027E04B4B464A9F21434800F0D5FE3D4B2D
:1030E0003D4A3F213D4800F0CFFE002E01D1002D8A
:1030F000A8D13A68002C45D0537B9C422CD10121A9
:1031000000293FD1D37B002B42D1D473002C52D065
:103110003B681B7B9C424ED8FA68013C135D01332F
:10312000135500233B617A68BFF35F8F13608BF305
:1031300010881FE7324B2E4AA2212B4800F0A4FE34
:10314000244B254A3F21254800F09EFE214B224A70
:103150003F21224800F098FE002C0DD0137B9C42AA
:103160000AD863001B19033B1068844663449B78AC
:10317000002BC5D00121C3E7224B234A68212348F5
:1031800000F082FE224B234AF621204800F07CFE0C
:10319000002B0AD0117B8B4207D85900CB18033B78
:1031A00011688C4663445C70AFE7164B164A682181
:1031B000164800F069FE0A4B0F4A40210A4800F009
:1031C00063FE0BB0F0BCBB46B246A946A046F0BDBC
:1031D000348C0220389A0010D09B0010549A0010B2
:1031E00048990010049C001010990010989A001043
:1031F000E89B0010B09A0010289C0010FFFFFF0F02
:10320000BC9A00107C990010709C001098990010D6
:10321000F89A00103C9C001010B50A4B5B68002B1C
:1032200004D00A210848FFF7B9FC10BD054C230063
:10323000064A1021206800F08BFC03212000FFF7D4
:10324000B5FCEEE78C040020548E02201D2C0010EB
:1032500010B5064B5B68002B01D0044810BD044B31
:10326000044A5C21044800F00FFEC0468C04002094
:103270001C9B0010109C001010990010F0B5DE4649
:1032800057464E464546E0B58BB0804616001F00B7
:10329000149B9A46159B994616AB1B789B461F2399
:1032A00002AA9446634400221A7032E0002809D032
:1032B00042461268127B904204D8421E4146C968B9
:1032C0008A5C48E0434B444A4021444800F0DCFD1E
:1032D0000798002B75D05B46002B72D04946D0472B
:1032E00004000D0003000B4300D171E0002946DB10
:1032F00000F03AFA06000F1E55DB36196F41B9424D
:1033000002D804D1B04202D901267642F717002F25
:103310004FDB43465A68EFF3108472B61368594284
:103320004B41D9B20791002BF8D1BFF35F8F1F3308
:1033300002AA9446634404930023039302934B46EA
:1033400001935346009332003B004046FFF716FDC1
:10335000031EABD1020041464968BFF35F8F0025D1
:103360000D6084F31088002B29D01F2302A98C46FE
:1033700063441B78002BABD112021043A9E7320043
:103380003B00361BAF41BB4202D804D1B24202D946
:1033900001267642F717002FBBDA114B114A3F2165
:1033A000114800F071FD0E4B0E4A3F210E4800F00F
:1033B0006BFD0B4B0B4A3F210B4800F065FD0120D4
:1033C00040420BB0F0BCBB46B246A946A046F0BD99
:1033D0000798F6E748990010289C001010990010F3
:1033E000389A0010D09B0010549A0010F8B50400D1
:1033F0004268EFF3108572B6136858424341D8B261
:10340000002BF9D1BFF35F8FCBB22268567BB3425A
:103410001BD10120002848D0206988422BD0090AFE
:10342000C9B2002B2ED02068007B83422AD8581EB8
:10343000E668305C88422BD000206368BFF35F8F62
:1034400000221A6085F31088F8BD002B0DD0167B82
:10345000B3420AD85E00F618033E1768BC466644BD
:10346000B678002ED6D00120D4E7134B134A68213A
:10347000134800F009FD8521124B134A49001348F7
:1034800000F002FD124B134A4021104800F0FCFCF2
:103490001900100000F046FC0028CED112210E4B7E
:1034A000094AFF31094800F0EFFC23698B42C4D17F
:1034B00000232361C1E7C0467C990010709C001076
:1034C00098990010409B0010B89B001010990010B4
:1034D00048990010289C0010649B0010F0B587B03C
:1034E00006000F00FCF7BFFE00281FD1062464422F
:1034F000E517A4197D41BD4202D803D1B44201D9D8
:1035000000240025002D14DB0494059500F02CF90F
:1035100002000B1E13DBA41A9D41002D17DC14D0F2
:103520003000390000F02CF907B0F0BD234800F05E
:1035300045FD234B234A3F21234800F0A5FC204BA7
:10354000204A3F21204800F09FFC002CE8D0FFF7E4
:103550007FFE0023029301931C4B0093049A059B6A
:10356000FFF78CFE002818DADAE7002300E00023DA
:10357000002BD5D1164B1A68EFF3108172B6136881
:10358000002BFCD0BFF35F8F114B1B68BFF35F8F25
:1035900000221A6081F3108820BF0499059A0D4B10
:1035A0005B6A9A42E3D80B48806A884203D29A4207
:1035B000DBD00123DCE70123DAE7C046689B00107B
:1035C000389A0010D09B0010549A0010ED2B001078
:1035D000548E022000400540F8B504000D0000F0B4
:1035E000C3F802000B1E10DB20002900801859418F
:1035F0008B4202D804D1824202D901204042C11735
:10360000002908DBFFF76AFFF8BD064B064A3F2199
:10361000064800F039FC034B034A3F21034800F001
:1036200033FCC046389A0010D09B0010549A00100A
:1036300010B5FA2292000023002102F09FFBFFF751
:10364000CBFF10BD70B584B006000C00FFF700FE84
:10365000002302930193194B009332002300FFF7DC
:103660000DFE051E11DD20BFFFF7F2FD2900FFF75B
:10367000BDFE134B5B6A9C421BD8114A926AB24250
:103680001AD29C4213D0012014E00D4B5B6A9C427D
:1036900009D80B4A926AB24207D29C4201D001205B
:1036A00008E0002006E0002004E0012002E0002005
:1036B00000E0002004B070BD0120FBE7ED2B0010FE
:1036C0000040054070B5EFF305833F2018401038E7
:1036D000EFF3108C72B6194B1B68002BFBD0BFF3B5
:1036E0005F8F012319008140154A5163154A1278F2
:1036F0001400C440234214D0114B5C6A8300124D65
:103700005B599C4206D38300104C1B598A430D49D8
:103710000A7007E00A4A031D9B009958995000233C
:1037200000E00023BFF35F8F044A002111608CF397
:103730001088002B00D0984770BDC046280100D0EB
:1037400000400540AB8E0220688E0220C08502201A
:1037500010B50100024A0348FEF734FE10BDC04612
:10376000949C00109F8E0220044B5B6A034A906A6F
:103770001900536A9942F9D17047C046004005408C
:10378000084B5B6A01E0074B5B6A8B42FBD301E0AD
:10379000044B5B6A8B4203D1024B9B6A8342F7D393
:1037A0007047C0460040054070B504000D00FFF7AB
:1037B000DBFF02000B0020002900801859418B42DA
:1037C00002D804D1824202D901204042C117002907
:1037D00002DBFFF7D5FF70BD024B034A3F210348D0
:1037E00000F052FB389A0010389D0010549A0010D7
:1037F00010B5002807DB064B9A6A054B9B6A9B1A9B
:103800008342FAD310BD0021FFF7CEFFFAE7C0468E
:103810000040054010B50A4B984207D843011B1AD7
:103820009B001818C000FFF7E3FF10BDFA229200BA
:103830000023002102F0A2FAFFF7B6FFF5E7C04629
:103840009BC4200070B504000D00EFF3108672B623
:103850001B4B1B68002BFBD0BFF35F8F002D1CD0D0
:103860002000FEF7CDFE174B83420BD0190020003D
:10387000FEF7E0FE01212000FEF7B2FE0123A34087
:10388000114A1360A400114BE550BFF35F8F0C4B3E
:1038900000221A6086F3108870BDA2000B4B002135
:1038A000D1500122A2400A490B7893430B7005497D
:1038B0002000FFF701F800212000FEF791FEE4E769
:1038C000280100D0C536001038600540C0850220B0
:1038D000AB8E0220F0B5DE4600B584B004001500C2
:1038E00001921E000293FFF73FFF03958E4202D81C
:1038F0004ED185424CD9EFF3108B72B6274B1B6823
:10390000002BFBD0BFF35F8F254A17780125A54018
:10391000EBB23B431370234B5D63221D9200019970
:10392000D150A2002049029850501B6A2B4212D15C
:103930001C4B1B6C2B4208D00020BFF35F8F174B32
:1039400000221A608BF3108823E0184B184AC1211B
:10395000184800F099FAFFF707FF8E4214D802D1F9
:10396000039B834210D80E4B1B78BB420ED00D4BED
:103970001D625D631F2004400123A3400E4A1360B3
:10398000074B1F701E38D8E70020D6E70120D4E788
:10399000012004B080BCBB46F0BDC046280100D069
:1039A000AB8E022000400540688E0220B89C0010BB
:1039B0001C9D0010DC9C001080E200E0EFF3108CF6
:1039C00072B60B4B1B68002BFBD0BFF35F8F01233C
:1039D0008340084A136208490A789A430A70BFF381
:1039E0005F8F034B00221A608CF310887047C0462B
:1039F000280100D000400540AB8E022010B5002900
:103A00001ED0037B99421BD84B005B18033B046814
:103A1000A4466344002919D0002A1DD0914221D028
:103A2000002A25D0047BA24222D8046850008018C6
:103A3000033820188170197800291FD11A7010BD21
:103A4000104B114A6821114800F01EFA104B114A20
:103A50006F310E4800F018FA0F4B0E4A70210B48D8
:103A600000F012FA0D4B0B4A7121084800F00CFAD5
:103A7000044B054A6821054800F006FA41701A70A7
:103A8000DDE7C0467C9900103C9E0010989900101C
:103A9000E0990010289E0010EC990010F899001091
:103AA00070B506000D001400002914D0002A14D0AF
:103AB000806873689847002806D0220029003000EB
:103AC000FFF79CFF280007E02A0021003000FFF7E5
:103AD00095FF200000E0100070BD0800FCE700002A
:103AE00010B50023437301338373037BC373012336
:103AF000027B9A4214D9002B0CD0027B934209D846
:103B00005A00D218033A01688C4662440133DBB292
:103B10005370EDE70B4B0C4A68210C4800F0B4F9E8
:103B2000002A09D0924207D8016853009A18033A34
:103B30008A180023537010BD024B034A68210348C2
:103B400000F0A2F97C9900103C9E0010989900109A
:103B500010B5017342608360FFF7C2FF10BD000023
:103B600070B50400081E00D170BD002934D0237B3D
:103B7000994231D84B005B18033B2268944663445A
:103B80005A78002AF0D02DD0237B9A422AD85300AD
:103B90009B18033B21688C4663445D780021597073
:103BA000002825D0237B984222D843001B18033BD2
:103BB00021688C4663440021597001002000FFF702
:103BC0006FFF060029002000FFF7CAFF0200310046
:103BD0002000FFF765FFC7E7084B094A682109483D
:103BE00000F052F9054B064A6821064800F04CF9EE
:103BF000024B034A6821034800F046F97C99001003
:103C00003C9E00109899001070B505000C0016003D
:103C1000002928D02DD0037B99422AD84B005B186D
:103C2000033B0268944663445A78002A27D19A7865
:103C3000002A2AD11978FFF793FF0300002E03D042
:103C4000EA7B002A27D1EC73002B37D1002C49D016
:103C50002B7B9C4246D82B6861000C19033C1C1935
:103C60000023637070BD224B224A3821224800F0A5
:103C70000BF9224B224A6821224800F005F9224B19
:103C80001C4A3A211C4800F0FFF8204B194A3B21FE
:103C9000194800F0F9F8002A0AD0297B8A4207D88F
:103CA00051008A18033A29688C4662445470CAE766
:103CB000124B134A6821134800F0E6F8002B0BD092
:103CC0002A7B934208D843001B18033B2A6894467A
:103CD000634400229A70B9E7084B094A68210948F1
:103CE00000F0D2F8054B064A6821064800F0CCF8EF
:103CF000509D0010149E0010589D00107C990010DB
:103D00003C9E001098990010909D0010B89D0010E6
:103D100070B504000A00457B2900FFF775FF60734A
:103D2000280070BD70B50400002967D0437B8B422A
:103D30000ED0002911D0037B99420ED84B005B189E
:103D4000033B0268D0188378002B0CD1002056E08A
:103D50000121FFF7DDFF012051E0294B294A6821AD
:103D6000294800F091F8002B20D0227B93421DD8E7
:103D70005A00D318033B2268D2182568EB5C8B42AB
:103D80001AD0002B1BD0227B934218D85A00D3188C
:103D9000033B2268D21853788B4216D0002BF0D107
:103DA0001A4B1B4A67211B4800F06EF8144B154A4A
:103DB0006821154800F068F84378137007E0104B4D
:103DC000104A6821104800F05FF8437853700023D0
:103DD0008370437001222000FFF716FF0200617B11
:103DE000814205D02000FFF75BFE6073012006E0F2
:103DF000094B074A6D21074800F046F8002070BDC6
:103E00007C9900103C9E001098990010409800107A
:103E1000FC9D0010589D0010DC9D001010B50400A2
:103E2000FEF74CFB01002000FEF7B8FEFF232371D4
:103E3000BFF35F8F10BD10B50400FEF73FFB01001C
:103E40002000FEF7ABFEFF23237100236371BFF355
:103E50005F8F10BD034B9C46614489000160BFF336
:103E60005F8F70474000003410B504000120FEF75A
:103E700033FB01002000FFF7EDFF10BD00BEFDE7A2
:103E800010B5FFF7FBFF000010B582B00C00190061
:103E9000002A0CD0084B002A0BD00192009323007B
:103EA0000200064802F0C0F90120FFF7E7FF044BCB
:103EB000F1E7034AF1E7C046109F0010209F001071
:103EC000B894001070B52B4B2B4A1A602B4B2C4A20
:103ED0001A602C4B9A682A4B9343FAD12A4C01E082
:103EE00008CC9847294B9C42FAD300F001F9234BA8
:103EF000274A1A60234B9B68DB43DB01FAD1254B31
:103F000040229A675A671A67DA66234C09E0234B06
:103F1000234A83212348FFF7B7FF2000FFF77EFFE6
:103F20000834214B9C4209D22368002BF5D0012B89
:103F3000EDD12000FFF77FFF0834F2E71B4CA168AA
:103F40001B4DC022280001F0DDFFA560FCF78BF9B6
:103F5000002800D000BEFEF7A1FAFEF7F9FDFFF73A
:103F60005BF9144C01E008CC9847134B9C42FAD300
:103F700070BDC04600E00040BFCDFBFE00F0004039
:103F8000FE7F3C0000C000403005002040050020BE
:103F9000FFFFFF0100F0014020050020509F0010AE
:103FA000C49F0010709F00103005002000ED00E05D
:103FB0000000002040050020480500200FB400B597
:103FC00083B0084802F0FEF8049B002B07D005A937
:103FD0000191180002F006F9034802F0F3F80120FD
:103FE000FFF74CFFB09F0010C09F0010F8B5DE46F1
:103FF00057464E464546E0B505000F0092460A9AE0
:1040000093424ED31A0E91461E020A9A00233000A4
:10401000494601F057FB80466C006419A4002F4B01
:104020009C4664446368834200D260602B1FDBB20D
:104030009B46012B3BD9C0239B01234380221201C5
:104040001A60AB00264A9958002905D0506901F042
:10405000F7FA01300138FDD153465A0123685A401E
:10406000E0231A4080235B0123431A605A46012A49
:1040700028D980239B012343802212011A604346E2
:104080006360424600233000494601F01BFBAD004F
:10409000134B58510120F0BCBB46B246A946A0467E
:1040A000F8BD104B104A2D211048FFF7EDFE012FEF
:1040B000C1D1C0239B01234303221A60A368DB07FD
:1040C000FCD5C9E72168794003220A401A60A2683A
:1040D0000123BB401342FAD0CBE7C046008000402A
:1040E000DC860220D49F00102CA00010E89F001056
:1040F00030B583B00C2000F021F9FEF7C5F9002897
:104100000DD0002304E099002D4A2E488850013339
:10411000092BF8D92A4B2C4A5A6203B030BD2B4BDD
:1041200000229A6700F07CF9294B01221A60274B84
:104130005B6C012BFBD1274B03221A60234B9B6B3B
:10414000012BFBD1013300930433234A012123487F
:1041500000F054F805230093214A0121214800F082
:104160004DF8214B0093002202210420FFF73EFF6F
:104170001E4D00952B00002201210520FFF736FF80
:10418000104C00942300002200210720FFF72EFF8F
:1041900000942300002200210820FFF727FF0A4B8C
:1041A00000932300002200210920FFF71FFF009544
:1041B0002B00002200210620FFF718FFADE7C046C4
:1041C000DC860220006CDC021BB70000008000408F
:1041D0003CB0004030B00040002F685900800240E1
:1041E000008C864700C00240001BB700405973078F
:1041F0008000014BC0587047DC860220F0B5C646EF
:1042000000B504000F0090461D000C2001F018FAC4
:1042100006003D4A42443D4B9A4243D843011B1A93
:104220009901C91AC90009188901404601F008FA24
:104230000200103A98235B009A4239D86B1E062B75
:104240003CD8069B013B062B38D8069B9D423BD3AE
:1042500043461A09B2423DD32D04069B1E03354343
:104260002368002B3CDB2A4B9C424AD0802252011F
:10427000284B1A60284B1A60284B9B681100994301
:10428000FAD12760A060231DC02292011A43212386
:1042900013602368002BFCDAE5600823136080BC00
:1042A000B846F0BD1E4B1F4A11211F48FFF7ECFD19
:1042B0001E4B1C4A19211C48FFF7E6FD1C4B194AEE
:1042C0001C211948FFF7E0FD1A4B164A2221164817
:1042D000FFF7DAFD184B134A25211348FFF7D4FDE9
:1042E00022683F231340BB42BDD1A3681B051B0DB1
:1042F0008342B8D1E368EE22D2021340AB42B2D17E
:10430000CDE780229201B3E780E84BD380F8A93251
:1043100000C0024000E0004000F0004000C000404B
:104320003CA0001074A100109CA00010D8A00010A8
:10433000F4A0001040A1001058A1001080239B00A1
:104340000343014AD362704700800540024B1A685C
:10435000024B5A607047C046AC8B0220008005407B
:1043600010B50200164B8020C0051860154B16488A
:10437000186000290AD0154BE021C9041960002AF1
:1043800009D1124B802212061A6010BD0C4BE0219D
:10439000C9041960F3E753019B1A980080180001C3
:1043A0000B4B186080235B04984202D3084B094AE8
:1043B0001A60FFF7CBFF054B8022D2051A60E4E7B5
:1043C00000B0054008200140FCFF010000A00540AE
:1043D000AC8B0220FFFFFF0010B5030010000C4A59
:1043E0008024E4051460002B0DD001221343094AF8
:1043F000094CD461094C5C40146251629362002103
:10440000FFF7AEFF10BD034B0022DA61F7E7C046AD
:1044100000B0054000800540D3C007B02D3FF84FE5
:10442000064BAA2212011A602F22DA60044B054AB9
:104430001A60024B5B68002BFBDA704700400240B9
:104440000060024000B0FA00704710B5002802D0AA
:104450000B684968984710BD0100002007E0830001
:104460001B185B00501C08601078C01830380A68B0
:104470001378303BDBB2092BF1D97047F0B5DE463B
:1044800057464E464546E0B583B093461F000C9B09
:104490009A460D9C0E9B99460F9B9B0703D0B846EE
:1044A0000F00060022E00192A34688464E46B94618
:1044B0000700B44207D2551C4B4641462020B8475E
:1044C00001342A00F5E73D004F465C46019B9B46C0
:1044D000B1464646B84637002E0007E0013C551C61
:1044E0005346185D43463900B0472A00002CF5D1E9
:1044F00035003E0047460F9B9B0707D4100003B0D2
:10450000F0BCBB46B246A946A046F0BDB0464E46FA
:10451000B9462F005D46531BB342EFD2541C4B46A5
:1045200041462020B8472200F5E7F0B5CE46474681
:1045300080B585B0944698460C9D0D9C0EAB1B78BB
:104540009946109A119B129EB7071CD4002B0CD0D1
:10455000F7070AD54F46002F02D10C37374204D057
:10456000013B02E030272F550134944201D21F2C29
:10457000F8D9F70707D59C4205D21F2C03D830275E
:104580002F550134F5E7F70615D5770505D4002C2E
:1045900003D0944224D09C4222D00F9A102A2BD0D0
:1045A0000F9A102A30D00F9A022A35D01F2C02D829
:1045B00030222A5501341F2C05D84A46002A31D012
:1045C0002D222A5501340396029301940095434607
:1045D0006246FFF753FF05B0C0BCB946B046F0BD18
:1045E000621E012C06D00F9F102F01D01400D4E7BB
:1045F000023CD2E71400D0E7B206D1D41F2CCFD8AA
:1046000078222A550134D1E7B206CCD51F2CCAD85E
:1046100058222A550134C9E71F2CC7D860322A55C1
:104620000134C3E7720703D52B222A550134CAE7A8
:104630003207C8D520222A550134C4E7F0B5DE463A
:1046400057464E464546E0B593B081468A460892A5
:1046500009931CAB10CB1B789B461E9D219B984653
:10466000002C03D1102342469A4390468023DB005E
:1046700046461E4042461A4212D0002C22D0002646
:104680000EE03033D9B2771C0AAB995529002000CF
:1046900000F0D6FFAC4216D31F2F14D83E00040002
:1046A0002900200000F0CCFFCBB2092BE9D942460B
:1046B000920605D54121C918C9B20A39C9B2E2E743
:1046C0006121F8E7270043460693209B05931F9B33
:1046D000049303955B46029301970AAB0093099BF1
:1046E000089A51464846FFF720FF13B0F0BCBB467E
:1046F000B246A946A046F0BDF0B5DE4657464E4646
:104700004546E0B595B0089009910A920B931E9E1C
:104710001F9C20AB1B789B46229B9946239D269B82
:104720009A463300234303D1103352469A439246AC
:104730008023DB0057461F4052461A4219D03300EF
:1047400023432DD0002714E03033DAB27B1C984687
:104750000CABDA554A462B003000210000F0B2FFC6
:10476000A5421FD819D043461F2B1BD84746060029
:104770000C004A462B003000210000F0A3FFD3B20A
:10478000092BE1D95246920605D54122D218D2B260
:104790000A3AD2B2DAE76122F8E7B145E3D901E09B
:1047A0000023984653460693259B0593249B049328
:1047B0004B4603935B460293434601930CAB009335
:1047C0000B9B0A9A09990898FFF7AFFE15B0F0BC49
:1047D000BB46B246A946A046F0BD0000F0B5DE4695
:1047E00057464E464546E0B591B083468A460C9200
:1047F00098461A9C08941B9D099522002B002000C6
:10480000290001F0DEF9002800D0E5E00122524243
:10481000D74B2000290001F0CFF9002800D0DBE0C1
:1048200001225242D34B2000290001F0AFF90028A9
:1048300000D0D1E000220023089E3000099D29000D
:1048400001F0A4F9002800D0DDE00898099906904D
:1048500007918023DB001E9A1A400D921E9A1A427D
:1048600001D106231C930698079904000D000A0045
:104870000600024300D1D1E0080D4005400DBE4CBA
:10488000A44660440A03120BBC4B13431F0001F003
:10489000ABF9BB4ABB4B01F03AF9BB4ABB4B01F049
:1048A00017F904000D000022B94B3000390001F067
:1048B0000AF9B84AB84B01F02AF902000B002000AF
:1048C000290001F005F901F0A7F9814601F08CF902
:1048D00004000D00B14AB24B01F019F90022B14BAE
:1048E00001F0F6F801F098F90600AF4AAF4B20004E
:1048F000290001F00CF904000D00300001F074F9FA
:10490000AB4AAC4B01F003F902000B002000290078
:1049100001F0D9F804000D0002000B0001F0F7F8D7
:104920000A900B91A44BF31800261F0522002B00C0
:104930002000290001F0CCF80E900F9122002B00EE
:1049400000208021C90501F0BEF804000D000022FE
:104950009A4B0A980B9901F0C0F80022984B01F08D
:10496000B7F802000B000A980B9901F0B6F8002284
:10497000944B01F0ADF802000B000A980B9901F07E
:10498000ACF802000B002000290001F0A1F80200A1
:104990000B000E980F9901F0A0F80022774B01F060
:1049A00097F832003B0001F0B2F806000F00040057
:1049B0000D00069A079B01F0FFF8002830D0012374
:1049C0005B429C46E14400227D4B3000390001F0FF
:1049D00084F804000D0023E01E9B04931D9B0393A9
:1049E0001C9B0293089A099B0092019343460C9AE0
:1049F0005146584600F0FCF811B0F0BCBB46B24638
:104A0000A946A046F0BD002300240693079406960D
:104A100080231B069C46654407951AE700239946A8
:104A20004B466333C62B1ED804261E9B1B0526D57A
:104A30002B0023430FD0644A644B0698079901F07A
:104A4000B3F8002879D00022614B0698079901F04D
:104A50009DF8002871D01C9B4B4506DD4A46981AEC
:104A6000431E1C9303E00526DFE700231C938023ED
:104A7000DB001E9A1A431E920026002399461D9BB6
:104A80009E4264D29F1B02231E9A1A400A921E9ACB
:104A9000134202D0002E00D000274B46002B07D037
:104AA00022002B000698079901F017F8069007914D
:104AB000002200230898099901F068F8002848D1DD
:104AC000444B1E9A1340049303971C9B0293069B2E
:104AD000079C0093019443460C9A5146584600F0B7
:104AE00087F8002E00D187E71E9B9B063DD5452504
:104AF000441C4346020051462800D8474B46DA176B
:104B00009B18534005220592013E04960022039211
:104B10000A3202924A46D00F019000934346220087
:104B200051465846FFF78AFD0A9B002B00D163E7E8
:104B300002005F460C9E1D9D54E01C9B002B9ED0E6
:104B40000D9B002B9BD01C9B013B1C9397E70027E0
:104B500099E7069C079D22002900802000068446D4
:104B600061440B0006920793AAE76525C0E7C0469B
:104B7000FFFFEF7FFFFFEFFF01FCFFFF0000F03FB3
:104B8000FB799F501344D33FB3C8608B288AC63F3C
:104B90000000F83F61436F63A787D23F71A3790993
:104BA0004F930A400000E03F1655B5BBB16B024081
:104BB000EF39FAFE422EE63FFF03000000002C40D2
:104BC00000002440000018402D431CEBE2361A3F41
:104BD00080842E41FFF7FFFF541C4346514620209E
:104BE000B8472200931BAB42F6D3100004E7C0463F
:104BF000F0B5DE4657464E464546E0B595B00690C0
:104C0000079193469946209F1E9A1F9B10001900FA
:104C100000F0D7FF002831D101225242BF4B1E982D
:104C20001F9900F0B3FF002837D101225242BC4B3C
:104C30001E981F9900F0C0FF00283DD10022B94BFB
:104C40001E981F9900F0B8FF002850D10022B64BE3
:104C50001E981F9900F09AFF002848D100220023D7
:104C60001E981F9900F092FF002850D1002398460B
:104C7000229B5B0500D4B6E0002458E0229B0393FE
:104C8000219B029303230193A84B00934B465A4662
:104C900007990698FFF7F2FB0EE1229B0393219BF5
:104CA000029304230193A24B00934B465A46079963
:104CB0000698FFF7E3FBFFE00423229A1A402299AB
:104CC0000B4210D09B4B002A0FD004222299039153
:104CD00021990291019200934B465A4607990698F2
:104CE000FFF7CCFBE8E0944BEDE70322EEE7229BD5
:104CF0000493219B039302971E9B1F9C0093019496
:104D00004B465A4607990698FFF768FDD4E01E9A6D
:104D10001F9B0020002100F0D6FE1E901F91012352
:104D20009846A5E70CAB30221A55013F01341F2CE1
:104D300001D8092FF6D81E981F9900F06DFF0500C5
:104D400000F052FF02000B001E981F9900F0BBFEFE
:104D5000FA007A4B9B181A685B680A920B9300F072
:104D6000D6FE0890099100F07BFF060000F038FFA6
:104D700002000B000898099900F0A5FE089009911F
:104D800000226F4B00F018FF00282ED001363000B3
:104D900000F026FF02000B000A980B9900F0FCFEC1
:104DA000002801D001350026002F2CD1280000F06A
:104DB0001BFF02000B001E981F9900F084FE0600E6
:104DC0000F0000225E4B00F0E1FE002846D10022D9
:104DD0005B4B3000390000F0EFFE00283ED1EB07BE
:104DE0003CD501353AE0062746E70022544B0898A7
:104DF000099900F0CBFE0028D6D1002E01D0F30790
:104E0000D2D50136D0E7AA461F2C11D8013F0A217E
:104E1000300000F015FC651C30310CAB19550A212F
:104E2000300000F00DFC092E0ED906002C00EBE737
:104E300055461F2C0CD87B1E002F09D00CAA302100
:104E400011551F000134F4E72B0055461C00F0E714
:104E50001F2C03D80CAB2E221A5501341F2C10D84E
:104E60000A21280000F0C4FB661C30310CAB195538
:104E70000A21280000F0BCFB051E01D03400EDE73C
:104E800034000323229A1340012B1CD01F2C06D878
:104E90004346002B32D00CAB2D221A550134229BF5
:104EA0000393219B029301940CAB00934B465A460B
:104EB00007990698FFF7E2FA15B0F0BCBB46B24678
:104EC000A946A046F0BD219B002B13D04346002BE2
:104ED00002D10C3313420FD0219B013B21931900C7
:104EE00003E00CAB30221A5501348C42CED21F2C79
:104EF000F7D9CBE72199F8E72199F6E7229B5B07E1
:104F000004D50CAB2B221A550134C8E7229B1B0792
:104F1000C5D50CAB20221A550134C0E7FFFFEFFFC7
:104F2000FFFFEF7F65CDCD4165CDCDC18CA10010D8
:104F300090A1001084A1001080A1001078A300109F
:104F40000000E03FF0B5DE4657464E464546E0B528
:104F500093B082468B4690461193002900D1EBE234
:104F600000275546119B1878002800D1E7E2252834
:104F700009D07C1C43463A005946A847119B01338F
:104F800011932700EEE7013311930024119A117851
:104F90000B00203BD8B2102803D88300D048C35858
:104FA0009F460B00303BDBB2092B2CD92A292FD08E
:104FB00000230A93119B1A782E2A39D000239A468F
:104FC000119A1378683BD9B2122976D88B00C5495B
:104FD000CB589F4601231C4301321192D6E702238E
:104FE0001C4301321192D1E704231C430132119278
:104FF000CCE708231C4301321192C7E710231C435E
:1050000001321192C2E711A8FFF726FA0A90D1E700
:105010001C9B1A1D1C921868002804DB0A90119B27
:1050200001331193C6E702231C4343420A93F6E778
:105030008022D20014435A1C11925A781300303B3C
:10504000DBB2092B04D92A2A07D000239A46B7E7F6
:1050500011A8FFF701FA8246B2E71C9B1A1D1C92A9
:105060001868002804DB8246119B01331193A7E7DF
:105070000020F8E780235B002343511C11915278F4
:105080006C2A01D01C0018E0C0239B001C43013196
:10509000119112E080232343511C11915278682A08
:1050A00001D01C0009E0C0231C430131119104E030
:1050B00080235B001C4301321192119B187803007E
:1050C000253BDAB2532A00D92CE29300864AD35802
:1050D0009F4680239B001C4301321192EDE7802301
:1050E0005B001C4301321192E7E7782809D0582869
:1050F00038D06F2838D0622838D010239C430A2635
:1051000000E01026582833D0692803D0642801D045
:105110000C229443630501D50122944369282AD0C7
:10512000642828D0A30500D59FE0E30500D5B8E0AA
:10513000630600D4CAE01C9A111D1C911168FF225D
:105140000A4005940A9B0493534603930296002356
:105150000193009243463A0059462800FFF76EFA41
:10516000070027E01026CDE70826CBE70226C9E78F
:1051700020221443C8E7A30520D4E30550D46306D6
:1051800066D51C9A111D1C911168FF220A40D31785
:10519000D118594005940A9B0493534603930296F1
:1051A000D20F0192009143463A0059462800FFF77A
:1051B00045FA0700119B01331193D3E61C9BDA1DBE
:1051C00007218A43110008311C91116853689C46DD
:1051D000DB170C930D930C9A0D9B100048400E901A
:1051E000624653400F930E980F990C9A0D9B801AAC
:1051F00099410E900F9108940A9B0793534606938A
:105200000496002305936346DA0F02920090019101
:1052100043463A0059462800FFF76EFA0700C9E7EF
:105220001C9A111D1C911268D317D118594005946E
:105230000A9B0493534603930296D20F0192009166
:1052400043463A0059462800FFF7F8F90700B1E74E
:10525000230605D51C9A111D1C910023D25E96E7EA
:105260001C9A111D1C91126891E71C9BDA1D0721E5
:105270008A43110008311C9108940A9B07935346F6
:1052800006930496002305930293136854680093D1
:10529000019443463A0059462800FFF72DFA0700CB
:1052A00088E71C9A111D1C9105940A9B0493534690
:1052B00003930296002301931368009343463A0038
:1052C00059462800FFF7BAF9070073E723060DD502
:1052D0001C9A111D1C9112681204120C31E7C04671
:1052E00098A10010DCA1001028A200101C9A111D2A
:1052F0001C91126825E746281AD01C9B0733072209
:1053000093431A0008321C9204940A9A039252465C
:1053100002925C681B680093019443463A00594628
:105320002800FFF765FC0700119B0133119319E674
:1053300020231C43E1E7672801D0472802D18023BE
:105340001B011C43452801D0472801D120231C43C1
:105350001C9B0733072293431A0008321C920494C3
:105360000A9A0392524602925C681B680093019469
:1053700043463A0059462800FFF730FA0700119BD0
:1053800001331193EEE502231A0022409246234294
:105390001FD001241C9B1A1D1C927A1C9146187860
:1053A00043463A005946A8475346002B16D1119B55
:1053B000013311934F46D5E5561C434659462020EC
:1053C000B847230032005C1C9D42F5D83D00170011
:1053D000E0E701233A002F000A9DF4E74A46A94678
:1053E0000A9D06E0571C434659462020C847340012
:1053F0003A00661CA542F5D84D469146D7E71C9B5E
:105400001A1D1C921B6899465346002B00D1013B84
:105410004E4601E0013613003278002A02D05A1EAF
:10542000002BF7D14B46F21A10928023DB002600A6
:105430001E401C4203D0524501D95346109302230B
:105440001A0022400B92234205D03A0037004C4606
:10545000A946554620E03A00109B5F46B3462E0011
:1054600006E0551C434639002020B04723002A009F
:105470005C1C0A999942F4D835005E46BB461094EC
:1054800037004C46A946554606E01D000134561C1F
:1054900043465946C84732002078002804D0002FE0
:1054A000F4D06B1E002DF0D117004D460B9B002B46
:1054B00003D1119B0133119354E50A9F109B06E021
:1054C000561C434659462020A847230032005C1C46
:1054D0009F42F5D81700ECE721231C431C9B1A1DA3
:1054E0001C921B680093059408230493534603936E
:1054F000102302930023019343463A0059462800A3
:10550000FFF79CF80700119B013311932AE57C1CDF
:1055100043463A0059462520A847119B0133119371
:1055200027001FE57C1C43463A005946A847119BBB
:1055300001331193270015E50A4B9A4610E5AA4658
:10554000474502D343465A1E00E03A0043465946B7
:105550000020D047380013B0F0BCBB46B246A94685
:10556000A046F0BD4944001000B585B002900391FB
:105570000121009313004A4202A90248FFF7E2FC0E
:1055800005B000BD4B44001001480421014B1847F1
:10559000C0040020B955001010B5010018231B8865
:1055A00014221088984710BD10B5010018231B88DD
:1055B00016221088984710BDF0B5C64600B5070002
:1055C0000E0000250123984600E00135B5420AD2BD
:1055D000AC003C192068FFF7DFFF20600028F4D101
:1055E00000239846F1E7404680BCB846F0BD000075
:1055F000124A936F9B0815D29066D166002905D098
:10560000FFE7FFE7FFE7516F106F704704B5802198
:105610000906C2175140002800D0C84303F0D8FE45
:10562000002104BDF0B5146E556E576F166FFFF76D
:10563000E3FF1466556657671667F0BD000000D09B
:10564000114A936F9B0813D210665166002905D04A
:10565000FFE7FFE7FFE7516F106F704704B50028C1
:1056600001D00020C04303F0B3FE002104BDC046BA
:10567000F0B5146E556E576F166FFFF7E5FF1466A1
:10568000556657671667F0BD000000D094464E4A35
:10569000926F9208624601D230E0C046F0B54A4EA1
:1056A000B56F6D08FCD3346E756E776F366F00F092
:1056B00025F89446444A146655665767166762464D
:1056C000F0BDC0469446404A926F9208624601D2AD
:1056D00058E0C046F0B53C4EB56F6D08FCD3346E53
:1056E000756E776F366F00F04DF89446364A146643
:1056F0005566576716676246F0BDC046002B24DB2F
:1057000011D000293EDA00B5C943404200D1013131
:1057100000F038F8C943404200D10131DB43524226
:1057200000D1013300BD002AEBD1002801D10029AE
:1057300005D00020C90FC90701D1C043410800B5F9
:1057400003F03EFE0022002300BD00B500290ADB65
:10575000DB43524200D1013300F014F8C943404208
:1057600000D1013100BDC943404200D10131DB43CA
:10577000524200D1013300F005F8DB43524200D120
:10578000013300BD002923D1002B18D1002A0CD0F1
:10579000BC460D4F38667A6600210023FFE7FFE71D
:1057A000FFE77A6F386F67467047002801D00748D7
:1057B000010000B503F004FE0022002300BD02003A
:1057C0000B00002000217047000000D0FFFFFFFF0A
:1057D000002B00D0BFE0130C28D1002AE7D080B402
:1057E000114F39667A66FFE7FFE730B4040C7B6F30
:1057F000396F1B0423433B667A66FFE7FFE7FFE749
:10580000C04684B27B6F3D6F1B0423433B667A66C0
:10581000FFE7FFE7C04600232C042D0C7A6F386F9A
:1058200000196941B0BC7047000000D0F0B5944643
:105830000025140E01D112020835140F01D11201F6
:105840000435940F01D192000235D40F01D15200DA
:105850000135D40B0134254F7C66254C3C660E0C7B
:1058600093B2FFE7FFE7FFE73C6F6643360C770331
:10587000BE467343DF0B5B04C01AB941130C73437C
:10588000DB18C91ACE086643360CB64493B273438C
:105890001F0F1B01C01AB941130C73431F0B1B05CB
:1058A000C01AB941860D8F023E436643360C092D5E
:1058B00024DB520A7243801A7703460A6643360C89
:1058C00016235B1BDE40DF40BF1964466643821B24
:1058D0007046043506330100D940A840C01900D3F2
:1058E0000131A24206D20023F0BD0000000000D02A
:1058F000FFFFFFFF121B0130F3D3F1E709277F1BE6
:10590000FE406446A2B27243801A00D20139220CD2
:105910007243130C1204821A99410B00704604352D
:1059200013370100F940A840801900D30131002B42
:1059300002D1A2420AD2F0BD013000D30131121BC4
:10594000FAD2013BF8D1A24200D2F0BD013000D31F
:105950000131121BF7E7F0B51C0C00D080E00CB44D
:1059600000251C0A04D11B02160E3343120208350F
:105970001C0B04D11B01160F3343120104359C0B81
:1059800004D19B00960F334392000235DC0B02D109
:1059900092185B4101351C00971864410134464F51
:1059A0007C66464C3C660E0CFFE7FFE7FFE7C0460F
:1059B0003C6F6643360C7703BE4697B27743C01BF5
:1059C00000D20139C01B00D201399FB27743C91BF5
:1059D000C91B170C77437E04FF0B801BB941CE080F
:1059E0006643360C0C2D33DBB644120B1F053A43CD
:1059F0001B0B97B27743C01B00D201399FB277438C
:105A0000C91B170C77433E043F0C801BB941860D20
:105A10008F023E43664329277F1BFE400C3D77469D
:105A2000AF40BF1930BCA2B2ABB272437343801A0D
:105A30009941220C7243130C1204801A99410200FE
:105A40000B000137001BA941F9D2781E0021F0BDDF
:105A50000C277F1BFE4077467F0BAF40FF19E0E726
:105A600000245D1C07D0144F7D663966FFE7FFE711
:105A7000FFE7FFE73C6F95B29EB265436643401B6C
:105A8000B141150C1E0C6543664336042F0C3E4392
:105A90002D04401BB141994204D202000B002000AA
:105AA0000021F0BD01D19042F7D3801A9941013411
:105AB0009942F2D3F6E70000000000D0FFFFFFFF9D
:105AC00048404140484018B4134B5B68019308BDFF
:105AD00018B4114B1B68019308BD94460F4A926F8E
