:020000041000EA
:1000000000B5324B212058609868022188439860DF
:10001000D860186158612E4B002199600221596106
:100020000121F02299502B49196001219960352056
:1000300000F044F80222904214D00621196600F024
:1000400034F8196E01211966002018661A6600F04E
:100050002CF8196E196E196E052000F02FF8012189
:100060000842F9D1002199601B49196000215960AB
:100070001A491B48016001219960EB211966A021F2
:10008000196600F012F800219960164914480160C1
:100090000121996001BC002800D000471248134993
:1000A000086003C880F30888084703B5996A0420EC
:1000B0000142FBD001200142F8D103BD02B5186610
:1000C0001866FFF7F2FF186E186E02BD00000240BE
:1000D000000000180000070000035F00212200005C
:1000E000F4000018222000A00001001008ED00E03C
:1000F00000000000000000000000000074B24E7A12
:1001000000200420F7010010C3010010C5010010F9
:10011000C1010010C1010010C1010010C101001097
:10012000C1010010C1010010C1010010C701001081
:10013000C1010010C1010010C9010010CB01001065
:10014000CD010010CD010010CD010010CD01001037
:10015000CD010010CD010010CD010010CD01001027
:10016000CD010010CD010010CD010010CD01001017
:10017000CD010010CD010010CD010010CD01001007
:10018000CD010010CD010010CD010010CD010010F7
:10019000CD010010CD010010CD010010CD010010E7
:1001A000CD010010CD010010CD010010CD010010D7
:1001B000CD010010CD010010CD010010CD010010C7
:1001C00000BE00BE00BE00BE00BE00BE00F04BF888
:1001D000103800BEF2EB8871C80D0510EC0D05104B
:1001E0003402001090A31AE700202149086006C8D5
:1001F00081F3088810471F48006800282FD10DA4FC
:100200000ECC002902D000F012F8F9E71A491B4A77
:10021000002000E001C19142FCD1194988471949E9
:1002200088471949884700BEFDE701C901C29A42C3
:10023000FBD37047EC0D0510C0000020700F0020AC
:100240009C1C051000000420000004209C1C0510CC
:1002500000100420001004200000000070470B482C
:1002600005F008FE0047EFF30580C0B270470000BC
:1002700008ED00E0000000D000800020503A03208C
:1002800089470010212200104547001057560000F2
:1002900006005250ABB360535C760110060052501A
:1002A000861C03026C760110060052505422A29D57
:1002B0007C76011005005250DE65F4689C1C051028
:1002C000F8B5C04610B5064C2378002B07D1054B76
:1002D000002B02D0044800E000BF0123237010BDB2
:1002E000108102200000000088630110044B10B54B
:1002F000002B03D00349044800E000BF10BDC046F6
:10030000000000001481022088630110F8B5040089
:100310000D0016001F0002F059FC03003A003100E6
:10032000200004F0A5F92561F8BD0120704710B543
:1003300004F0B0F910BDF8B504000E00170000205D
:1003400014E02268BFF35F8F0025156081F31088E9
:10035000002B1CD0451CEDB2B84218D23100200051
:1003600004F09DF930002369984728002268EFF3D4
:10037000108172B61368002BFCD0BFF35F8F238906
:1003800062899B1ADDD5E28901329B18D9E7F8BD55
:1003900070B5040001238B40DDB2013DEDB2FF20BA
:1003A000002307E08021490119435A00084E915368
:1003B0000133DBB21F2B09D82A001A40A242F1D028
:1003C0005A000349034850521800F1E770BDC04677
:1003D0002C810220A0A0FFFF70B52C4B1B78012BB5
:1003E00048D0022B49D0002B41D0052003F09AFDC4
:1003F000274B18688301A022D205944663441B69E9
:10040000DB013DD4012252421000224B19688B01BE
:10041000A025ED05AC4663441B69DB0101D5220034
:1004200008001D4B19688B01A025ED05AC466344FF
:100430001B69DB0101D562000800184B19688B01AC
:10044000A025ED05AC4663441B69DB0102D56200C3
:1004500012190800431C09D08301A021C9058C464C
:1004600063449868201A801801380BD470BD80242A
:100470002402BAE78024E401B7E78024A401B4E7AA
:100480000022C2E7A0000138F0E7C0463E3A032050
:10049000889202208C920220909202209492022054
:1004A00010B5002002F0FBFA012002F0F8FA002457
:1004B00005E0054B185D02F0F2FA0134E4B2034B9B
:1004C0001B78A342F5D810BD949B02203F3A03202D
:1004D00070B5FFF7E5FF01244C4B1C70FFF77CFF64
:1004E0004B4B18604B4B1A689440A021C9054A4BEE
:1004F000CC509301A021C9058C466344DB68DB0125
:10050000F7D4464B1A6801239340080042494350F0
:100510009301A021C9058C466344DB68DB01F7D455
:100520003F4B1A680123934008003B494350930115
:10053000A021C9058C466344DB68DB01F7D4394B45
:10054000196801238B406046334A83508B01A022F7
:10055000D20594466344DA6880235B0414001C408F
:100560001A42F3D1304D2A68303280239B01134365
:1005700001221A600021072002F0BAFB2A682B4BE7
:10058000186804302A4B9A4200D008240019002130
:1005900002F0AEFB2749072002F016FD1D4B18683C
:1005A00009F06AF91D4B186809F066F91C4B1868C8
:1005B00009F062F91B4B186809F05EF91A4C2068C3
:1005C0001A4B1968036801252A008A409343036087
:1005D00009F002FA184B1A681849206809F05AFA0B
:1005E0002068174E036832689540AB4303600022D1
:1005F000316809F099FA3168206809F0EDF9114B7A
:100600001A682068104909F045FA70BD2D3A032098
:10061000B89B022088920220440400008C920220A1
:10062000909202209492022018880220943803208D
:1006300000002050D104001014880220E46401104E
:1006400098380320D83803200806002070B5FFF73B
:1006500027FF0124484B1C70FFF7BEFE474B186074
:10066000474B1A689440A021C905464BCC509301D2
:10067000A021C9058C466344DB68DB01F7D4424BFB
:100680001A680123934008003E4943509301A0217A
:10069000C9058C466344DB68DB01F7D43B4B1A6821
:1006A000012393400800374943509301A021C90515
:1006B0008C466344DB68DB01F7D4354B19680123B2
:1006C0008B4060462F4A83508B01A022D20594466E
:1006D0006344DA6880235B0414001C401A42F3D19F
:1006E0002C4D2A68303280239B01134301221A606B
:1006F0000021072002F0FCFA2A68274B1868043012
:10070000264B9A4200D008240019002102F0F0FA8A
:100710002349072002F058FC194B186809F0ACF87F
:10072000194B186809F0A8F8184B186809F0A4F8D4
:10073000174B186809F0A0F8164B1868164B196883
:10074000036801228A409343036009F045F9154B81
:100750001B78002B07D0144B1A680E4B18681349EE
:1007600009F098F970BD104B1A680A4B18681049C7
:1007700009F090F9F6E7C0462D3A0320B89B022015
:1007800088920220440400008C9202209092022061
:1007900094920220188802209438032000002050F0
:1007A0004D060010413A03201488022030650110E4
:1007B0001865011070B5FFF773FE0124494B1C70DA
:1007C000FFF70AFE484B1860484B1A689440A02176
:1007D000C905474BCC509301A021C9058C46634401
:1007E000DB68DB01F7D4434B1A6801239340080010
:1007F0003F4943509301A021C9058C466344DB68FF
:10080000DB01F7D43C4B1A680123934008003849B8
:1008100043509301A021C9058C466344DB68DB018A
:10082000F7D4364B196801238B406046304A835019
:100830008B01A022D20594466344DA6880235B04CE
:10084000100018401A42F3D12D4B1A6811003031B4
:1008500080239B010B43012119602A4B1B68043341
:1008600029498A4200D008201818002102F040FAD5
:100870001E4B186809F000F81E4B186808F0FCFFC2
:100880001D4B186808F0F8FF1C4B186808F0F4FFBF
:100890001B4D28681B4B19680368012422008A40FD
:1008A0009343036009F098F8184B1A6828681849B0
:1008B00009F0F0F8174D2868174E03683268944025
:1008C000A34303600022316809F02EF931682868DB
:1008D00009F082F8114B1A682868114909F0DAF812
:1008E00070BDC0462D3A0320B89B0220889202209A
:1008F000440400008C9202209092022094920220E4
:100900001888022094380320000020501488022008
:1009100000650110DC38032098380320D838032004
:100920002406002010B5064B1B78022B00D010BD0A
:10093000044B1B681B6BDB07F9D5FFF73BFFF6E7A2
:10094000403A032018880220F8B50500012800D19C
:1009500063E1022800D163E1002800D15AE10120BF
:1009600008F092FFE44C2060012008F08DFFE34B7B
:100970001860012008F088FFE14B1860012008F0A2
:1009800083FFE04B18602268DF4B0C2A00D94AE154
:10099000DE490B40D20213430C229343043A134323
:1009A000DB4A1340DB4A1340DB4A13400122134366
:1009B000DA4A1340022293430E3293431032134318
:1009C000022D00D935E10C229343AA001343CB4AF0
:1009D00012680C2A00D932E1CC491940D3020B43EA
:1009E000CF4A1068CF4A12680432CF49884200D1FA
:1009F0002BE1082152183F2A00D928E1CB491940A0
:100A0000D3030B43C24A1340F822D2001343BB4A1C
:100A10001168BD4A0C2900D91FE1BC480240C90237
:100A20000A430C218A4304390A43B9490A40B949A7
:100A30000A40B9490A4001210A43B8490A40022143
:100A40008A430E318A4310310A43022D00D90AE14C
:100A50000C218A43A9000A43A94909680C2900D935
:100A600007E1AA481040CA020243AD490C68AD49EB
:100A700009680431AC48844200D100E1082009181B
:100A80003F2900D9FDE0A9481040CA030243A0490C
:100A90000A40F821C9000A43994908689A490C2874
:100AA00000D9F4E0994C2140C00201430C2081435D
:100AB0000438014396480140964801409648014059
:100AC0000120014395480140022081430E308143BB
:100AD00010300143022D00D9DFE00C208143A80033
:100AE0000143884800680C2800D9DCE0874C0C40A2
:100AF000C10221438A4807688A48006804308A4C4A
:100B0000A74200D1D5E0082400193F2800D9D2E03F
:100B1000864C0C40C10321437D480140F820C000B1
:100B2000014378480068784C0C2800D9C9E0774F19
:100B30003C40C00204430C208443043804437448FE
:100B4000044074480440744804400120044373483E
:100B50000440022084430E30844310300443022DAD
:100B600000D9B4E00C208443AD002C4362480568F2
:100B70000C2D00D9B1E065482040EC0204436848E0
:100B800007686848056804356748874200D1AAE0CD
:100B900008202D183F2D00D9A7E064482040EC0321
:100BA00004435B480440F820C000044355480768EC
:100BB0005B48006884465B480068083085006544EF
:100BC000BF01A020C005844667443D605848786056
:100BD000BE603C614A4C2468A40164442560554FC2
:100BE000C7196760A66021614449096889016144A9
:100BF0000D60514C04194C608E600A613E4A1268C7
:100C00009201624415604D498C4660445060966084
:100C1000D360F8BD80263602A1E68026F6019EE666
:100C20008026B6019BE6464B464AC421464803F05F
:100C30008DFD464B464AD221434803F087FD404B89
:100C4000404AC421404803F081FD0021D2E6414BD7
:100C5000414AB6213C4803F079FD394B394AC42159
:100C6000394803F073FD394B394AB231364803F045
:100C70006DFD334B334AC421334803F067FD002038
:100C8000FDE6344B344AB6212F4803F05FFD2C4B70
:100C90002C4AC4212C4803F059FD2C4B2C4AD2215C
:100CA000294803F053FD264B264AC421264803F069
:100CB0004DFD002428E7274B274AB621224803F0A0
:100CC00045FD1F4B1F4AC4211F4803F03FFD1F4B2A
:100CD0001F4AD2211C4803F039FD194B194AC4217F
:100CE000194803F033FD002053E71A4B1A4AB62186
:100CF000154803F02BFDC046889202208C920220FA
:100D0000909202209492022010801F00FF87FFFF24
:100D10003FF8FFFFFFFFBFFFFFFFDFFFFFFF7FFF8A
:100D2000188802209438032000002050FF7FE0FF45
:100D3000000002200080FFFF0000FFFF0080FEFF98
:100D40008863011060650110A8630110F46301104D
:100D50007C650110386401104865011010B50D4B19
:100D60001B78002B0CD1EFF3108472B60A4B1B7862
:100D7000002B06D0012B07D0022B08D084F310885B
:100D800010BDFFF763FCF9E7FFF7A2FBF6E7FFF7FB
:100D900011FDF3E72D3A0320403A0320F0B5DE467B
:100DA00057464E464546E0B597B004900D00039275
:100DB000059320AB1E7821AB1F7822AB1B78994698
:100DC00023AB1B889B4624AB1C78012C23D0022C20
:100DD00025D0002C1BD0039BEB18634500D309E200
:100DE000534B0499994200D90CE2182E00D90BE21A
:100DF0000F2F00D90AE24946052900D908E2002947
:100E000000D107E2CB19102B0DDD0020F3E1802388
:100E10009B029C46DFE780235B029C46DBE7802346
:100E20001B029C46D7E7802292020021414805F030
:100E30001FFD414B1D60414B039A1A60404B1E70D1
:100E4000404B01221A70404B1C700023059806E0AD
:100E5000C25C3E49895C3E4AD1540133DBB2B342A5
:100E6000F6D33A4BDB5D1A0005933A4B1A70052016
:100E700003F026FE05F02EFC051C049B580005F02F
:100E800029FC011C281C05F00AFC061C324B334AC5
:100E90001A60334F334D3D60280008F027FE3B6851
:100EA000AB420ED00721002001F04EFD2A4B1A68FC
:100EB0002C4B9A4207D00721012001F045FD002567
:100EC00008E00621EFE70621F6E7062101F03CFDE8
:100ED0000135EDB2172D08D81F4B1A681B4B585D12
:100EE000204B9A42F1D00721F0E71B4D01212868E1
:100EF00008F082FD02001C4B1860286853009B1804
:100F0000DB00D033C318802149010B43802109063F
:100F10001960196003680432012191400B4303609A
:100F2000124908F09BFD124B186000252EE0C046C8
:100F300000E1F50500800020B09B0220AC9B022060
:100F40003F3A03203D3A03203E3A0320A4650110B6
:100F5000949B0220433A032018880220000030505E
:100F6000DC38032000002050943803200065011075
:100F700014880220A84B5A5DA84B1968A84B186822
:100F800000230093013308F041FE0135172DF1DDF8
:100F9000A44B1F68102200210AA805F069FC8025D7
:100FA0006D020A95F8235B020B938023DB020C93FE
:100FB000C0231B030C9310220AA906A805F05EFCAF
:100FC000BA1C0337079B0493974B04990B40D2013B
:100FD00013433F033B430793102206A90EA805F0D5
:100FE0004DFC119B0493914B049A13401D431195A2
:100FF000301C05F097FB85B2002D00D1F6E02800EB
:1010000005F068FB011C301C05F043FB8721C90576
:1010100005F059FB05F086FBC3B21B022D041D43EE
:101020000E95109B0493824A1A40824B13431093EF
:101030000F9B0493804A1A4080235B0413430F9351
:10104000774B1A681100303180239B010B4301213B
:101050001960724B18680430784B9A4200D1C7E08F
:101060000823C018012101F043FE6E4B1A686B4F34
:101070006B4B98460EAB39684046006808F0FEFDA1
:101080006F4D0121286808F0B7FC6E4E30602A6869
:1010900043001B18DB00D033D318802149010B43D8
:1010A000802109061960196013680430012181400C
:1010B0000B4313605B46D8B24946FFF769F96249B2
:1010C000286808F0CBFC614B9A46186031682868A4
:1010D00001230093002208F099FD3168286800235D
:1010E00000934B46059A914608F090FD53461E68C2
:1010F000102200210AA805F0BBFB80256D020A958D
:10110000F8235B020B938023DB020C93C0231B03A9
:101110000C9310220AA906A805F0B0FB33001F3378
:101120001A00079B0493404B04990B40F60133438C
:1011300012031343079309990491CA00D20880212E
:1011400089050A430992424A13400793102206A9CF
:1011500012A805F093FB102212A90EA805F08EFB31
:10116000119B0493314B04990B404A46D20313431D
:101170001193384A13408022D20413431193364A04
:10118000134011930E952000FFF7DEFB43461D68C8
:101190003C682A680123A3409A4313432B60039AB7
:1011A000013A696820001030012383400B42F8D1D6
:1011B0000434A4006251254B1A68224C204D0EAB1A
:1011C0002168286808F05AFD296820680A68012308
:1011D00083409A4313430B600023204A1370204A34
:1011E0001370204B02221A70012004E0002314E740
:1011F000002336E7002017B0F0BCBB46B246A94634
:10120000A046F0BD0020F6E70020F4E70020F2E75A
:101210000020F0E70020EEE7A465011094380320D9
:1012200018880220148802207F00FEFFFF7FF0FF55
:10123000FFFF0AFE0000D101FFFFFFE00000205089
:10124000DC3803209838032024060020D8380320F7
:10125000FFFFFF9F1FFCFFE3FF83FFFF2D3A0320EB
:101260002E3A0320403A0320F0B5DE4657464E465C
:101270004546E0B595B002908846140003931EAB36
:101280001E781FAB1B789B4620AB1B789A4621AB80
:101290001F8822AB1D78012D24D0022D26D0002DD1
:1012A0001CD043461B19634500D31AE2534B029AE4
:1012B0009A4200D91DE2182E00D91CE25B460F2B82
:1012C00000D91AE25346102B00D918E2002B00D1A6
:1012D00017E25B44102B0DDD002003E280239B020C
:1012E0009C46DEE780235B029C46DAE780231B02F4
:1012F0009C46D6E7802292020021414805F0B8FAC8
:10130000404B42461A60404B1C60404B1E70404BA5
:1013100001221A703F4B1D700023039806E0C25C47
:101320003D49895C3D4AD1540133DBB2B342F6D327
:10133000394B5A469B5C1A000393394B1A700520AF
:1013400003F0BEFB05F0C6F9061C029B580005F031
:10135000C1F9011C301C05F0A2F98146314B9846B9
:10136000314E1E60300008F0C1FB43461B68B3429B
:101370000ED00721002001F0E7FA2A4B1A682A4B09
:101380009A4207D00721012001F0DEFA002608E08A
:101390000621EFE70621F6E7062101F0D5FA01362E
:1013A000F6B2172E08D81F4B1A681B4B985D1E4BC0
:1013B0009A42F1D00721F0E71A4E0121306808F077
:1013C0001BFB0200194B1860306853009B18DB00B0
:1013D000D033C318802149010B43802109061960CD
:1013E000196003680432012191400B4303601049E6
:1013F00008F034FB0F4B1860002629E000E1F505EA
:1014000000800020B09B0220AC9B02203F3A0320CA
:101410003D3A03203E3A0320A4650110949B02202C
:10142000433A0320188802200000205094380320FB
:10143000E464011014880220B34B9A5DB34B196821
:10144000B34B186800230093013308F0DFFB01362B
:10145000172EF1DDAF4B1B6898461022002108A81B
:1014600005F006FA802676020896F8235B020993B7
:101470008023DB020A93C0231B030A93102208A9CE
:1014800004A805F0FBF94346D91C1A1D059B0293DD
:10149000A14B02980340C9010B4312031343059368
:1014A000102204A90CA805F0E9F90F9B02939B4BAD
:1014B000029A13401E430F96484605F033F986B250
:1014C000002E00D109E1300005F004F9011C484666
:1014D00005F0DFF88721C90505F0F5F805F022F9D8
:1014E000C3B21B0236041E430C960E9B02938C4A19
:1014F0001A408C4B13430E930D9B02938A4A1A4059
:1015000080235B0413430D93814E32681100303108
:1015100080239B011943012008602D32FF321343C1
:10152000802252001A608149063001F00BFC012133
:10153000072001F0DDFB3268744B186804307C4BE7
:101540009A4200D1CBE00823C018012101F0D0FB62
:10155000704B1A686D4B99466D4E0CAB4946096845
:10156000306808F08BFB0121306808F045FA020072
:10157000704B9B461860306853009B18DB00D033DB
:10158000C318802149010B438021090619601960A5
:1015900003680432012191400B430360664B5246BD
:1015A0001343664A5381664908F058FA654B9846DA
:1015B00018605B461968306801230093002208F028
:1015C00025FB5B4619683068002300935346039A55
:1015D00008F01CFB43461B6898461022002108A80F
:1015E00005F046F980235B029A460893F8235B02D4
:1015F00009938023DB020A93C0231B030A93102262
:1016000008A904A805F03AF9434608331A00059BD7
:101610000293414B02990B404146C9010B4312030F
:1016200013430593102204A910A805F027F91022EE
:1016300010A90CA805F022F90F9B0293374B0299D1
:101640000B40039AD20313430F933F4A1340802267
:10165000D20413430F9353460C930E9B0293304BCB
:10166000029A13400E935B4619680CAB42463068F1
:1016700008F004FB2800FFF767F932684B461D6845
:1016800011680123AB4099430B431360013C51683F
:1016900028001030012383400B42F8D10435AD00FF
:1016A000AC50244B1C6811680123A34099430B43A1
:1016B0001360516820001030012383400B42F8D1A1
:1016C0000434A400A7500023204A1370204A13704A
:1016D000204B01221A70012004E0002301E70023BF
:1016E00032E7002015B0F0BCBB46B246A946A04682
:1016F000F0BD0020F6E70020F4E70020F2E700202C
:10170000F0E70020EEE7C046A465011094380320FE
:1017100018880220148802207F00FEFFFF7FF0FF60
:10172000FFFF0AFE0000D101FFFFFFE0D10400101F
:101730000000205098380320406000001006002070
:1017400008060020D83803201FFCFFE32D3A0320B1
:101750002E3A0320403A0320F0B5DE4657464E4667
:101760004546E0B591B003908B4615001C001AABBE
:101770001F781BAB1B789A461CAB1B7898461DAB99
:101780001E78012E19D0022E1BD0002E11D05B46E0
:101790005B19634500D39AE1D34B039A9A4200D96F
:1017A0009DE1182F00D99CE15346182B0DD900203C
:1017B0008EE180239B029C46E9E780235B029C46E6
:1017C000E5E780231B029C46E1E78022920200218C
:1017D000C64805F04DF8C64B5A461A60C54B1D6009
:1017E000C54B1F70C54B42461A70C54B00221A707C
:1017F000C44B1E70002106E0635CC34AD25CC34B3D
:101800005A540131C9B2B942F6D3BF4B52469B5C20
:101810009946BF4B4A461A70052003F051F904F06F
:1018200059FF041C039B580004F054FF011C201CAA
:1018300004F035FF071CB74CB748206008F056F994
:101840000121206808F0D8F80200B44B1860206825
:1018500053009B18DB00D033C318802149010B4390
:101860008021090619601960036804320121914042
:101870000B4303604346002B06D0A94908F0EEF85D
:10188000A84B1860002411E0A74908F0E7F8A54B21
:101890001860F7E79C4B1A5DA04B19689D4B1868C0
:1018A00000230093013308F0B1F90134172CF1DD66
:1018B000002404E0062101F047F80134E4B2172CBB
:1018C00008D8944B1A68904B185D934B9A42F1D00C
:1018D0000721F0E7914B19688E4C20680023009394
:1018E00001334A4608F092F922688B4B9A4200D1A4
:1018F000BBE00721484601F027F84346002B00D102
:10190000B5E0884B1C681022002108A804F0B0FF45
:1019100080235B020893F8235B0209938023DB0298
:101920000A93C0231B030A93102208A904A804F0F9
:10193000A5FFE21D059B03937C4B03990B40E4013B
:101940002343120313430593102204A90CA804F0A7
:1019500095FF0F9B0393764A1A4080235B02134343
:101960000F93381C04F0DEFE84B2002C00D1A8E0F6
:10197000200004F0AFFE011C381C04F08AFE872111
:10198000C90504F0A0FE04F0CDFEC3B21B0224047E
:101990001C430C940E9B0393664A1A40A023DB025F
:1019A00013430E930D9B0393634A1A404B461B0649
:1019B00013430D93574C22681100303180239B0153
:1019C0001943012008602D32FF3213438022520058
:1019D0001A605A49063001F0B5F90121072001F0DB
:1019E00087F922684D4B186804304B4B9A426AD0F5
:1019F0000823C018012101F07BF94A4B1A68474CB3
:101A0000444F0CAB2168386808F038F9396823680E
:101A10000433414A914258D008229B181F22134098
:101A200001273A009A40464B1A603000FEF78CFFBF
:101A3000384B1C68394B186823688740BB431F43E9
:101A40002760013D62680100103101238B40134281
:101A5000F8D104308000055100233A4A13703A4A05
:101A600013703A4A1370012032E0062142E72D4BF1
:101A70001C681022002108A804F0FAFE80235B02F3
:101A80000893F8235B0209938023DB020A93C023A7
:101A90001B030A93102208A904A804F0EFFEA21C5D
:101AA0000334059B0393214B03990B40D20113434D
:101AB000240323430593102204A90CA804F0DEFE9E
:101AC00047E7002362E7002393E70022A5E7002011
:101AD00011B0F0BCBB46B246A946A046F0BD0020FE
:101AE000F6E70020F4E7C04600E1F505008000209D
:101AF000B09B0220AC9B02203F3A0320413A0320D6
:101B00003D3A03203E3A0320A4650110949B022035
:101B1000423A032018880220000020509438032005
:101B20001865011014880220306501107F00FEFF47
:101B3000FF7FF0FFFFFF0AFEFFFFFFE04D060010F2
:101B400080E200E02D3A03202E3A0320403A0320A1
:101B5000024B187801235840C0B270472D3A032039
:101B6000F0B5DE4657464E464546E0B583B0814661
:101B70008C4693465A4B1B78002B22D1594B187830
:101B8000012839D002283BD0002831D0564B1968A3
:101B9000564B1B68C9184A1E554B1B689A4233D9CD
:101BA0005B1A4344013B534A1360524B1E680128A1
:101BB0006ED002284AD0002800D18BE0484B012289
:101BC0001A70484B1B785A461370474B1B68474A9C
:101BD00012689B184A461360464B62461B681360A6
:101BE000454803B0F0BCBB46B246A946A046F0BD8E
:101BF00080239B029846C9E780235B029846C5E78D
:101C000080231B029846C1E75B1A0133394A1360EF
:101C1000CBE73A4B995C023901238B402340891A68
:101C2000CB4018430132364B1B789342F1DC01362E
:101C30002860B04500D800260137BA45BED9B500A6
:101C40002D4BED182C6800220020ECE700231F002C
:101C50008A46F2E7294B995C023901238B40034005
:101C6000891A0B411F43BFB20132254B1B789342A7
:101C7000F0DC01362F80B04500D800260134A245A3
:101C80009CD973001C4A9D18D05A00220027ECE70B
:101C900000248A46F3E7194B185D0238012383407C
:101CA0002B40001B03411A43D2B20134144B1B7862
:101CB000A342F0DC01360A70B04500D80026013797
:101CC000BA4500D87AE70C4BF1189D5D019B0024C2
:101CD0001A00EBE7002301901F008A46F0E7C04698
:101CE0002E3A03203E3A0320B09B0220AC9B0220F8
:101CF000B89B0220B49B022000800020949B02200D
:101D00003F3A032010B5C0B001007622684604F0C7
:101D1000B5FD1C481C4908F041FAEFF3108472B677
:101D200080214901194814F00FFB002305E0C0464B
:101D3000C046C046C046C0460133FA2292009342D4
:101D4000F5DB802252006946104814F0E5FA0023C2
:101D500005E0C046C046C046C046C0460133FA2230
:101D600092009342F5DB84F310880648064908F098
:101D700041FA0028F9D0FA20400001F0E1FF40B01C
:101D800010BDC04600C0C678D11E010000F01F0083
:101D900030B58BB0040000291BD003236A461371B1
:101DA00014F002F9C5B221236A460432D554202228
:101DB00000216B46581D04F05BFD2A0021006B4694
:101DC000581D04F05BFD01A90348FEF7B0FA0BB003
:101DD00030BD04F0E5FEFAE750970220F0B5D64694
:101DE0004F464646C0B5B0B006000F00079200242B
:101DF00006E01278552A10D0B24B00221A70013436
:101E0000BC4200D358E1AF4A15786B1CDBB21370AB
:101E1000315DAD4A5155012BEBD0022B0FD0022B77
:101E2000EDD906939A1EA848825CAA2AE7D15A1EC9
:101E3000825C552AE3D1002200218A4615E0A24A9D
:101E40005278AA2AEBD09F4B00221A70D7E70132B2
:101E50009D488446805C013DFF3D454060465146BB
:101E6000455401208446E24401320699914207DD3F
:101E7000954DAD5CF02DEAD0934851464554F0E7BE
:101E8000914A9278012A15D0022A00D1A9E0002AAD
:101E900004D007998D48FFF77BFF09E1052B04D09B
:101EA00007998A48FFF774FF02E107998848FFF70E
:101EB0006FFFFDE0874B884A13601B78012B33D0FE
:101EC000022B5DD0804D6B792F22AA5C91460922AE
:101ED0009446AC442232A95CEA6A12020A43904654
:101EE0002721685CA96A090201432320285C8246F5
:101EF000686A0002524610434A4603925A1E9341B2
:101F000002932B7901932123EB5C009363464246B5
:101F1000FFF722FC00285FD007997048FFF738FFD1
:101F20006F4B01221A70C3E0674D2E33EB5C092220
:101F30009446AC442232A95CEA6A12020A439246F1
:101F40002721685CA96A090201432320285C814695
:101F5000686A00024A4610430493EB7999462B7A4B
:101F60001B024A46134303936B7902932B79019327
:101F70002123EB5C009363465246FFF775F9C9E7EE
:101F8000514D2D33EB5C09229446AC442232A95CBE
:101F9000EA6A12020A4392462721685CA96A09028A
:101FA00001432320285C8146686A00024A461043A8
:101FB0000493EB7999462B7A1B024A461343039309
:101FC0006B7902932B7901932123EB5C0093634699
:101FD0005246FEF7E3FE9DE707994248FFF7D8FE19
:101FE00066E03C4D404B1D6012AB9946EB1E9A4695
:101FF00021222900484604F041FC290021314022D9
:10200000612002AB9C46604404F038FC2900613139
:102010001022A12002AB9C46604404F02FFC5346E2
:102020005B6F1B021A0C944672234946CA52002366
:1020300006E012AAD15C7420155A491911520133D5
:10204000202BF6DD00233F2B09DC12AAD118213109
:1020500009787420155A491911520133F3E7002306
:1020600008E012AAD118613109787420155A49196B
:10207000115201330F2BF4DD12AD7422AB5A6344BD
:102080009BB2AB5219498C466344AB522800FFF710
:1020900039FE76222900164804F0F0FB09A9022334
:1020A0000B701448FEF743F907991348FFF770FEC9
:1020B000044B00221A70A2E630B0E0BCBA46B1462A
:1020C000A846F0BD2B3A0320C43503204C64011010
:1020D00060640110C7350320783603207C6401104A
:1020E0002F3A032090640110FC3803200F0F0000EA
:1020F0008439032050970220A064011010B582B0EB
:102100000400002004F05CFD431C0ED06B46D87127
:10211000002C02D0200002B010BD002201216B462D
:10212000D81DFFF75BFE0134F4E70024F2E710B599
:10213000002004F045FD431CFAD110BD10B5037812
:10214000022B16D007D8002B0FD0012B10D1104B2B
:1021500001221A700CE0032B0AD10E4B1B78002BC6
:102160000DD00D4B01221A7002E00C4B01221A70A7
:1021700010BD074B00221A70FFF7D9FFF8E7431C88
:102180008122815C803A1800FFF728FEF0E7C04604
:102190004F3A0320493A0320363A0320353A0320C8
:1021A00010B504000A48FEF7C0F8002C05D0094B12
:1021B00001221A70084B00221A70082207490448AD
:1021C000FEF7B9F8034B00221A70034B187810BDC4
:1021D000FC390320493A0320363A03200039032012
:1021E00010B5064B1B78002B03D00020FFF7D8FF5B
:1021F00010BD0020FFF782FFF7E7C0464F3A0320EB
:1022000010B5064B1B78002B04D10120FFF776FF99
:10221000002802D10120FFF7C3FF10BD4F3A032071
:1022200070B58CB003AB02AA01A9744800F034FB6E
:10223000002803D17149724802F022FB039A0299E7
:10224000019800F0EDFA04F0B7FC082382226D49F2
:102250006D48FEF75BF86D4807F07CFF04E0012253
:102260006B496948FEF767F86A4B1B78002BF6D07C
:10227000FA20800001F064FD80220021664804F00D
:10228000F7FA03A900230B706448FEF750F851E0F9
:1022900001AC207804F01EFC607804F01BFCA078F0
:1022A00004F018FCE07804F015FC6BE0019B5B0087
:1022B0000193029B5B0002936EE0019B9B000193E4
:1022C000029B9B00029367E00134013384420FD2EA
:1022D0001F2B0DDC029A511C0291B55C03AAD21887
:1022E0005570802292029142EED300220292EBE7D7
:1022F00003A921228B544948FEF719F8019884421A
:1023000015D20023E2E70134019B9C420FD2029BCD
:102310005A1C0292F05C04F0DDFB80239B02029ABF
:102320009A42F0D300230293EDE70024ECE73C4B04
:1023300000221A703A4B1B78002B5CD0FFF708FC88
:10234000002832D16B46DA1C02A901A8FFF708FC6D
:102350000600642001F0F4FC324B1B78002B97D070
:1023600003236A4613731E33042269460C2009189E
:10237000CA5401A90130684404F080FA03A927482F
:10238000FDF7D5FF642001F0DBFC6B4603331B78BF
:10239000012B8BD0022B90D0224B1B78002BC4D06A
:1023A00003AB03221A700024A8E703A901230B70D2
:1023B0001A48FDF7BCFFFA20800001F0C1FCFFF7CE
:1023C0001FFF00280AD0FEF7C9FC0023144A13702F
:1023D00003A90B701148FDF7AAFFABE703A900237F
:1023E0000B700E48FDF7A3FFFEF79CFAFA20800061
:1023F00001F0A6FC9EE7FFF7F3FE9BE7400D03000C
:10240000B06401103D210010FC390320C9270010E1
:1024100000390320353A0320C435032050970220A9
:102420002F3A03204F3A032030B5A3B00800141E02
:102430001ED100291FD0144B1B68002B1ED1134B3B
:102440001B78042B1DD1104D296011490CF01EFD85
:10245000286810490CF01FFD0C4B05221A7001A9C9
:1024600001230B700C48FDF762FF200023B030BD44
:1024700006204042FAE706204042F7E706204042A5
:10248000F4E706204042F1E720880220323A032098
:102490002125001005250010FC39032010B57622F7
:1024A0000249034804F0EAF910BDC04600F01F10CD
:1024B0008439032010B5054B1868002804D00CF0AF
:1024C0009DFF024B00221A6010BDC04688370320D2
:1024D00010B50A4B186800280CD000210CF0D6FC6F
:1024E000064C002120680CF0D6FC20680CF086FF1A
:1024F00000232360024B04221A7010BD20880220A2
:10250000323A032000B5A3B0FFF7E2FF01A902238E
:102510000B700248FDF70BFF23B000BDFC39032010
:10252000F0B5A3B0171E04D01589002D01D00026E8
:1025300024E038000BF08FFFFFF7CAFF01A9022348
:102540000B701548FDF7F3FE0D20404221E00322F9
:1025500069460A717E3204318B54FF241C403300DB
:1025600022006946053138000CF030F901A90A480B
:10257000FDF7DDFE3619B6B22D1BADB2002D04D02D
:102580002B1C802DE3D98023E1E738000BF063FF9B
:10259000002023B0F0BDC046FC39032030B5A3B005
:1025A00005000C0004E007F0EDFF012001F0C8FB7E
:1025B0000D4B1868002804D06423C25AA3B29A4273
:1025C000F1D3A2B2012329000EF0EEFF002801D1C1
:1025D00023B030BDFFF77CFF01A902230B70034835
:1025E000FDF7A5FEF4E7C04620880220FC39032051
:1025F00010B500200CF06EFE0C4B18600C4A7223D4
:10260000D25A92B20B490CF005FB002801D00020F1
:1026100010BD064C012120680CF0C8FB206000288A
:10262000F5D005490CF03CFCF2E7C04688370320A2
:1026300084390320048602202924001010B50D4996
:10264000080021380C4B0D4A07F096FE002801D0F7
:10265000002010BD0A4C21000A4812F06BFF0A4B03
:10266000186821000BF0AEFC084B01221A70012003
:10267000EFE7C046A5390320102700000400400002
:1026800004860220E539032048360320283A032037
:1026900010B5064B1B78002B00D110BD002104485B
:1026A0000BF094F8014B00221A70F6E7283A032049
:1026B0005888022010B50378022B17D008D8002BB9
:1026C0000FD0012B11D10021002007F0EBFE0CE010
:1026D000032B0AD1431C2122815C1800FFF75EFF07
:1026E00003E00121002007F0DDFE10BDFFF7F0FE42
:1026F000FFF7E0FEFFF7CCFF014B00221A70F4E772
:10270000323A032010B52C4B1B78022B44D0032BFC
:102710004AD0002B00D010BD284B1B78002B05D0D1
:10272000264B01221A700022002107E0FFF7B6FEB7
:10273000F6E7234B9B5C591889B20132202AF8DD59
:10274000002206E01E4B9B1821331B78591889B2D2
:1027500001323F2AF6DD002206E0194B9B18613357
:102760001B78591889B201320F2AF6DD144A7223F8
:10277000D35A5B189BB213498C4663449BB27421B5
:10278000525A92B29A4203D00B4B01221A70C2E7FE
:10279000094B02221A70BEE7FFF750FF0028BAD09B
:1027A000054B03221A70B6E7FFF722FF0028B2D0CC
:1027B000014B04221A70AEE7323A0320293A032073
:1027C000843903200F0F000000B5A3B00823222294
:1027D0000E490F48FDF79AFD07F0CEFC07F074FE96
:1027E00007F040FE01A900230B700A48FDF79FFD8A
:1027F000082209490648FDF79EFDFFF783FF074BB6
:102800001B78022BF4D907F0BDFEF1E7B5260010C6
:1028100050970220FC3903202C970220323A0320E3
:10282000F0B583B004000D00160000F0B5F90028E3
:1028300001D003B0F0BD154F00973B0001220121EC
:10284000053002F03BF800962B00220001211048D1
:1028500002F03CF931006943200003F05FFB040003
:102860000C4B009300220221042002F027F8009470
:10287000230000220121052002F020F800973B00F0
:1028800002220021062002F019F8D2E7006CDC02D7
:1028900000800240001BB700F0B5DE4657464E46AA
:1028A0004546E0B583B080468B46009201930420F4
:1028B00002F006F9FA21890003F030FB8246A023DA
:1028C0005B0099462CE0013C002C20D025007D4384
:1028D0002900300003F022FB4045F4D129003000EC
:1028E00003F01CFB0029EED173019B1B9B009E197A
:1028F000F6005B461E60009B1F60019B1C60012070
:1029000003B0F0BCBB46B246A946A046F0BD013FAD
:10291000002F01D03C00D7E701235B429C46E144F5
:102920004B460F2B09D956464B465E43044BF218D3
:10293000044B9A42F0D80727EAE70020E0E7C046B8
:10294000508EF4FF50F80C0010B58300084A9446EE
:1029500063441C6840226240C0241440802252011B
:1029600013431C60C000034B9C466044416010BD93
:1029700004C001400040014080000B4B9C46604475
:1029800000290DD00823002A0CD00422134302682A
:1029900053400C22134080225201104303607047C1
:1029A0000023F0E70022F1E704C00140002909D02C
:1029B0008000094B9C46604480239B0118430223FE
:1029C000036070478000044B9C466044C0239B0119
:1029D000184302230360F4E704C0014070B5D0231C
:1029E0001B061B689D00094C2C59204207D19B00F7
:1029F0002043064C18510D2000F0CEF970BD044B59
:102A0000044ACC21044801F0A1FEC04664360320EC
:102A1000C06501102C660110EC650110072303400E
:102A20009B00C00899403C308000014BC15070476A
:102A300000400140F8B507000C0016001D00FFF72C
:102A4000EDFFFB089B00ED18072038408000844014
:102A5000002E04D080239B011D432C60F8BDC023B1
:102A60009B011D432C60F9E710B5D0231B061B68A2
:102A7000002B03D0024BFFF7DDFF10BD014BFAE73F
:102A8000304101400041014010B501238340D02274
:102A90001206936293610521FFF756FF10BD10B532
:102AA0001F21FFF751FF10BDEFF3108072B6034BEB
:102AB0001B68002BFBD0BFF35F8F70472C0100D049
:102AC000BFF35F8F024B00221A6080F310887047BB
:102AD0002C0100D0F8B506000C001500FFF7E4FF4C
:102AE000E308F718F15C07222240012393400B42D0
:102AF00005D1DBB20B433B70FFF7E2FFF8BD2100CD
:102B0000280001F0BDFEF0B583B00600019114006D
:102B10001F00FFF7C9FF00E00134BC420CD8E308F6
:102B2000F518F35C0721214001228A401A42F3D1B3
:102B3000D2B21A432A7001E001246442FFF7C0FFB9
:102B4000002C02DB200003B0F0BD019B002BF9D06C
:102B5000089801F095FE000070B505000C00FFF725
:102B6000A3FFE308EE18EA5C07210C400123A34011
:102B7000134204D09A433270FFF7A2FF70BD034B9B
:102B8000034A2C31034801F0E1FDC04660660110A4
:102B9000C066011080660110034B1B6802201840BC
:102BA000431E9841C0B2704700C00640002307E0B2
:102BB000054A9A189200BFF35F8F0021116001331C
:102BC0001F2BF5D97047C04640000034054A1078E5
:102BD000431CDBB21370172B02D9130010221A709A
:102BE0007047C0462A06002000B583B00100044BA0
:102BF00000931F2318220348FFF785FF03B000BD91
:102C0000D06601101C880220074B9B6810308000A2
:102C10001950BFF35F8FBFF35F8F044B0021196022
:102C200082F310887047C04600ED00E0240100D018
:102C300010B5091A081F0A4B9C466144094A914283
:102C400008D8C30706D440104005400D064B184372
:102C500080B210BD054B064A9921064801F076FD69
:102C6000FC070000FE0F000000E0FFFFEC66011013
:102C7000486901101C67011010B5091A04394C0885
:102C8000090B08D14905490D064A11430180064B3D
:102C90002343438010BD054B054AA121054801F09F
:102CA00055FDC04600F0FFFF00F8FFFF5867011018
:102CB0001C6901101C67011001238340034A10683E
:102CC0001840431E9841C0B27047C04600E100E082
:102CD000002904D0034B1860034B18607047034B66
:102CE0001860FBE780E200E000E100E080E100E046
:102CF00010B5012383401800FFF7EAFF10BD000064
:102D000001238340014A13607047C04600E200E09F
:102D1000024B9B6810308000C058704700ED00E007
:102D200010B5FFF7F5FF002805D0054BC01A2F2876
:102D300003D8012010BD0020FCE70020FAE7C046C0
:102D40002C06002070B504000D00EFF3108672B65B
:102D50000C4B1B68002BFBD0BFF35F8F2000FFF7ED
:102D6000D7FF094B984201D0A84205D13200290073
:102D70002000FFF749FF70BD044B054A7C21054840
:102D800001F0E4FC240100D0CD01001068670110BF
:102D90007C6901101C670110F0B5DE4657464E46AF
:102DA0004546E0B589B0814601911500EFF3108AE0
:102DB00072B6744B1B68002BFBD0BFF35F8F724B56
:102DC0000027DF57002F40DB7C00E419A4006F4888
:102DD00024180622A2566C4B1A706D4B9A684B460B
:102DE00010339B00D35898461E001B1A2F2B38D93E
:102DF000684B98452FD105AE674B33807B009B46CF
:102E0000D8198000614B9846404402306349FFF76F
:102E10000FFF7080624BB380FF23B371F571019B8C
:102E200007935F44BF0047440ECE0EC701231C43E7
:102E3000A046524641464846FFF7E6FE09B0F0BCC0
:102E4000BB46B246A946A046F0BD564B564ACD21D8
:102E5000564801F07BFC564B534AD421534801F0AD
:102E600075FCC04340440C2103F058F8002912D1EE
:102E700001239E43B34633000026DA79AA4211D9D2
:102E80000621595600290CDB4A00521892001E00F8
:102E90003E4B9B18F1E7474B434AE021434801F082
:102EA00055FC1E00002E3BD005AB434A1A80813AE8
:102EB0005A800623F3560293002B18DABD20000235
:102EC00005AB9B469880029A9A71DD71019A079230
:102ED000301D2100FFF7ACFEB080B7717B00DB191D
:102EE0009B002A4FFF185B4607CB07C7A1E7780076
:102EF000C0198000254BC0180430321DB388D90A90
:102F00001C2907D15B055915023149005118FFF7FB
:102F10008FFED5E7294B2A4AA721244801F016FC49
:102F200005AE1D4B33807B000293D8198000174AF1
:102F30009046020042440392901C1849FFF778FE25
:102F40007080039A101D5946FFF772FEB0801D4B2A
:102F50005A464146521A524153431B0DB371F57103
:102F6000019A0792029B9C466744BF0047440ECEDD
:102F70000EC7114B5A461380813B538001231C43DB
:102F8000A04656E7240100D03B3A03202C0600203F
:102F900000ED00E0CD01001000A1FFFF5C06002065
:102FA00000BDFFFFA0670110646901101C670110DC
:102FB000C8670110F0670110014800006468011043
:102FC00054690110AAAA0000F0B5CE46474680B564
:102FD00083B006000D00EFF3108872B6564B1B68E5
:102FE000002BFBD0BFF35F8F544B9A683400103432
:102FF000A300D758524B9F4207D0AF4200D199E06F
:103000000197504BFB1A2F2B09D94246390030004B
:10301000FFF7FAFD03B0C0BCB946B046F0BD3000C2
:10302000FFF74AFE814600213000FFF761FEBFF343
:103030005F8FFDF718F9002801D0844211D10123D8
:10304000019C9C430022A368AB4212D00622A256E8
:10305000002A0DDB53009B189B002200394CE4181A
:10306000F1E72C21384B394AFF31394801F06EFB2A
:103070002200AB4257D106256557002D39DB6B0086
:103080005B199A002F4B9B189A68A260DA79E2715B
:1030900006229A56A2719B795BB2002B10DABD20F2
:1030A0000002A0806B005B199B00264AD318294AB6
:1030B00011789971157049463000FFF719FEA4E7A1
:1030C000201D6B005B199B001E4A9B181A1D9B88D4
:1030D000D90A1C2907D15B055B1502335900511829
:1030E000FFF7A6FDDDE71C4B1C4AA721184801F09D
:1030F0002DFB002812D1002A0ED0FF239371184B0C
:103100009380144A1378A371164B0E49641A6441D4
:1031100063431B0D1370CEE7094FF2E7201D1249E0
:10312000FFF7AAFDC7E76021104B084AFF310848A6
:1031300001F00CFB024F68E7240100D000ED00E035
:10314000CD0100102C0600207C68011034690110AC
:103150001C6701103B3A0320646801105469011098
:1031600000BDFFFFAAAA000066060020A0680110AB
:1031700070B50400012606432D4BF31A2F2B28D8D7
:10318000FDF771F800282BD0EFF3108C72B6294BA5
:103190001B68002BFBD0BFF35F8F274D2200244913
:1031A000521A524155432D0D6DB2244B9B6880003D
:1031B0001B58B3421BD00022032A32D853009B185D
:1031C0009B001B49CB189B795BB2AB421FD00132ED
:1031D000F2E7C2211A4B1B4A49001B4801F0B6FA1C
:1031E00088211A4B174AFF31174801F0AFFA134BE9
:1031F0009B68174A1A50174B1A78A2711D70BFF3BB
:103200005F8F0C4B00221A608CF3108870BD080091
:103210005300991889004118FF268E710E4A8A8042
:10322000E9E7CC210D4B074A4900074801F08EFA27
:103230002C060020240100D0AAAA000000ED00E026
:10324000A8680110006901101C670110D068011006
:10325000CD0100103B3A032000BDFFFFDC680110E8
:103260000022044B02E0044902C30132072AFAD9C2
:103270007047C04600E400E08080808000B583B0E5
:103280000100D0231B061B680648C018064B00939C
:1032900005230022FFF737FC002801DB1F23181A43
:1032A00003B000BDF8380320E4680110024B9C46CF
:1032B00061448900016070474000003470B505002A
:1032C0000C00080000F0CCFD200000F0FFFE0849D3
:1032D000200000F03FFEFFF779FC064B9C4660445F
:1032E000800068602C75A400034BE55070BDC0469B
:1032F0000136001040000034543603200A4B1A688F
:10330000EFF3108172B61368002BFCD0BFF35F8F10
:10331000054B1B68BFF35F8F00221A6081F3108892
:1033200040BF0020002170479038032010B50029CD
:1033300022D003681B7B99421ED8174B9C466144E0
:10334000090183689C4661440C684968002A19D0C9
:1033500003681B7B9A4215D883680F4884466244F1
:1033600012019A1810685368020001208B4201D89C
:103370000ED00020C0B210BD084B094A3B210948BD
:1033800001F0E4F9054B064A3B21064801F0DEF95D
:10339000A242EFD8EDE7C046FFFFFF0FE46901103E
:1033A000A06C0110AC69011010B500291ED0037B80
:1033B00099421BD84B005B18033B0468A446634446
:1033C000002919D0002A1DD0914221D0002A25D0F1
:1033D000047BA24222D804685000801803382018C9
:1033E0008170197800291FD11A7010BD104B114A35
:1033F0006821114801F0AAF9104B114A6F310E48AB
:1034000001F0A4F90F4B0E4A70210B4801F09EF910
:103410000D4B0B4A7121084801F098F9044B054AFD
:103420006821054801F092F941701A70DDE7C04645
:10343000186A01100C6D0110346A01107C6A0110C9
:10344000E86C0110886A0110946A011070B50600DA
:103450000D001400002914D0002A14D0806873686D
:103460009847002806D0220029003000FFF79CFF73
:10347000280007E02A0021003000FFF795FF200018
:1034800000E0100070BD0800FCE70000F0B583B05C
:103490000500009201930AAB1C780BAB1F78002C3F
:1034A00026D003685A7B944207D10123002B19D1FF
:1034B000002C3BD1200003B0F0BD002C0CD01A7BB7
:1034C000944209D81A6863001B19033BD3189B78F0
:1034D000002BEBD00123E9E73E4B3F4A68213F48F0
:1034E00001F034F93E4B3F4A65213F4801F02EF987
:1034F00003689C7B002CDBD012D01A7B94420FD83F
:1035000062001219033A19688C4662445178997323
:10351000002900D1D9730023937053701370C7E74B
:103520002C4B2D4A68212D4801F010F9002C3AD07F
:103530002B681B7B9C4236D82C4BE3181B01AA68D6
:1035400094466344009A1A60019A5A60089A9A60F5
:10355000099ADA602E68002C2BD030D0337B9C4245
:103560002DD863001B19033B326894466344002244
:103570009A705A701A70717B22003000FFF766FF54
:103580007073844200D095E7287D009A019B00F07B
:1035900029FD061E01D0002F17D00C9B002B00D157
:1035A00088E71E7086E7124B124A3B210E4801F055
:1035B000CDF8114B114AA521084801F0C7F8054B79
:1035C000054A6821054801F0C1F82868210000F08B
:1035D00031FFE2E7186A01100C6D0110346A011026
:1035E000AC6A0110186D0110AC690110FFFFFF0FEC
:1035F000E4690110A06C0110A8690110FC6C0110B5
:10360000F0B5DE4657464E464546E0B58BB00990CC
:10361000002308938200B24BD658370032E0B14BFA
:10362000B14A3F21B14801F091F8B14BB14A3B2179
:10363000B14801F08BF8B14BB14A8C21AE4801F092
:1036400085F8B04BAE4A9021AB4801F07FF8A84B0B
:10365000AD4A4021A84801F079F82A686B680998BA
:1036600000F0C0FC00239A4698467B68BFF35F8F4A
:1036700000221A6086F310884346002B51D100289F
:1036800000D126E100F0F8FB02000B1EC7DB002092
:103690000021069007917868EFF3108672B60168F2
:1036A0000029FCD0BFF35F8F396888464C7B002C23
:1036B00032D0BAD0097B8C42B7D8944965182D0115
:1036C000B9688C46654428686968801A9941002960
:1036D000C3DC01D10028C0D10021404600F0A0FE8B
:1036E000A042A8D12A686B6806920793AB689846F7
:1036F000EB689A464346002BA3D0002CA7D03B682A
:103700001B7B9C42A3D8631EFA68D35C08931B0200
:10371000184338610020A8E700239A469846002005
:10372000A3E7089B1B022343994651461800C04754
:1037300005000E007A68EFF3108B72B613685942D9
:103740004B41D9B2002BF9D1BFF35F8F002E26DB9E
:10375000002E52DD3B69002B53D04B4572D100F057
:103760008BFB02000B1E73DB010018005219734122
:10377000984202D804D1914202D901225242D31771
:10378000002B6BDB0021049101310391029451461F
:103790000191414600913800FFF778FE49E03B690E
:1037A000002BD5D04B451CD1069A079B1000190061
:1037B000521BB341994202D804D1904202D901224E
:1037C0005242D317002B12DB0021049101310391E7
:1037D000029451460191414600913800FFF756FE90
:1037E00027E04B4B464A9F21434800F0AFFF3D4B3B
:1037F0003D4A3F213D4800F0A9FF002E01D1002D98
:10380000A8D13A68002C45D0537B9C422CD1012191
:1038100000293FD1D37B002B42D1D473002C52D04E
:103820003B681B7B9C424ED8FA68013C135D013318
:10383000135500233B617A68BFF35F8F13608BF3EE
:1038400010881FE7324B2E4AA2212B4800F07EFF42
:10385000244B254A3F21254800F078FF214B224A7E
:103860003F21224800F072FF002C0DD0137B9C42B8
:103870000AD863001B19033B1068844663449B7895
:10388000002BC5D00121C3E7224B234A68212348DE
:1038900000F05CFF224B234AF621204800F056FF3F
:1038A000002B0AD0117B8B4207D85900CB18033B61
:1038B00011688C4663445C70AFE7164B164A68216A
:1038C000164800F043FF0A4B0F4A40210A4800F017
:1038D0003DFF0BB0F0BCBB46B246A946A046F0BDCA
:1038E00054360320D46A01106C6C0110F06A011088
:1038F000E4690110A06C0110AC690110346B011077
:10390000846C01104C6B0110C46C0110FFFFFF0FA1
:10391000586B0110186A01100C6D0110346A011007
:10392000946B0110D86C011010B50A4B5B68002B2A
:1039300004D00A210848FFF7B9FC10BD054C23004C
:10394000064A1021206800F08BFC03212000FFF7BD
:10395000B5FCEEE774060020903803202D330010EC
:1039600010B5064B5B68002B01D0044810BD044B1A
:10397000044A5C21044800F0E9FEC04674060020B9
:10398000B86B0110AC6C0110AC690110F0B5DE46EB
:1039900057464E464546E0B58BB0804616001F00A0
:1039A000149B9A46159B994616AB1B789B461F2382
:1039B00002AA9446634400221A7032E0002809D01B
:1039C00042461268127B904204D8421E4146C968A2
:1039D0008A5C48E0434B444A4021444800F0B6FE2C
:1039E0000798002B75D05B46002B72D04946D04714
:1039F00004000D0003000B4300D171E0002946DBF9
:103A000000F03AFA06000F1E55DB36196F41B94235
:103A100002D804D1B04202D901267642F717002F0E
:103A20004FDB43465A68EFF3108472B6136859426D
:103A30004B41D9B20791002BF8D1BFF35F8F1F33F1
:103A400002AA9446634404930023039302934B46D3
:103A500001935346009332003B004046FFF716FDAA
:103A6000031EABD1020041464968BFF35F8F0025BA
:103A70000D6084F31088002B29D01F2302A98C46E7
:103A800063441B78002BABD112021043A9E732002C
:103A90003B00361BAF41BB4202D804D1B24202D92F
:103AA00001267642F717002FBBDA114B114A3F214E
:103AB000114800F04BFE0E4B0E4A3F210E4800F01D
:103AC00045FE0B4B0B4A3F210B4800F03FFE012007
:103AD00040420BB0F0BCBB46B246A946A046F0BD82
:103AE0000798F6E7E4690110C46C0110AC69011095
:103AF000D46A01106C6C0110F06A0110F8B5040072
:103B00004268EFF3108572B6136858424341D8B249
:103B1000002BF9D1BFF35F8FCBB22268567BB34243
:103B20001BD10120002848D0206988422BD0090AE7
:103B3000C9B2002B2ED02068007B83422AD8581EA1
:103B4000E668305C88422BD000206368BFF35F8F4B
:103B500000221A6085F31088F8BD002B0DD0167B6B
:103B6000B3420AD85E00F618033E1768BC466644A6
:103B7000B678002ED6D00120D4E7134B134A682123
:103B8000134800F0E3FD8521124B134A4900134806
:103B900000F0DCFD124B134A4021104800F0D6FD26
:103BA0001900100000F046FC0028CED112210E4B67
:103BB000094AFF31094800F0C9FD23698B42C4D18D
:103BC00000232361C1E7C046186A01100C6D011083
:103BD000346A0110DC6B0110546C0110AC690110E7
:103BE000E4690110C46C0110006C0110F0B587B0DD
:103BF00006000F00FCF737FB00281FD106246442A3
:103C0000E517A4197D41BD4202D803D1B44201D9C0
:103C100000240025002D14DB0494059500F02CF9F8
:103C200002000B1E13DBA41A9D41002D17DC14D0DB
:103C30003000390000F02CF907B0F0BD234800F047
:103C40001FFE234B234A3F21234800F07FFD204BDA
:103C5000204A3F21204800F079FD002CE8D0FFF7F2
:103C60007FFE0023029301931C4B0093049A059B53
:103C7000FFF78CFE002818DADAE7002300E00023C3
:103C8000002BD5D1164B1A68EFF3108172B613686A
:103C9000002BFCD0BFF35F8F114B1B68BFF35F8F0E
:103CA00000221A6081F3108820BF0499059A0D4BF9
:103CB0005B6A9A42E3D80B48806A884203D29A42F0
:103CC000DBD00123DCE70123DAE7C046046C0110F6
:103CD000D46A01106C6C0110F06A0110FD32001002
:103CE0009038032000400540F8B504000D0000F0B6
:103CF000C3F802000B1E10DB200029008018594178
:103D00008B4202D804D1824202D901204042C1171D
:103D1000002908DBFFF76AFFF8BD064B064A3F2182
:103D2000064800F013FD034B034A3F21034800F00F
:103D30000DFDC046D46A01106C6C0110F06A0110D0
:103D400010B5FA2292000023002102F085FCFFF753
:103D5000CBFF10BD70B584B006000C00FFF700FE6D
:103D6000002302930193194B009332002300FFF7C5
:103D70000DFE051E11DD20BFFFF7F2FD2900FFF744
:103D8000BDFE134B5B6A9C421BD8114A926AB24239
:103D90001AD29C4213D0012014E00D4B5B6A9C4266
:103DA00009D80B4A926AB24207D29C4201D0012044
:103DB00008E0002006E0002004E0012002E00020EE
:103DC00000E0002004B070BD0120FBE7FD320010D0
:103DD0000040054070B5EFF305833F2018401038D0
:103DE000EFF3108C72B6194B1B68002BFBD0BFF39E
:103DF0005F8F012319008140154A5163154A1278DB
:103E00001400C440234214D0114B5C6A8300124D4D
:103E10005B599C4206D38300104C1B598A430D49C1
:103E20000A7007E00A4A031D9B0099589950002325
:103E300000E00023BFF35F8F044A002111608CF380
:103E40001088002B00D0984770BDC046280100D0D4
:103E5000004005404E3A0320A43803200886022083
:103E600010B50100024A0348FEF734FE10BDC046FB
:103E7000306D0110303A0320044B5B6A034A906AAC
:103E80001900536A9942F9D17047C0460040054075
:103E9000084B5B6A01E0074B5B6A8B42FBD301E096
:103EA000044B5B6A8B4203D1024B9B6A8342F7D37C
:103EB0007047C0460040054070B504000D00FFF794
:103EC000DBFF02000B0020002900801859418B42C3
:103ED00002D804D1824202D901204042C1170029F0
:103EE00002DBFFF7D5FF70BD024B034A3F210348B9
:103EF00000F02CFCD46A0110D46D0110F06A01109E
:103F000010B5002807DB064B9A6A054B9B6A9B1A83
:103F10008342FAD310BD0021FFF7CEFFFAE7C04677
:103F20000040054010B50A4B984207D843011B1AC0
:103F30009B001818C000FFF7E3FF10BDFA229200A3
:103F40000023002102F088FBFFF7B6FFF5E7C0462B
:103F50009BC4200070B504000D00EFF3108672B60C
:103F60001B4B1B68002BFBD0BFF35F8F002D1CD0B9
:103F70002000FEF7CDFE174B83420BD01900200026
:103F8000FEF7E0FE01212000FEF7B2FE0123A34070
:103F9000114A1360A400114BE550BFF35F8F0C4B27
:103FA00000221A6086F3108870BDA2000B4B00211E
:103FB000D1500122A2400A490B7893430B70054966
:103FC0002000FFF701F800212000FEF791FEE4E752
:103FD000280100D0D53D0010386005400886022039
:103FE0004E3A0320F0B5DE4600B584B0040015005B
:103FF00001921E000293FFF73FFF03958E4202D805
:104000004ED185424CD9EFF3108B72B6274B1B680B
:10401000002BFBD0BFF35F8F254A17780125A54001
:10402000EBB23B431370234B5D63221D9200019959
:10403000D150A2002049029850501B6A2B4212D145
:104040001C4B1B6C2B4208D00020BFF35F8F174B1B
:1040500000221A608BF3108823E0184B184AC12104
:10406000184800F073FBFFF707FF8E4214D802D107
:10407000039B834210D80E4B1B78BB420ED00D4BD6
:104080001D625D631F2004400123A3400E4A13609C
:10409000074B1F701E38D8E70020D6E70120D4E771
:1040A000012004B080BCBB46F0BDC046280100D052
:1040B0004E3A032000400540A4380320546D0110FF
:1040C000B86D0110786D011080E200E0EFF3108C04
:1040D00072B60B4B1B68002BFBD0BFF35F8F012325
:1040E0008340084A136208490A789A430A70BFF36A
:1040F0005F8F034B00221A608CF310887047C04614
:10410000280100D0004005404E3A032010B5002998
:104110001ED0037B99421BD84B005B18033B0468FD
:10412000A4466344002919D0002A1DD0914221D011
:10413000002A25D0047BA24222D8046850008018AF
:10414000033820188170197800291FD11A7010BD0A
:10415000104B114A6821114800F0F8FA104B114A2F
:104160006F310E4800F0F2FA0F4B0E4A70210B48E7
:1041700000F0ECFA0D4B0B4A7121084800F0E6FA0A
:10418000044B054A6821054800F0E0FA41701A70B6
:10419000DDE7C046186A0110D86E0110346A0110BC
:1041A0007C6A0110C46E0110886A0110946A0110C3
:1041B00070B506000D001400002914D0002A14D098
:1041C000806873689847002806D0220029003000D4
:1041D000FFF79CFF280007E02A0021003000FFF7CE
:1041E00095FF200000E0100070BD0800FCE7000013
:1041F00010B50023437301338373037BC37301231F
:10420000027B9A4214D9002B0CD0027B934209D82E
:104210005A00D218033A01688C4662440133DBB27B
:104220005370EDE70B4B0C4A68210C4800F08EFAF6
:10423000002A09D0924207D8016853009A18033A1D
:104240008A180023537010BD024B034A68210348AB
:1042500000F07CFA186A0110D86E0110346A01105F
:1042600010B5017342608360FFF7C2FF10BD00000C
:1042700070B50400081E00D170BD002934D0237B26
:10428000994231D84B005B18033B22689446634443
:104290005A78002AF0D02DD0237B9A422AD8530096
:1042A0009B18033B21688C4663445D78002159705C
:1042B000002825D0237B984222D843001B18033BBB
:1042C00021688C4663440021597001002000FFF7EB
:1042D0006FFF060029002000FFF7CAFF020031002F
:1042E0002000FFF765FFC7E7084B094A6821094826
:1042F00000F02CFA054B064A6821064800F026FA21
:10430000024B034A6821034800F020FA186A0110A2
:10431000D86E0110346A011070B505000C0016004B
:10432000002928D02DD0037B99422AD84B005B1856
:10433000033B0268944663445A78002A27D19A784E
:10434000002A2AD11978FFF793FF0300002E03D02B
:10435000EA7B002A27D1EC73002B37D1002C49D0FF
:104360002B7B9C4246D82B6861000C19033C1C191E
:104370000023637070BD224B224A3821224800F08E
:10438000E5F9224B224A6821224800F0DFF9224B4E
:104390001C4A3A211C4800F0D9F9204B194A3B210C
:1043A000194800F0D3F9002A0AD0297B8A4207D89D
:1043B00051008A18033A29688C4662445470CAE74F
:1043C000124B134A6821134800F0C0F9002B0BD0A0
:1043D0002A7B934208D843001B18033B2A68944663
:1043E000634400229A70B9E7084B094A68210948DA
:1043F00000F0ACF9054B064A6821064800F0A6F922
:10440000EC6D0110B06E0110F46D0110186A01100E
:10441000D86E0110346A01102C6E0110546E011018
:1044200070B504000A00457B2900FFF775FF607333
:10443000280070BD70B50400002967D0437B8B4213
:104440000ED0002911D0037B99420ED84B005B1887
:10445000033B0268D0188378002B0CD1002056E073
:104460000121FFF7DDFF012051E0294B294A682196
:10447000294800F06BF9002B20D0227B93421DD8F5
:104480005A00D318033B2268D2182568EB5C8B4294
:104490001AD0002B1BD0227B934218D85A00D31875
:1044A000033B2268D21853788B4216D0002BF0D1F0
:1044B0001A4B1B4A67211B4800F048F9144B154A58
:1044C0006821154800F042F94378137007E0104B5B
:1044D000104A6821104800F039F9437853700023DE
:1044E0008370437001222000FFF716FF0200617BFA
:1044F000814205D02000FFF75BFE6073012006E0DB
:10450000094B074A6D21074800F020F9002070BDD3
:10451000186A0110D86E0110346A0110DC680110AD
:10452000986E0110F46D0110786E0110F8B504005A
:104530000CE0E7899F421AD1002A38D02368BFF3E4
:104540005F8F00251D6086F3108820BF2568EFF37C
:10455000108672B62B68002BFCD0BFF35F8F2589C5
:104560006389EB1AE5D5E7890137DB19E1E7BD423D
:1045700017D8A28955436368581902F07FF9238937
:1045800001339BB2E289934200D90023238123683F
:10459000BFF35F8F00221A6086F3108840BF0120AE
:1045A000F8BD074B074A1921074800F0CFF82368E8
:1045B000BFF35F8F0021196086F310881000EFE7CA
:1045C000E46E0110386F0110006F011070B5040027
:1045D00008000BE0002B1AD1002A39D02368BFF362
:1045E0005F8F0021196086F3108820BF2168EFF3E8
:1045F000108672B60B68002BFCD0BFF35F8F238947
:1046000065895B1BE6D5E18901315B18E2E7E38947
:104610009D4217D8A28955436368591902F02EF9B3
:10462000638901339BB2E289934200D900236381FD
:104630002368BFF35F8F00221A6086F3108840BFA3
:10464000012070BD074B084A1921084800F07EF888
:104650002368BFF35F8F0021196086F31088100074
:10466000EFE7C046E46E0110386F0110006F0110D3
:1046700070B504000D0016001900FEF717FE701C3F
:10468000290002F0BDF86060E681A5810023238146
:10469000638170BD10B50122FFF748FF10BD10B552
:1046A0000122FFF793FF10BD10B50400FEF78EFA4C
:1046B00001002000FEF7FAFDFF232371BFF35F8F97
:1046C00010BD10B50400FEF781FA01002000FEF7CE
:1046D000EDFDFF23237100236371BFF35F8F10BDD6
:1046E000034B9C46614489000160BFF35F8F7047B4
:1046F0004000003410B504000120FEF775FA0100F7
:104700002000FFF7EDFF10BD00BEFDE703000A4AE1
:104710001268002A08D0084A1068C318074A9A424B
:1047200006D3054A13607047034A05491160F2E752
:1047300001204042F7E7C0466497022000000420B1
:10474000503A032010B5FFF7DFFF000010B582B02C
:104750000C001900002A0CD0084B002A0BD0019243
:10476000009323000200064802F01AFA0120FFF726
:10477000CBFF044BF1E7034AF1E7C0460C70011090
:104780001C7001108C64011070B52B4B2B4A1A6001
:104790002B4B2C4A1A602C4B9A682A4B9343FAD124
:1047A0002A4C01E008CC9847294B9C42FAD300F0F0
:1047B00007F9234B274A1A60234B9B68DB43DB0135
:1047C000FAD1254B40229A675A671A67DA66234C5A
:1047D00009E0234B234A83212348FFF7B7FF20003A
:1047E000FFF762FF0834214B9C4209D22368002B5B
:1047F000F5D0012BEDD12000FFF763FF0834F2E77D
:104800001B4CA1681B4DC022280002F037F8A560A0
:10481000FBF729FD002800D000BEFEF7C7F9FEF720
:104820001FFDFFF781F8144C01E008CC9847134BAB
:104830009C42FAD370BDC04600E00040BFCDFBFEF5
:1048400000F00040FE7F3C0000C00040580F0020F8
:10485000680F0020FFFFFF0100F00140480F00201B
:104860004C700110CC7001106C700110580F0020BA
:1048700000ED00E000000020680F0020700F002015
:104880000FB400B583B0084802F058F9049B002B20
:1048900007D005A90191180002F060F9034802F061
:1048A0004DF90120FFF730FFAC7001107864011062
:1048B00010B50148FFF7E4FFBC700110F8B5DE4603
:1048C00057464E464546E0B505000F0092460A9A07
:1048D00093424ED31A0E91461E020A9A00233000CC
:1048E000494601F05DFB80466C006419A4002F4B23
:1048F0009C4664446368834200D260602B1FDBB235
:104900009B46012B3BD9C0239B01234380221201EC
:104910001A60AB00264A9958002905D0506901F069
:10492000FDFA01300138FDD153465A0123685A403F
:10493000E0231A4080235B0123431A605A46012A70
:1049400028D980239B012343802212011A60434609
:104950006360424600233000494601F021FBAD0070
:10496000134B58510120F0BCBB46B246A946A046A5
:10497000F8BD104B104A2D211048FFF7E7FE012F1C
:10498000C1D1C0239B01234303221A60A368DB0724
:10499000FCD5C9E72168794003220A401A60A26861
:1049A0000123BB401342FAD0CBE7C0460080004051
:1049B00024880220DC70011034710110F0700110A5
:1049C00030B583B00C2000F021F9FEF7E5F800289F
:1049D0000DD0002304E099002D4A2E488850013361
:1049E000092BF8D92A4B2C4A5A6203B030BD2B4B05
:1049F00000229A6700F07CF9294B01221A60274BAC
:104A00005B6C012BFBD1274B03221A60234B9B6B62
:104A1000012BFBD1013300930433234A01212348A6
:104A200000F054F805230093214A0121214800F0A9
:104A30004DF8214B0093002202210420FFF73EFF96
:104A40001E4D00952B00002201210520FFF736FFA7
:104A5000104C00942300002200210720FFF72EFFB6
:104A600000942300002200210820FFF727FF0A4BB3
:104A700000932300002200210920FFF71FFF00956B
:104A80002B00002200210620FFF718FFADE7C046EB
:104A900024880220006CDC021BB70000008000406C
:104AA0003CB0004030B00040002F68590080024008
:104AB000008C864700C00240001BB70040597307B6
:104AC0008000014BC058704724880220F0B5C646CC
:104AD00000B504000F0090461D000C2001F01EFAE6
:104AE00006003D4A42443D4B9A4243D843011B1ABB
:104AF0009901C91AC90009188901404601F00EFA46
:104B00000200103A98235B009A4239D86B1E062B9C
:104B10003CD8069B013B062B38D8069B9D423BD3D5
:104B200043461A09B2423DD32D04069B1E0335436A
:104B30002368002B3CDB2A4B9C424AD08022520146
:104B4000284B1A60284B1A60284B9B681100994328
:104B5000FAD12760A060231DC02292011A432123AD
:104B600013602368002BFCDAE5600823136080BC27
:104B7000B846F0BD1E4B1F4A11211F48FFF7E6FD46
:104B80001E4B1C4A19211C48FFF7E0FD1C4B194A1B
:104B90001C211948FFF7DAFD1A4B164A2221164844
:104BA000FFF7D4FD184B134A25211348FFF7CEFD1C
:104BB00022683F231340BB42BDD1A3681B051B0DD8
:104BC0008342B8D1E368EE22D2021340AB42B2D1A5
:104BD000CDE780229201B3E780E84BD380F8A93279
:104BE00000C0024000E0004000F0004000C0004073
:104BF000447101107C720110A4710110E071011068
:104C0000FC710110487201106072011080239B003A
:104C10000343014AD362704700800540024B1A6883
:104C2000024B5A607047C046BC9B02200080054082
:104C300010B50200164B8020C0051860154B1648B1
:104C4000186000290AD0154BE021C9041960002A18
:104C500009D1124B802212061A6010BD0C4BE021C4
:104C6000C9041960F3E753019B1A980080180001EA
:104C70000B4B186080235B04984202D3084B094A0F
:104C80001A60FFF7CBFF054B8022D2051A60E4E7DC
:104C900000B0054008200140FCFF010000A00540D5
:104CA000BC9B0220FFFFFF0010B5030010000C4A60
:104CB0008024E4051460002B0DD001221343094A1F
:104CC000094CD461094C5C4014625162936200212A
:104CD000FFF7AEFF10BD034B0022DA61F7E7C046D5
:104CE00000B0054000800540D3C007B02D3FF84F0D
:104CF000064BAA2212011A602F22DA60044B054AE1
:104D00001A60024B5B68002BFBDA704700400240E0
:104D10000060024000B0FA00704710B5002802D0D1
:104D20000B684968984710BD0100002007E0830028
:104D30001B185B00501C08601078C01830380A68D7
:104D40001378303BDBB2092BF1D97047F0B5DE4662
:104D500057464E464546E0B583B093461F000C9B30
:104D60009A460D9C0E9B99460F9B9B0703D0B84615
:104D70000F00060022E00192A34688464E46B9463F
:104D80000700B44207D2551C4B4641462020B84785
:104D900001342A00F5E73D004F465C46019B9B46E7
:104DA000B1464646B84637002E0007E0013C551C88
:104DB0005346185D43463900B0472A00002CF5D110
:104DC00035003E0047460F9B9B0707D4100003B0F9
:104DD000F0BCBB46B246A946A046F0BDB0464E4622
:104DE000B9462F005D46531BB342EFD2541C4B46CD
:104DF00041462020B8472200F5E7F0B5CE464746A9
:104E000080B585B0944698460C9D0D9C0EAB1B78E2
:104E10009946109A119B129EB7071CD4002B0CD0F8
:104E2000F7070AD54F46002F02D10C37374204D07E
:104E3000013B02E030272F550134944201D21F2C50
:104E4000F8D9F70707D59C4205D21F2C03D8302785
:104E50002F550134F5E7F70615D5770505D4002C55
:104E600003D0944224D09C4222D00F9A102A2BD0F7
:104E70000F9A102A30D00F9A022A35D01F2C02D850
:104E800030222A5501341F2C05D84A46002A31D039
:104E90002D222A550134039602930194009543462E
:104EA0006246FFF753FF05B0C0BCB946B046F0BD3F
:104EB000621E012C06D00F9F102F01D01400D4E7E2
:104EC000023CD2E71400D0E7B206D1D41F2CCFD8D1
:104ED00078222A550134D1E7B206CCD51F2CCAD886
:104EE00058222A550134C9E71F2CC7D860322A55E9
:104EF0000134C3E7720703D52B222A550134CAE7D0
:104F00003207C8D520222A550134C4E7F0B5DE4661
:104F100057464E464546E0B593B081468A460892CC
:104F200009931CAB10CB1B789B461E9D219B98467A
:104F3000002C03D1102342469A4390468023DB0085
:104F400046461E4042461A4212D0002C22D000266D
:104F50000EE03033D9B2771C0AAB995529002000F6
:104F600000F0DCFFAC4216D31F2F14D83E00040023
:104F70002900200000F0D2FFCBB2092BE9D942462C
:104F8000920605D54121C918C9B20A39C9B2E2E76A
:104F90006121F8E7270043460693209B05931F9B5A
:104FA000049303955B46029301970AAB0093099B18
:104FB000089A51464846FFF720FF13B0F0BCBB46A5
:104FC000B246A946A046F0BDF0B5DE4657464E466D
:104FD0004546E0B595B0089009910A920B931E9E44
:104FE0001F9C20AB1B789B46229B9946239D269BAA
:104FF0009A463300234303D1103352469A439246D4
:105000008023DB0057461F4052461A4219D0330016
:1050100023432DD0002714E03033DAB27B1C9846AE
:105020000CABDA554A462B003000210000F0B8FFE7
:10503000A5421FD819D043461F2B1BD84746060050
:105040000C004A462B003000210000F0A9FFD3B22B
:10505000092BE1D95246920605D54122D218D2B287
:105060000A3AD2B2DAE76122F8E7B145E3D901E0C2
:105070000023984653460693259B0593249B04934F
:105080004B4603935B460293434601930CAB00935C
:105090000B9B0A9A09990898FFF7AFFE15B0F0BC70
:1050A000BB46B246A946A046F0BD0000F0B5DE46BC
:1050B00057464E464546E0B591B083468A460C9227
:1050C00098461A9C08941B9D099522002B002000ED
:1050D000290001F0E4F9002800D0E5E00122524265
:1050E000D74B2000290001F0D5F9002800D0DBE0E3
:1050F00001225242D34B2000290001F0B5F90028CB
:1051000000D0D1E000220023089E3000099D290034
:1051100001F0AAF9002800D0DDE00898099906906E
:1051200007918023DB001E9A1A400D921E9A1A42A4
:1051300001D106231C930698079904000D000A006C
:105140000600024300D1D1E0080D4005400DBE4CE1
:10515000A44660440A03120BBC4B13431F0001F02A
:10516000B1F9BB4ABB4B01F040F9BB4ABB4B01F064
:105170001DF904000D000022B94B3000390001F088
:1051800010F9B84AB84B01F030F902000B002000CA
:10519000290001F00BF901F0ADF9814601F092F917
:1051A00004000D00B14AB24B01F01FF90022B14BCF
:1051B00001F0FCF801F09EF90600AF4AAF4B200069
:1051C000290001F012F904000D00300001F07AF915
:1051D000AB4AAC4B01F009F902000B00200029009A
:1051E00001F0DFF804000D0002000B0001F0FDF8F3
:1051F0000A900B91A44BF31800261F0522002B00E8
:105200002000290001F0D2F80E900F9122002B000F
:1052100000208021C90501F0C4F804000D0000221F
:105220009A4B0A980B9901F0C6F80022984B01F0AE
:10523000BDF802000B000A980B9901F0BCF800229F
:10524000944B01F0B3F802000B000A980B9901F09F
:10525000B2F802000B002000290001F0A7F80200BC
:105260000B000E980F9901F0A6F80022774B01F081
:105270009DF832003B0001F0B8F806000F00040072
:105280000D00069A079B01F005F9002830D0012394
:105290005B429C46E14400227D4B3000390001F026
:1052A0008AF804000D0023E01E9B04931D9B0393CA
:1052B0001C9B0293089A099B0092019343460C9A07
:1052C0005146584600F0FCF811B0F0BCBB46B2465F
:1052D000A946A046F0BD0023002406930794069635
:1052E00080231B069C46654407951AE700239946D0
:1052F0004B466333C62B1ED804261E9B1B0526D5A2
:105300002B0023430FD0644A644B0698079901F0A1
:10531000B9F8002879D00022614B0698079901F06E
:10532000A3F8002871D01C9B4B4506DD4A46981A0D
:10533000431E1C9303E00526DFE700231C93802314
:10534000DB001E9A1A431E920026002399461D9BDD
:105350009E4264D29F1B02231E9A1A400A921E9AF2
:10536000134202D0002E00D000274B46002B07D05E
:1053700022002B000698079901F01DF8069007916E
:10538000002200230898099901F06EF8002848D1FE
:10539000444B1E9A1340049303971C9B0293069B55
:1053A000079C0093019443460C9A5146584600F0DE
:1053B00087F8002E00D187E71E9B9B063DD545252B
:1053C000441C4346020051462800D8474B46DA1792
:1053D0009B18534005220592013E04960022039239
:1053E0000A3202924A46D00F0190009343462200AF
:1053F00051465846FFF78AFD0A9B002B00D163E710
:1054000002005F460C9E1D9D54E01C9B002B9ED00D
:105410000D9B002B9BD01C9B013B1C9397E7002707
:1054200099E7069C079D22002900802000068446FB
:1054300061440B0006920793AAE76525C0E7C046C2
:10544000FFFFEF7FFFFFEFFF01FCFFFF0000F03FDA
:10545000FB799F501344D33FB3C8608B288AC63F63
:105460000000F83F61436F63A787D23F71A37909BA
:105470004F930A400000E03F1655B5BBB16B0240A8
:10548000EF39FAFE422EE63FFF03000000002C40F9
:1054900000002440000018402D431CEBE2361A3F68
:1054A00080842E41FFF7FFFF541C434651462020C5
:1054B000B8472200931BAB42F6D3100004E7C04666
:1054C000F0B5DE4657464E464546E0B595B00690E7
:1054D000079193469946209F1E9A1F9B1000190022
:1054E00000F0DDFF002831D101225242BF4B1E984F
:1054F0001F9900F0B9FF002837D101225242BC4B5E
:105500001E981F9900F0C6FF00283DD10022B94B1C
:105510001E981F9900F0BEFF002850D10022B64B04
:105520001E981F9900F0A0FF002848D100220023F8
:105530001E981F9900F098FF002850D1002398462C
:10554000229B5B0500D4B6E0002458E0229B039325
:10555000219B029303230193A84B00934B465A4689
:1055600007990698FFF7F2FB0EE1229B0393219B1C
:10557000029304230193A24B00934B465A4607998A
:105580000698FFF7E3FBFFE00423229A1A402299D2
:105590000B4210D09B4B002A0FD00422229903917A
:1055A00021990291019200934B465A460799069819
:1055B000FFF7CCFBE8E0944BEDE70322EEE7229BFC
:1055C0000493219B039302971E9B1F9C00930194BD
:1055D0004B465A4607990698FFF768FDD4E01E9A95
:1055E0001F9B0020002100F0DCFE1E901F91012374
:1055F0009846A5E70CAB30221A55013F01341F2C09
:1056000001D8092FF6D81E981F9900F073FF0500E6
:1056100000F058FF02000B001E981F9900F0C1FE19
:10562000FA007A4B9B181A685B680A920B9300F099
:10563000DCFE0890099100F081FF060000F03EFFBB
:1056400002000B000898099900F0ABFE0890099140
:1056500000226F4B00F01EFF00282ED001363000D4
:1056600000F02CFF02000B000A980B9900F002FFDB
:10567000002801D001350026002F2CD1280000F091
:1056800021FF02000B001E981F9900F08AFE060001
:105690000F0000225E4B00F0E7FE002846D10022FA
:1056A0005B4B3000390000F0F5FE00283ED1EB07DF
:1056B0003CD501353AE0062746E70022544B0898CE
:1056C000099900F0D1FE0028D6D1002E01D0F307B1
:1056D000D2D50136D0E7AA461F2C11D8013F0A21A6
:1056E000300000F01BFC651C30310CAB19550A2151
:1056F000300000F013FC092E0ED906002C00EBE759
:1057000055461F2C0CD87B1E002F09D00CAA302127
:1057100011551F000134F4E72B0055461C00F0E73B
:105720001F2C03D80CAB2E221A5501341F2C10D875
:105730000A21280000F0CAFB661C30310CAB195559
:105740000A21280000F0C2FB051E01D03400EDE75D
:1057500034000323229A1340012B1CD01F2C06D89F
:105760004346002B32D00CAB2D221A550134229B1C
:105770000393219B029301940CAB00934B465A4632
:1057800007990698FFF7E2FA15B0F0BCBB46B2469F
:10579000A946A046F0BD219B002B13D04346002B09
:1057A00002D10C3313420FD0219B013B21931900EE
:1057B00003E00CAB30221A5501348C42CED21F2CA0
:1057C000F7D9CBE72199F8E72199F6E7229B5B0708
:1057D00004D50CAB2B221A550134C8E7229B1B07BA
:1057E000C5D50CAB20221A550134C0E7FFFFEFFFEF
:1057F000FFFFEF7F65CDCD4165CDCDC19472011026
:10580000987201108C72011088720110807401105E
:105810000000E03FF0B5DE4657464E464546E0B54F
:1058200093B082468B4690461193002900D1EBE25B
:1058300000275546119B1878002800D1E7E225285B
:1058400009D07C1C43463A005946A847119B0133B6
:1058500011932700EEE7013311930024119A117878
:105860000B00203BD8B2102803D88300D048C3587F
:105870009F460B00303BDBB2092B2CD92A292FD0B5
:1058800000230A93119B1A782E2A39D000239A46B6
:10589000119A1378683BD9B2122976D88B00C54982
:1058A000CB589F4601231C4301321192D6E70223B5
:1058B0001C4301321192D1E704231C43013211929F
:1058C000CCE708231C4301321192C7E710231C4385
:1058D00001321192C2E711A8FFF726FA0A90D1E728
:1058E0001C9B1A1D1C921868002804DB0A90119B4F
:1058F00001331193C6E702231C4343420A93F6E7A0
:105900008022D20014435A1C11925A781300303B63
:10591000DBB2092B04D92A2A07D000239A46B7E71D
:1059200011A8FFF701FA8246B2E71C9B1A1D1C92D0
:105930001868002804DB8246119B01331193A7E706
:105940000020F8E780235B002343511C119152781B
:105950006C2A01D01C0018E0C0239B001C430131BD
:10596000119112E080232343511C11915278682A2F
:1059700001D01C0009E0C0231C430131119104E057
:1059800080235B001C4301321192119B18780300A5
:10599000253BDAB2532A00D92CE29300864AD35829
:1059A0009F4680239B001C4301321192EDE7802328
:1059B0005B001C4301321192E7E7782809D0582890
:1059C00038D06F2838D0622838D010239C430A265C
:1059D00000E01026582833D0692803D0642801D06D
:1059E0000C229443630501D50122944369282AD0EF
:1059F000642828D0A30500D59FE0E30500D5B8E0D2
:105A0000630600D4CAE01C9A111D1C911168FF2284
:105A10000A4005940A9B049353460393029600237D
:105A20000193009243463A0059462800FFF76EFA68
:105A3000070027E01026CDE70826CBE70226C9E7B6
:105A400020221443C8E7A30520D4E30550D46306FD
:105A500066D51C9A111D1C911168FF220A40D317AC
:105A6000D118594005940A9B049353460393029618
:105A7000D20F0192009143463A0059462800FFF7A1
:105A800045FA0700119B01331193D3E61C9BDA1DE5
:105A900007218A43110008311C91116853689C4604
:105AA000DB170C930D930C9A0D9B100048400E9041
:105AB000624653400F930E980F990C9A0D9B801AD3
:105AC00099410E900F9108940A9B079353460693B1
:105AD0000496002305936346DA0F02920090019129
